:020000020000FC
:100000000C94B53618951895189518951895189557
:100010001895189518951895189518950C943420DE
:1000200018951895189518950C94CD351895189520
:100030001895189518951895189518951895189558
:100040000C949E2018951895189518951895189544
:100050001895189518951895189518950C941324BB
:10006000189518950C94CF2C189518950C94FB2C7A
:100070001895189518951895189518951895189518
:100080001895189518951895189518951895189508
:1000900018951895189518951895189518951895F8
:1000A000189518950C945520189518954D0000003A
:1000B0000000000000000000F00000000000000050
:1000C0000000000012010002EF020120EB034521B5
:1000D00000100102030109026B00030100803209D4
:1000E0000400000203000000092111010001222385
:1000F00000070581034000010705020340000108D5
:100100000B010202020104090401000102020100C4
:10011000052400100104240206052406010205241A
:100120000103020705830340000809040200020AD4
:10013000000000070584024000000705050240009A
:10014000000C03410054004D0045004C0020036D9D
:10015000004500440042004700200043004D00538A
:1001600000490053002D0044004100500014036D6D
:100170000045004400420047002000430044004383
:10018000002A03040309040600FF0901A101150068
:1001900026FF00750896400009018102964000097B
:1001A00001910295040901B102C00001C106460592
:1001B000015705014A050E6505018C05018F0501F2
:1001C0009B0501A50501A80501AB0501AE0509B117
:1001D0000501BC0501CF0501E20501FE050C17066E
:1001E000012006012706012A06012F06013B060110
:1001F00047060A4B06015F0601B506016406018643
:100200000601A4060BBC06FB00014E125E0E018522
:100210000E01B60E01E80E011A0F014C0F01760F08
:1002200001A00F01CA0F010A10012F10015D10017A
:100230008B1001AE1001CC1001EB10010A1101343A
:1002400011015E1101881101AD110CD311100012C2
:10025000012712FB00000B140A00EA13F913FB1329
:10026000FD130B140414F913EA13EA130614060120
:10027000AC150D150A3C15014C15015515015B1502
:10028000016115017915017F15019515019B150176
:100290009515019B15019B15019B1501E81401F9AA
:1002A00014FB10E0F801E95FFC4F00810895502F26
:1002B000612F10E0007345E00E94CF369801062FB1
:1002C00010E00F7144E00E94CF36202B312B052F18
:1002D0000F70202B386B89010895602F512F052F47
:1002E00010E0007345E00E94CF369801062F10E021
:1002F0000F7144E00E94CF36202B312B052F0F7059
:10030000202B306B89010895212F10E00F7143E0FD
:100310000E94CF362770022B19E908950E947C377E
:10032000D8010AE10E945101902F09E10E94510178
:10033000802F882339F08F3F29F008E10E94510176
:10034000801709F4892F1FE1082FB1DF0D931C934B
:1003500011971EE1092FABDF12960D931C93119795
:100360000BE10E9451011CE1A2DF12960D931C9338
:1003700011970CE10E945101102F00E0AEDF1296A0
:100380000D931C93119708E10E94510110E08FDF3B
:1003900012960D931C93119708E10E945101102FA2
:1003A00000E09BDF12960D931C9311970CE10E94C5
:1003B000510110E07CDF12960D931C9311970BE115
:1003C0000E9451011BE173DF12960D931C9311974C
:1003D0000BE10E94510111E097DF12960D931C93DF
:1003E00011970BE10E9451011AE161DF12960D9302
:1003F0001C93E4E00C948D37BA93AA93D80108E1DA
:100400000E945101102F00E068DF0D931C9311979B
:1004100008E10E945101102F01E05FDF12960D9359
:100420001C93A991B991089508959A938A93009184
:10043000160A002309F48AC000914A02002349F0F9
:1004400000914B020E94BA2D002319F000E00093A6
:100450004A0200914A02002391F505E00093E90069
:100460000091E800102F12FF2AC08091F20001C015
:100470008A958823D1F09091F100092F0E94BA2D1E
:100480000023B1F790934B0201E000934A028A9552
:1004900009F05CC00091E8000B7F0093E800009138
:1004A000E8000F770093E80051C00091E8000B7F4F
:1004B0000093E8000091E8000F770093E8000E94A5
:1004C000E02D802F882331F00F7321F001E000939D
:1004D00049020CC000E0FBCF0091E8000E7F0093C2
:1004E000E8000091E8000F770093E8008823A9F066
:1004F00004E00093E9000091E800102F15FFFBCF06
:100500000091E800102F15FFE7CF882329F30E9400
:10051000E32D0093F1008A95F3CF00914902002367
:10052000A9F004E00093E9000091E800102F15FF06
:10053000FBCF0091E8000E7F0093E8000091E800F7
:100540000F770093E80000E00093490289919991A8
:100550000895229720E02883298309C024E02A9562
:10056000F1F7288139812F5F3F4F28833983288114
:1005700039812017310790F3229608959A938A9330
:10058000C80104C008EE13E00E94A902FC01019713
:10059000EF2BC1F789919991089521982998229874
:1005A0002A9854985C9808950E947937290180E030
:1005B000D2011296F2018083F8010181005F09F4F3
:1005C00067C00E5009F46CC00A9509F463C002506C
:1005D00061F00A95B9F00A95B1F10A95C9F10A9549
:1005E00021F00A9509F440C05EC001E40C9304E7D1
:1005F000FD0101830DE6028305E603830CE6048317
:1006000085E051C00DE60C9305E4FD01018304E48F
:10061000028302E4038307E4048300E2058303E426
:1006200006830DE4078303E5008709E4018703E5FA
:1006300002870DE2038704E4048701E4058700E5EF
:1006400006878FE030C08D010E94A52284E12BC077
:100650008C93FD018183828301E0038384838583FE
:100660008683878388E01FC09CE7662405C0FD0160
:10067000E60DF81F008363940EE16016A0F4092FC5
:1006800010E00E9485229395002389F7862D0BC0E8
:1006900003E007C000E40C93FD01818382E003C006
:1006A00001E00C9381E0F2018183082FE7E00C94D4
:1006B0008A37F8010081F9010083418300E0089541
:1006C0000E947C37F801C90100E8DC010C9323810A
:1006D00000E017C010E0DF01A00FB11F14961C91BD
:1006E00040913A0250913B02DA01A751BA4F1C9354
:1006F000AAE3B2E04D915C914F5F5F4F5C934E93E4
:100700000395021738F3018102950F7011811F7054
:10071000011721F40E949B2E01E001C000E0FC01C2
:10072000018300E0E4E00C948D370E947C37D9010E
:1007300001E80C930E94A92E002309F45CC00091EB
:10074000600210915F02011769F44CE350E00091E0
:100750003A0210913B020E94DB360395009360023F
:1007600001E003C000915F02039500935F020091D6
:100770005F020295007F10916002012BFD01018351
:1007800000E0028300915F0210916002011758F4AB
:100790000CE30383EAE3F2E0008111810C53104083
:1007A0000083118303C000913A02038380915F02AA
:1007B00090E001974CE350E08C010E94C73620E0A6
:1007C0000DC030E0A801420F531FFA01E751FA4F64
:1007D0004081FD01E20FF31F44832395FD01338126
:1007E000231778F30091600210915F02011731F432
:1007F0000E94B12E03C000E0FD01018300E0E4E0AF
:100800000C948D37BA93AA93D90102E80C930E94F5
:10081000CE2F002300E0FD010183C1F00E94E52FEF
:10082000FD0102830E94E82F20E009C0F8014191F8
:100830008F0130E0FD01E20FF31F43832395FD019B
:100840003281231798F30E94D62F01C0028308E05B
:10085000A991B9910895BA93AA93F801D90103E82F
:100860000C9304E00093610230E461E672E0AD01B4
:100870002381118102810E94520E11960C931197CF
:1008800000E012960C9312970091610213960C935C
:1008900000916102A991B99108955B2F0A2EF80188
:1008A000D90100810C930181302F20E010E000E09D
:1008B0006281020F261F4381141F4481040F0133FC
:1008C00042E714074CE7240740E1340721F00FEF1B
:1008D000FD01018306C000E0FD01018301E00093FA
:1008E000260202E0A02DB52F0895F801408144238F
:1008F00011F401E001C00081013031F401E0009306
:100900004E02F9010083089500E0F901008301E03F
:100910000895BA93AA93D80100E000934E023DDEF9
:1009200000E00C9301E0A991B99108950E947837F5
:10093000C801D901FC010081005829F10A9531F163
:100940000A9539F10A9541F1025049F10A5109F429
:1009500067C0015639F00A9541F00A9541F00A95B1
:1009600069F057C08C0120DE58C040E054C00191AE
:10097000CF010D939D018C01B8DF4FC000810D9315
:100980008D01C7DF4AC08C019BDE47C08C01CDDEE4
:1009900044C08C0137DF41C08C015DDF3EC005E8FB
:1009A0000C937180528044240381402A0AE0400E57
:1009B00000E0501E662405C0299882010E94A90209
:1009C00063946714E8F4FC01048107FF0CC0062D52
:1009D00010E0E00FF11F058107FF03C054985C9AF7
:1009E00002C0549A5C98FC01048100FFE6CF062DFA
:1009F00010E0E00FF11F058100FFDECF299ADDCF67
:100A000054985C9A05E010E00E94BE0200E0FD01EF
:100A1000018340E09D018C014CDEE8E00C948937B5
:100A20008C013BDFFACFE2E6F2E000E0068B078BB9
:100A3000008F048B0895E2E6F2E00FEF008300E000
:100A4000018302830383048305830683078710D011
:100A50000895E2E6F2E000E0008B01E0018B02E3A2
:100A6000028B00E0038B0895DEDFE5DFF2DF0895FF
:100A700008950E94773728970E94C52E802F0E94E4
:100A8000C52E082FEAEAF1E00C942B370E94D12EF4
:100A9000BAD27AC10E94D12E902F0E94D12E802FDF
:100AA0000E94D12E202F182F092F22D26DC10E9413
:100AB000D12E902F0E94D12E802F0E94D12E202F38
:100AC000182F092F79D127D35FC1D2DF0E94C52EFD
:100AD000002311F001E001C000E0E2E6F2E0038B48
:100AE0009E012C5F3F4F03890E944D09002311F4A2
:100AF00018D34AC1043871F400E038D30C811D8149
:100B00002E813F810E94432F00E00E94F02E0E9420
:100B1000192F3AC115D338C10E943809D4CF8E019C
:100B20000E945D0D0023B1F700E020D308811981F8
:100B30002A813B81E7CF0E94C52E002311F001E0FE
:100B400001C000E00E94D609BECF0E94D909BBCFE8
:100B50000E94FF09B8CF0E94040AB5CF0E94100A74
:100B6000B2CF0E94C52E802F0E94DC2EA801B901B1
:100B7000082F0E94700DA7CF0E94C52E402E0E9404
:100B8000DC2EC801D9010E94DC2E3A932A931A93D5
:100B90000A93AC01BD01042D0E94630AF5C00E94B6
:100BA000C52E402E0E94DC2EC801D9010E94DC2EE9
:100BB0003A932A931A930A93AC01BD01042D0E9423
:100BC000FE0BE2C00E94C52E802E0E94DC2EC801C2
:100BD000D9010E94DC2E280139010E94C52E002374
:100BE00011F011E001C010E07A926A925A924A9292
:100BF000AC01BD01082D0E94CC0CC6C00E94C52EC0
:100C0000402E0E94DC2EC801D9010E94DC2E3A93AE
:100C10002A931A930A939E012C5F3F4FAC01BD01AA
:100C2000042D0E94720D002309F47ECF73CF0E9421
:100C3000C52E013011F000E96DCF0E94FC0943CFB1
:100C40000E94C52E0130B9F70E94DF093CCF0E94F7
:100C5000DC0939CF0E94DC2E0E94E20934CF0E94C9
:100C6000C52E802F0E94C52E813029F7013019F73B
:100C70000E94E50928CF8E010E94E809002331F483
:100C8000088119812A813B817DD27EC043CF0E9499
:100C9000DC2E81D018CF0E94C52E402E0E94C52E7A
:100CA000502E0E94DC2EC801D9010E94C52E202F93
:100CB000AC01BD01152D042D0E94770D04CF0E94BB
:100CC000C52E0E94790DFFCE0E94762FC801A0E0AC
:100CD00000916402043039F403E10E9451010130B3
:100CE00011F400E817CF082F037019F4082F092B0F
:100CF00041F407E30FCF0E94DC2E0E947D27A02B3A
:100D00000497082F092BB9F70A2FDDCE0E94762F02
:100D1000C801A0E000916402043029F403E10E94BC
:100D200051010130F1F2082F037019F7082F092B38
:100D300039F4DFCF0E94DC2E0E948F27A02B04976E
:100D4000082F092BB9F7E0CF00911502002311F00D
:100D500002E3E0CE0E944E27002329F00E940C27D8
:100D6000002309F0C5CE0FEFD5CE00911502002368
:100D700079F70E947B0DA7CE0E94DC2E0E94750D94
:100D8000A2CE01E9DDD100000E94832F2896E9E080
:100D90000C9488370895E3E0F4E041E044A34091E7
:100DA0001502442319F0000002E3089500A311A3E3
:100DB00022A333A300E008959A938A93812F922F60
:100DC000005089F00A9559F10A95F9F10A9509F44C
:100DD00050C000E948C00E94D12E102F0A95023061
:100DE000C0F410936302092F9A950023D9F1082FBC
:100DF0008395005019F00A9571F3F5CF0E94D12E1A
:100E0000102F1150135010F01A9519F4009362022C
:100E1000EACF01E128C00E94D12E00936402092F7D
:100E20009A950023F9F0082F83950050A1F3005103
:100E300049F40E94C52E053010F000E214C0009362
:100E40007102EDCF0E94D12EEACF0E94EB2E9801C5
:100E5000192F082F0E94441900916402053011F4E3
:100E60000E940E1A00E089919991089500E0009384
:100E70007202092F9A950023A9F3082F8395005039
:100E800039F0035059F00A9599F0035029F12DC01B
:100E90000E94D12E002351F301E0E9CF0E94D12E10
:100EA000002311F001E001C000E000937302E1CFE4
:100EB0000E94D12E102F115051F0145041F01550B6
:100EC00031F01A5021F01E5111F0125319F4009311
:100ED0007402CFCF03E2C7CF0E94D12E002311F0BE
:100EE00001E001C000E0009376020E94D12EC1CF44
:100EF0000E947C37A02F812FB22F91E000E036D1E5
:100F00000E946B2FA05809F468C0A05889F0AA95D8
:100F100029F1AA9509F451C0AA95B9F190E0992355
:100F200009F469C000E068C0009162020E941D2FB0
:100F30000B2FBA95002399F3082F83950050A1F346
:100F40000A9519F400916302F1CF00E00E941D2F71
:100F500090E0EECF009171020E941D2F0B2FBA95E9
:100F60000023E9F2082F8395005019F0005191F306
:100F700003C000916402F0CF00E00E941D2F90E0BA
:100F8000EDCF009172020E941D2F0B2FBA95002306
:100F900031F2082F83950050A1F3035019F00A9500
:100FA00021F006C000917302EECF00917402EBCFE6
:100FB00000E00E941D2F90E0E8CF0B2FBA95002390
:100FC00009F4ADCF082F0E94510183950E941D2F77
:100FD000F4CF009115020E94F02E0B2FBA9500233A
:100FE00009F49DCF082F8395002399F300E00E9418
:100FF0001D2F90E0F2CF01E10E94F02E0E94192FE8
:10100000E4E00C948D378A93802FD5D08050B1F0D6
:101010008A9509F454C08A9509F453C08A9509F455
:1010200052C0825009F451C08A9509F451C08A9582
:1010300009F450C08A9509F45EC069C000E00E94BE
:10104000F02E01E00E94F02E02E00E94F02E00E15E
:101050000E94F02E01E10E94F02E02E10E94F02E8B
:1010600003E10E94F02E04E10E94F02E07E10E94AD
:10107000F02E01E20E94F02E02E20E94F02E03E226
:101080000E94F02E00E30E94F02E01E30E94F02E59
:1010900002E30E94F02E03E30E94F02E04E30E947C
:1010A000F02E05E30E94F02E06E30E94F02E03E4EA
:1010B0000E94F02E04E40E94F02E05E426C003E016
:1010C00024C002E022C005E020C000E00E94F02E13
:1010D00001E01BC000E20E94F02E02E20E94F02E0E
:1010E00000EA0E94F02E00EB0E94F02E01EB0E941D
:1010F000F02E04EB0AC000E20E94F02E02E20E94F1
:10110000F02E00EB0E94F02E01EB0E94F02E0E94C8
:10111000192F89910895002311F012D0089501D05C
:10112000089500E00E94042F02E10E94F02E00E8E2
:101130000E94F02E00E00E94F02E0E94192F0895C8
:101140008A93802F27DE00E00E94042F02E10E9494
:10115000F02E00EA0E94F02E00E00E94F02E082FF0
:101160000E94F02E0E94192F899108950E94042F49
:1011700002E10E94F02E04E80E94F02E00E00E949E
:10118000F02E08950E947C37C801D90100E00E942A
:10119000042F02E10E94F02E03E80E94F02E00E0EE
:1011A0000E94F02E8C019D010E94432F0E94192F56
:1011B000E4E00C948D3700E00E94042F02E10E94CD
:1011C000F02E01E80E94F02E00E00E94F02E08951B
:1011D0000E947737C801D901842E3B010E94B82FA5
:1011E0002801012BD1F022E182010E94872F20E407
:1011F00082010E94872FAC01BD0182010E94A92FAC
:10120000282D82010E94872F930182010E949D2F29
:1012100082010E94C22F01E001C000E0E9E00C94CD
:1012200088370E947C3743E00E94EF36C801D9011D
:1012300002C00E94C52E8C019D0181509040A040AB
:10124000B040012B022B032BA1F7E4E00C948D3767
:101250009A938A93902F0E945101802F9395092F82
:101260000E945101282F302F890189919991089569
:1012700000917A02002311F400E008950E942C17D7
:10128000002311F00E943A170E94731700E00E9499
:101290003C1900E000937A020895BA93AA93D90109
:1012A00000917A02002311F001E37DC00E94F8242E
:1012B0000E940E1A01E00E943C190E941A1A0E9414
:1012C000D71A002379F400E00E943C1901E212E0F1
:1012D0000E9485220F3F21F006FB16F404E463C050
:1012E00000E161C00E94152300E0009318020E94F3
:1012F000B4190093690310936A0300916903109174
:101300006A030F3F2FEF120721F00E9410200023E5
:1013100071F4000000E00E943C1901E212E00E941A
:1013200085220F3F11F006FBCEF20AE33CC00E947B
:101330000020002331F4000000E00E943C1901E28B
:1013400032C00E94B4192091690330916A030217D8
:10135000130711F00000F0CF0E94491A0E941020DC
:10136000002331F4000000E00E943C1900E61BC09D
:101370000E940B1B0E941020002331F4000000E0AB
:101380000E943C1901E60FC001E000937A0200912F
:10139000690310916A0320E00D931D932D932C9304
:1013A0000E94431704E8A991B99108950E942F174C
:1013B00008950E943A1708950E94B71708950E9451
:1013C000991708950E940A1808950E940C1908950B
:1013D00020911502222319F0000002E30895E3E0B2
:1013E000F4E040A151A162A173A1F80140835183AF
:1013F0006283738300E008950E946B18089501E0F2
:101400000093790200E0089500E0009379020E94C1
:101410002C17002319F400E00E942F1700E0089514
:101420000E947F1708950E9478372A013B01888522
:101430009985AA85BB8510911502112311F002E34D
:1014400038C0005AC9F1005139F0045001F10C566E
:1014500059F1025069F135C000E00E94280920E0EE
:1014600080179107A207B20711F005E322C000E040
:101470000E942809A80160E070E0820193010E94A7
:10148000FF3641294229432999F007E312C08330EE
:1014900000E09007A007B00741F7042D05290629B1
:1014A000072931F006E305C000917902002339F6DF
:1014B00000E0ECE00C94893780FBBEF240FA2EF39A
:1014C000F7CF04E3F6CF0E947037802ECA01DB010C
:1014D000488859886A887B880E941D1A002311F465
:1014E00000E16DC17A926A925A924A92AC01BD01B2
:1014F000082D99DF002309F062C1082D005A09F474
:1015000010C1005141F0045009F10C5609F457C0C4
:101510000250A9F153C100E00E94B6080E946B2F4F
:101520004801F401208131818C010E946A1C8201F2
:10153000F40120813181200F311F208331830E94EB
:10154000102F0E9410200023C1F113C00E94B41973
:10155000C8010E941020002319F400E10E94A00895
:1015600000E00E94B6080EE10E941D2F8C010E942F
:10157000322F00E00E94F02E0E94192F22C10E94FB
:10158000A61F00E00E94B60807C08C010E94831EBF
:101590008F5F9F4F0E94F02E820193014FEF440E08
:1015A000541E641E741E012B022B032B71F70E9424
:1015B000D31F0E9410200023E1F600E1DBCF81322F
:1015C00000E09007A007B00750F108E10E94510128
:1015D00010E0A80160E070E08C019D010052104015
:1015E000204030404017510762077307C0F008E100
:1015F0000E94510110E0A80160E070E08C019D01A3
:10160000040D151D261D371D00521040204030408E
:10161000401751076207730710F406E3D0C000E0DB
:101620000E94B608803200E09007A007B00710F5CE
:1016300023E034E0280F391FAC01BD01440D551DD6
:10164000661D771D413250076007700770F100E298
:1016500010E0AC01041B150B0E94562F80529040E5
:10166000A040B040480E591E6A1E7B1E80E290E0EA
:10167000A0E0B0E00EE00E94280920E0801791076A
:10168000A207B207D8F4042D05290629072981F0FD
:101690008C010E94601B0E94F02E8F5F9F4F0FEF06
:1016A000400E501E601E701EEECF82010E94562F0B
:1016B0000E941020002309F05CCF7FCF0E946B2F87
:1016C00058011FC04201F5014081518194018C01F4
:1016D0000E94BE1BF50100811181080D191D0083B8
:1016E000118384010E94102F840120E0401A510AC6
:1016F000620A720A042D05290629072911F080586B
:101700009F4F042D05290629072991F201E840166B
:1017100000E0500660067006A8F200E8802E9924CA
:10172000D2CF00E00E94B6080E946B2F48010E94B1
:101730006E2F5801620100E00E942809C016D106F0
:10174000F9F400E00E942809A80160E070E08C0133
:101750009D010E94FF3641294229432989F4F40161
:10176000208131818C010E946A1C8201F401208158
:101770003181200F311F208331830E94102F15C02B
:10178000CC24DD240BC0F401208131818C010C0DAF
:101790001D1D0E94C11C02E0C00EDE1CEE24FF24B1
:1017A000C414D504E604F70470F3BA92AA92A20115
:1017B000B3018C019D010E94A1277ACF04E30E940E
:1017C000A008E4E10C948137488159816A817B81CA
:1017D0001091150220917902122B11F002E30CC036
:1017E000003249F4413001E0500700E06007700723
:1017F00018F005E301C004E3249608950E947437AD
:10180000A097902E2A013B018CA59DA5AEA5BFA552
:101810000E941D1A002331F48C019D010E941109C0
:1018200000E178C0BA93AA939A938A93A201B30174
:10183000092DCADF802E882031F08C019D010E9485
:101840001109082D67C0882409C00E94C52EFE0119
:10185000282D30E0E20FF31F00838394082C11241D
:101860002224332443E08C019D010E94EF360016B0
:1018700011062206330648F300E2901609F049C02B
:101880004E01AA24BB2400E00E94B6080BC000E071
:101890000E94F02EA69401E0400E00E0501E601E53
:1018A000701EB3948C019D0181509040A040B040C7
:1018B000012B022B032B09F10B2D077019F4F401F6
:1018C000A1904F01A0FA1EF700E2401600E050067A
:1018D0006006700630F48201F801ED5FFB4F008175
:1018E000D7CF0EE00E94280920E04016510662067C
:1018F000720682010E94601BCBCF0E941020002341
:1019000011F000E001C000E10E94F02E0E94192FAA
:1019100003C004E30E94A008A096E0E10C94853780
:101920000E9478372A013B0188859985AA85BB8565
:10193000182F192B1A2B1B2B19F4000005E329C0B3
:1019400010911502112311F002E323C0005B29F06E
:101950000057F1F00250E1F019C000E00E942809A0
:1019600020E080179107A207B20741F700E00E942C
:101970002809A80160E070E0820193010E94FF360F
:1019800041294229432921F007E303C004E301C0B0
:1019900000E0ECE00C9489370E947637802E2A0113
:1019A0003B018A859B85AC85BD850E941D1A00235D
:1019B00011F400E17DC0BA93AA939A938A93A2018D
:1019C000B301082DADDF002309F072C0082D005BC4
:1019D00029F00057B1F1025099F069C00E94732FAD
:1019E000F8012081318182010E94111D8C010E9429
:1019F000102F0E9410200023E1F20E9491085AC08B
:101A00000E94A61F0E94EB2E48010AC0F4012191FA
:101A10004F0182010E940B1F01E0400E00E0501EAA
:101A20008C019D0181509040A040B040012B022BC1
:101A3000032B61F70E94D31F0E9410200023E9F6B8
:101A4000B8CF0E94EB2E480100E2401600E050069D
:101A50006006700608F58C019D0181509040A04001
:101A6000B040012B022B032B39F3F40101914F01FC
:101A70009201F901ED5FFB4F008301E0400E00E0B1
:101A8000501EE9CFF40121914F0182010E940E1CEA
:101A900001E0400E00E0501E8C019D0181509040FD
:101AA000A040B040012B022B032B61F7C5CF04E30C
:101AB0000E94A008EEE00C94873720917A0222233E
:101AC00011F401E308954091690350916A0370E0B5
:101AD0006EE1F801408351836283738300E00895CF
:101AE00000E9089500E92496089500E9089500E9C1
:101AF000089500E9089500E908950E947D370E9445
:101B0000C52E802F0E94C52E805069F08A9569F0FD
:101B10008A95C9F08E51A1F18A9549F18950F9F160
:101B20008A95F9F140C044D03EC00E94D12E902F3A
:101B30000E94D12E802F0E94D12E202F182F092FE6
:101B400051D021D530C00E94D12EA02F0E94D12E7D
:101B5000802F0E94D12E902F00E009D5292F182F19
:101B60000A2F73D00E94F02E0E94192F1CC00E94D1
:101B7000D32E012B11F001E001C000E09CD412C073
:101B800000E0F5D41E9B05C00091220210912302B3
:101B900002C000E010E00E94202F00E0E3CFACD4B0
:101BA00001C0A2D4B3D40E94832FE3E00C948E37FB
:101BB0000E94C52E002399F4CDD400E00E94F02E9F
:101BC00001E00E94F02E02E00E94F02E00E20E944E
:101BD000F02E01E20E94F02E0E94192F089501E0DC
:101BE000A4D408950E947C37B22F80E090E000508A
:101BF00099F0005119F00A9531F592E0212F820FEA
:101C0000A0E0AB1788F40E94C52E202F8C010E9403
:101C100076220196A395F5CF105029F01A9541F040
:101C20001F5041F010C043D400E0E4E00C948D3725
:101C30003AD4FACF0E94D12E002311F001E001C066
:101C400000E039D4F1CF01E1F0CF0E947C37A22F20
:101C500080E090E0005091F0005119F00A9501F5F4
:101C600092E0212F820FB0E0BA1790F48C010E940D
:101C7000852201960E94F02EB395F6CF105029F0E0
:101C80001A9519F01F5041F00BC000E00E94F02E91
:101C900000E0E4E00C948D371E9BF7CF01E0F6CF17
:101CA00001E1F7CF0E947737412E522ECA01DB01A6
:101CB000632E7724E8E0F2E00C942B37062D10E039
:101CC000EC91F0E033960E171F071CF400E3702E22
:101CD000E6C30C91102F13951C93FC01E00FF71D28
:101CE00070820C91102F13951C93FC01E00FF71DCF
:101CF00070820C91102F13951C9321E0FC01E00FD2
:101D0000F71D20834A9409F4CAC3062D10E0EC9114
:101D1000F0E077960E171F07CCF20C91102F139559
:101D20001C9321E0FC01E00FF71D20830C91102F84
:101D300013951C9320E110E0FC01E00FF11F2083BC
:101D400044E10C919C01200F311F04E00E9492227B
:101D50000C910C5E0C930C91102F13951C93FC01AD
:101D6000E00FF71D70824A9409F499C3062D10E024
:101D7000EC91F0E0F5960E171F070CF4A7CF0C912D
:101D8000102F13951C9322E0FC01E00FF71D208318
:101D90000C91102F13951C9320E110E0FC01E00F33
:101DA000F11F208342E30C919C01200F311F08E1B9
:101DB0000E9492220C910E5C0C930C91102F1395A3
:101DC0001C93FC01E00FF71D70824A9409F467C36D
:101DD000062D10E0EC91F0E0F5960E171F070CF4BD
:101DE00075CF0C91102F13951C9323E0FC01E00F8D
:101DF000F71D20830C91102F13951C9320E110E008
:101E0000FC01E00FF11F208342E30C919C01200FA5
:101E1000311F0AE40E9492220C910E5C0C930C91EB
:101E2000102F13951C93FC01E00FF71D70824A944C
:101E300009F435C3062D10E0EC91F0E0B1960E17D1
:101E40001F070CF443CF0C91102F13951C9324E023
:101E5000FC01E00FF71D20830C91102F13951C93AC
:101E600020E110E0FC01E00FF11F20834EE10C9116
:101E70009C01200F311F0CE70E9492220C91025E00
:101E80000C930C91102F13951C93FC01E00FF71D80
:101E900070824A9409F403C3062D10E0EC91F0E03F
:101EA00036960E171F070CF411CF0C91102F1395B7
:101EB0001C9325E0FC01E00FF71D20830C91102FEF
:101EC00013951C9322E010E0FC01E00FF11F20832A
:101ED0004EE10C919C01200F311F0AE90E949222D1
:101EE0000C910C5F0C934A9409F4D9C2062D10E0B2
:101EF000EC91F0E036960E171F070CF4E7CE0C912C
:101F0000102F13951C9326E0FC01E00FF71D208392
:101F10000C91102F13951C9322E010E0FC01E00FB0
:101F2000F11F20834EE10C919C01200F311F0EE91F
:101F30000E9492220C910C5F0C934A9409F4AFC258
:101F4000062D10E0EC91F0E036960E171F070CF40A
:101F5000BDCE0C91102F13951C9327E0FC01E00FD0
:101F6000F71D20830C91102F13951C9322E010E095
:101F7000FC01E00FF11F20834EE10C919C01200F2A
:101F8000311F02EA0E9492220C910C5F0C934A943A
:101F900009F485C2062D10E0EC91F0E034960E179E
:101FA0001F070CF493CE0C91102F13951C9328E06F
:101FB000FC01E00FF71D20830C91102F13951C934B
:101FC00022E0FC01E00FF71D20830C91102F1395E8
:101FD0001C9320EDFC01E00FF71D20830C91102FC6
:101FE00013951C9320E2FC01E00FF71D20830C9158
:101FF000102F13951C93FC01E00FF71D70820C91BC
:10200000102F13951C93FC01E00FF71D70824A946A
:1020100009F445C2062D10E0EC91F0E033960E175E
:102020001F070CF453CE0C91102F13951C9329E02D
:10203000FC01E00FF71D20830C91102F13951C93CA
:10204000FC01E00FF71D70820C91102F13951C936B
:10205000FC01E00FF71D70824A9409F420C2062D9E
:1020600010E0EC91F0E034960E171F070CF42ECE22
:102070000C91102F13951C932AE0FC01E00FF71D23
:1020800020830C91102F13951C9321E0FC01E00F8D
:10209000F71D20830C91102F13951C93FC01E00F6A
:1020A000F71D70820C91102F13951C93FC01E00F0B
:1020B000F71D70824A9409F4F2C1062D10E0EC91EC
:1020C000F0E034960E171F070CF400CE0C91102F81
:1020D00013951C932BE0FC01E00FF71D20830C915E
:1020E000102F13951C9321E0FC01E00FF71D2083B6
:1020F0000C91102F13951C93FC01E00FF71D7082BB
:102100000C91102F13951C93FC01E00FF71D7082AA
:102110004A9409F4C4C1052D0A950A3010F073944D
:10212000BEC10C91102F13951C932CE0FC01E00F05
:10213000F71D20830C91102F13951C9320E1FC01B7
:10214000E00FF71D20830C91102F13951C93FC01B9
:10215000E00FF71D70824A9409F4A1C1052D0A957C
:102160000A30E8F60C91102F13951C932DE0FC011A
:10217000E00FF71D20830C91102F13951C9320E185
:10218000FC01E00FF71D20830C91102F13951C9379
:10219000FC01E00FF71D7082052D0A950A3008F04A
:1021A000BECF0C91102F13951C932EE0FC01E00F75
:1021B000F71D20830C91102F13951C9320E1FC0137
:1021C000E00FF71D20830C91102F13951C93FC0139
:1021D000E00FF71D7082052D0A950A3008F09FCF99
:1021E0000C91102F13951C932FE0FC01E00FF71DAD
:1021F00020830C91102F13951C9320E1FC01E00F1C
:10220000F71D20830C91102F13951C93FC01E00FF8
:10221000F71D7082052D0A950A3008F080CF0C91C9
:10222000102F13951C9320E1FC01E00FF71D208374
:102230000C91102F13951C9321E0FC01E00FF71D6A
:1022400020830C91102F13951C93FC01E00FF71DB8
:1022500070820C91102F13951C93FC01E00FF71D59
:1022600070824A9409F41BC1052D0A950A3008F0C2
:1022700056CF0C91102F13951C9321E1FC01E00F18
:10228000F71D20830C91102F13951C9321E0FC0166
:10229000E00FF71D20830C91102F13951C93FC0168
:1022A000E00FF71D70820C91102F13951C93FC0109
:1022B000E00FF71D70824A9409F4F1C05A940AE0C5
:1022C000501608F02CCF0C91102F13951C9322E17F
:1022D000FC01E00FF71D20830C91102F13951C9328
:1022E00021E0FC01E00FF71D20830C91102F1395C6
:1022F0001C93FC01E00FF71D70820C91102F1395B9
:102300001C93FC01E00FF71D70824A9409F4C7C0CA
:10231000062D10E0EC91F0E033960E171F070CF439
:10232000D5CC0C91102F13951C9323E1FC01E00FE9
:10233000F71D20830C91102F13951C93FC01E00FC7
:10234000F71D70820C91102F13951C93FC01E00F68
:10235000F71D70824A9409F4A2C0062D10E0EC919A
:10236000F0E033960E171F070CF4B0CC0C91102F31
:1023700013951C9324E1FC01E00FF71D20830C91C1
:10238000102F13951C9320E1FC01E00FF71D208313
:102390000C91102F13951C93FC01E00FF71D708218
:1023A0004A9409F47CC0062D10E0EC91F0E0B2965E
:1023B0000E171F070CF48ACC0C91102F13951C9349
:1023C00020E2FC01E00FF71D20830C91102F1395E4
:1023D0001C9310E0FC01E00FF71D208300E00AC011
:1023E0002C91322F33953C93FC01E20FF71D708244
:1023F0000F5F1F4F003217059CF34A9409F44FC03A
:10240000062D10E0EC91F0E033960E171F070CF448
:102410005DCC0C91102F13951C93FC01E00FF71D60
:1024200070820C91102F13951C9310E0FC01E00FAB
:10243000F11F10838C90082D03950C930EEF0E94D2
:102440008522FC01E80DF71D00834A9441F1062D19
:1024500010E0EC91F0E033960E171F070CF436CC29
:102460000C91102F13951C93FC01E00FF71D708247
:102470000C91102F13951C93FC01E00FF71D708237
:102480006C90062D03950C9300E212E00E948522C9
:10249000860D971DFC0100834A9409F07A94072D5C
:1024A000E9E00C9488370E94D12E01E008950E9443
:1024B000D12E00E00895002351F026982E980AE0CE
:1024C00010E00E94A90225980E9413300BC00E94C0
:1024D00070220E94273000E00E9411282E98269A30
:1024E0002D98259A00E0089526982E980AE010E08D
:1024F0000E94A902259808950E94702200E00E947F
:1025000011282E98269A259800E0089500E00E9450
:10251000042F00E20E94F02E00E80E94F02E00E05E
:102520000E94F02E0E94192F08958A93802F00E0B8
:102530000E94042F00E20E94F02E00EA0E94F02E7A
:1025400000E00E94F02E082F0E94F02E0E94192F0A
:102550008991089500E00E94042F00E20E94F02E6D
:1025600001E80E94F02E00E00E94F02E08950E94E3
:10257000042F00E20E94F02E04E80E94F02E01E0F9
:102580000E94F02E0895002311F4C0DF0895CDDFDE
:1025900008950E94C52E002311F406D002C000E168
:1025A000A6D10E94832F08959A938A9364970E94DC
:1025B000C52E0E94C52E005809F45EC00A95D9F1B7
:1025C0000A9509F442C00A9509F44BC00A9509F42A
:1025D0005FC00C5749F00A95D1F00A95F1F00A95C1
:1025E00011F10A9531F15FC0A4D100E00E94F02EF4
:1025F00001E00E94F02E02E10E94F02E00E20E9413
:10260000F02E01E10E94F02E0E94192F4EC091D1B0
:1026100002E00E94F02E03E0F5CF8BD101E00E9492
:10262000F02E02E0EFCF85D101E00E94F02E05E010
:10263000E9CF7FD1E9CF7DD18E010E94A5229E01F5
:1026400004E110E00E94562FDFCF73D180E090E0CC
:1026500003C00E94F02E01968E3000E09007CCF36C
:10266000D3CF67D180E090E0823000E0900764F63D
:102670000E94F02E0196F8CF5CD104E70E94F02E64
:102680000DE40E94F02E01E40E94F02E04E4BACF83
:1026900050D180E090E08F3000E090070CF70E946E
:1026A000F02E0196F8CF00E122D16496899199919C
:1026B00008959A938A930E94C52E802F0E94C52E5A
:1026C000805069F08A9569F08A95C1F08E5019F1B1
:1026D0008A9521F18152A9F18E51A9F136C03CD0E1
:1026E00036C00E94D12E902F0E94D12E802F0E94A2
:1026F000D12E202F182F092F54D028C00E94D12E60
:10270000902F0E94D12E802F0E94D12E202F182F83
:10271000092F49D01CC0B9D0DBD019C00E94D12EDE
:10272000802FB8D0D5D0813091F4F894A89500913D
:1027300060000861009360000EE0009360007894F0
:1027400006C0A9D003C014D102C000E10BD10E9481
:10275000832F8991999108950E94C52E005019F0F8
:102760000250C1F01BC0D8D000E00E94F02E01E062
:102770000E94F02E02E00E94F02E00E10E94F02E56
:1027800001E10E94F02E00E50E94F02E02E30E947B
:10279000F02E01C0C1D00E94192F089500E1A7D0EA
:1027A000089500E008950E947C37B02F912F822F6A
:1027B000A1E000E0CBD00E946B2FB05071F0BA9531
:1027C000B9F1B25009F446C0A0E0AA2309F455C0FB
:1027D00000E054C000E00E94F02E082F8A950023EC
:1027E000A1F3813890F7092F9395E4E5F2E00C947A
:1027F0002B3701E0F0CF06E1EECF06E810E00E94B3
:10280000202F93958A95E9CF02E0E5CF0EEF10E0F7
:102810000E948522E0CF00E00E94F02EA0E0DDCFF4
:1028200000912202109123020E94202F93958A95F5
:10283000082F8A95002349F2813838F6092F93959D
:10284000002371F300E00E94F02EA0E0F1CF0AE037
:102850000E94F02E082F8A95002309F4B6CF813804
:1028600008F0B3CF092F9395005089F30A9579F3B7
:1028700000E00E94F02EA0E0EDCF01E10E94F02EDA
:102880000E94192FE4E00C948D370E9434050E94B9
:10289000BB220895089500917A02002311F005E605
:1028A00008950E94F82401E00E943C190E94D71A62
:1028B000002329F400E00E943C1906E608950E94D6
:1028C0002D1A0E94731700E00E943C1900E0089541
:1028D00000E00E94042F01E00E94F02E00E80E9418
:1028E000F02E00E00E94F02E0E94192F08958A9386
:1028F000802F00E00E94042F01E00E94F02E00EAE9
:102900000E94F02E00E00E94F02E082F0E94F02E70
:102910000E94192F8991089500E00E94042F01E080
:102920000E94F02E01E80E94F02E00E00E94F02E9E
:10293000089500E00E94042F00E00E94F02E01E8BC
:102940000E94F02E00E00E94F02E08950E94042FB5
:1029500001E00E94F02E04E80E94F02E01E00E94A7
:10296000F02E0895002311F4B3DF0895C0DF089519
:102970000E94DC2E013342E714074CE7240740E1B4
:10298000340719F001E1B3DF089501E00093260256
:102990009FDF0895EBE7F2E000E00083018302830C
:1029A0000383048305830895F5DF0E94F62700EA78
:1029B00016E821E030E00E94052808950E947C3747
:1029C00021970E94C52EA02FEEE6F2E00C942B3743
:1029D0000E94D32E00E00E94042F01E10E94F02EFD
:1029E0000DE10E94F02E00E00E94F02E0E94192FAF
:1029F000B7C000E00E94042F01E10E94F02E0EE11A
:102A00000E94F02E0E940C2848EE53E060E070E037
:102A10000E94FF360E94202FE6CFABE7B2E00E9473
:102A2000C52E20E02D932D932D930C9313970E9488
:102A3000C52E4D915D916D917C91602B7C936E9331
:102A40005E934E930E94C52E4D915D916D917C9148
:102A5000502B7C936E935E934E930E94C52E10E094
:102A60004D915D916D917C91402B7C936E935E9323
:102A70004E9306E081D074C00E948D28802F882359
:102A800031F401E00093800210E000E1F3CF00E0B8
:102A900000938002182FF9CF0E94FE28802F00E0BB
:102AA00000938002182F01E1E5CF0E941729802FA3
:102AB000182F02E1DFCF0E944529802F182F03E154
:102AC000D9CF0E94C52E902F80E00E94C52E800F86
:102AD0000E94C52EA02F00E049D004E10E94F02EF4
:102AE00000E00E94F02E1A2F9C0100EB0E945F2A4A
:102AF0007BCF0E94D92A802F182F05E1BBCF0E94DF
:102B0000C52E902F80E00E94C52E800F0E94C52EFA
:102B1000A02F00E02BD006E10E94F02E00E00E94E2
:102B2000F02E1A2F9C0101EBE1CF0E94822B802F07
:102B3000182F0A2F9FCF8E010E94E42B802F00E0D8
:102B400015D00A2F0E94F02E00E00E94F02E08817E
:102B50000E94F02E082F48CF19EC0A2F0DD000004C
:102B60000E94832F2196E4E00C948D370E94042F5D
:102B700001E10E94F02E08959A938A93902F812F5D
:102B800000E00E94042F01E10E94F02E092F0E9414
:102B9000F02E082F0E94F02E0E94192F89919991F2
:102BA0000895E1E8F2E000E002830091E2000460B1
:102BB0000093E20000E0008301E0018308950091AA
:102BC000160A002309F44CC000918302083008F46F
:102BD00047C000E00093830202E00093E900009107
:102BE000E800102F12FF3CC02091F20000E008C066
:102BF0003091F10010E0F801EC57FD4F3083039560
:102C00000217B0F30091E8000B7F0093E8000091F9
:102C1000E8000F770093E80024EC32E004E812E0CB
:102C20000E94960401E00093E9000091E800102F53
:102C300015FFFBCF00E008C010E0F801EC53FD4F9A
:102C400010811093F10003950034B0F30091E80077
:102C50000E7F0093E8000091E8000F770093E800F2
:102C600008950091830203950093830208950895C7
:102C70000E947B37402E0E942809C801A0E0B0E0E6
:102C800002E0400E042D0E9428098A0FA01FB11FE8
:102C90008C019D01E5E00C948C37E4E0F3E000E06A
:102CA000008301830283089560E070E041E0E3E087
:102CB000F4E000A111A122A133A10E94E808089527
:102CC0000E947A37C8010E941D1A002311F400E007
:102CD0002EC004E10E945101502EA6D0AC010E94EA
:102CE000C736C80102E05016D0F044244514E8F479
:102CF0000E948024D80100E00E942809442D50E061
:102D00000E94C736A00FB11F9D018C010E946A1C52
:102D100000E00E942809800F911F4394E7CF0E9492
:102D2000802498018C010E946A1C0E941D1AE6E012
:102D30000C948B370E947937C8010E941D1A00231A
:102D400011F400E03CC00FE510E00E94601B602E13
:102D500004E10E945101502E67D0AC010E94C73699
:102D6000C80102E05016D0F044244514E8F40E9453
:102D70008024D80100E00E942809442D50E00E94E0
:102D8000C736A00FB11F9D018C010E94111D00E0EC
:102D90000E942809800F911F4394E7CF0E9480244E
:102DA00098018C010E94111D0E941D1A002329F018
:102DB000262D0FE510E00E940E1C0E941D1AE7E070
:102DC0000C948A370E947C37CA01D8012DD001505B
:102DD0001040A023B1239C018D010E948324E4E0D4
:102DE0000C948D370E947C37CA01D8011DD0015048
:102DF0001040A023B1239C018D010E949D24E4E09A
:102E00000C948D370E947C37C801D90102E00E94E2
:102E10003816081719072A073B0710F400E001C00D
:102E200001E0E4E00C948D379A938A9304E10E94C8
:102E30005101023000E058F00E942809C80104E165
:102E40000E94510110E0AC010E94C73602C00E94EE
:102E50002809899199910895009104030895002308
:102E600011F067D002C00E941B2301E0009304030D
:102E700000E0089500910403002300E009F40895A0
:102E800000930403089509DFB3D10E94252500E6CD
:102E900016E100932C0210932D020AE916E100932B
:102EA0002E0210932F0202EE16E1009330021093CF
:102EB000310202EF16E1009332021093330202E076
:102EC00017E1009334021093350204E117E10093F7
:102ED0003602109337020E9444250E9441250023A8
:102EE00009F4000008950E9441228CD1009115023E
:102EF000002321F40E94951A0E941B23089500913B
:102F00000403002311F403E2089500911502002345
:102F100051F00E94D71A002311F400E108950E9495
:102F200000200E941B230E940C270E942D1A00E003
:102F3000089500911502002311F4B6DE16C00E9418
:102F4000D71A002311F400E108950E9400200E9486
:102F5000491A0E941D1A0023B1F30E940B1B0E9404
:102F60001D1A002311F401E6089500E008958A93E4
:102F7000239700911502002309F048C00E940C27F6
:102F8000BE01AE014F5F5F4FE3E0F4E000A111A18D
:102F900022A133A10E94EB22802F0E94341B8823A0
:102FA00019F40E94951A2AC08130A9F469817A81A6
:102FB00041E050E0E3E0F4E000A111A122A133A13F
:102FC0000880000D151F251F351F0E94DA1A03E027
:102FD0000093060313C0823081F469817A8140E056
:102FE00050E0E3E0F4E000A111A122A133A10880A8
:102FF000000D141F241F341FE8CF00000E941D1A6B
:10300000002311F400E103C00E941B2300E023967B
:10301000899108950E9479372397C801D9010091B9
:103020001502002309F052C00E940C27BE01AE0118
:103030004F5F5F4FE3E0F4E000A111A122A133A1B3
:103040000E94EB22602E0E94341B662029F48C0122
:103050009D010E94AE1A32C001E06016D9F4698168
:103060007A8141E050E0E3E0F4E000A111A122A167
:1030700033A10880000D151F251F351F0E94DA1A85
:1030800004E000930603E5E1F2E084839583A683E0
:10309000B78314C002E0601681F469817A8140E050
:1030A00050E0E3E0F4E000A111A122A133A10880E7
:1030B000000D141F241F341FE1CF00000E941D1AB1
:1030C000002311F400E103C00E941B2300E02396BB
:1030D000E7E00C948A3700910403002311F403E223
:1030E000089500911502002351F00E94D71A002381
:1030F00011F400E108950E9400200E9415230E940F
:103100000C270E94231A0E941D1A002391F30E948B
:10311000491A0E940B1B0E941D1A002311F401E69C
:103120000895C2DD00E00895BA93AA93A5E1B2E044
:103130000091050310911502012309F456C00E9465
:103140004E22002309F447C00E94F021002311F40D
:1031500000004BC00E9400200E94491A0E940B1BD5
:103160000E9415230E941D1A002311F400003DC087
:1031700000910603033071F400E0009306030E94FF
:103180000C270E94341B0E94951A0E94201A0E944C
:103190001B232BC0043029F5FD01048115812681F4
:1031A0003781E3E0F4E040A151A162A173A10417CB
:1031B000150726073707A9F000E0009306030E94D1
:1031C0000C270E94341BFD01048115812681378163
:1031D0000E94AE1ADACF0E944622002331F00E94EC
:1031E000152300E0009306035FDDA991B9910895CE
:1031F00000910503002311F00000089501E0009301
:103200000503089500910503002311F400000895BB
:1032100000E00093050308958A9323970091040327
:10322000002311F403E225C000911502002319F0D8
:10323000000002E31EC00E940C27BE01AE014F5FDA
:103240005F4FE3E0F4E000A111A122A133A10E94AD
:10325000EB22802F0E94341B69817A81482F50E035
:1032600000E010E020E030E00E94DA1A0E941B2308
:1032700000E0239689910895002319F00E94EB2322
:1032800008950E94D82308950D01602F70E0412F0A
:1032900050E0640F771F6134750714F000E00FC031
:1032A000402FA7E0B3E0A40FB51F04C0F9010191BE
:1032B0009F010D93012F1A950023C1F701E0D00162
:1032C00008950E941C2008950E94102008950E94D5
:1032D0003A2208950F7300934703009147030E9419
:1032E0003F2108950F730093470330E021E007E486
:1032F00013E00E94202108950F7300640093470398
:1033000030E021E007E413E00E94202108950F70CF
:10331000006C009347032093480330E022E007E469
:1033200013E00E94202108950F70006D0093470361
:103330008901109348030093490330E023E007E438
:1033400013E00E9420210895006F0093470332E0AC
:1033500021E007E413E00E9420211091470300E0E0
:1033600020914803020F089503E0EEDF08952197AE
:10337000025039F0025039F0045039F0085039F059
:1033800008C002E807C001E805C000E803C000EA81
:1033900001C003E8088330E021E08E010E94202173
:1033A0000E94382221960895F901008331E021E03E
:1033B0008F010E9420210895BA93AA932297D801E1
:1033C00032E020E08E010E942021598128812D9336
:1033D0005C932296A991B9910895F9010083342F45
:1033E00021E08F010E94202108952197088330E079
:1033F00021E08E010E942021219608952297202FFE
:103400002883012F098330E022E08E010E942021D1
:103410002296089530E00E942021089505E613E0E9
:103420000E94FC0101E513E00E948E0100E0009380
:10343000500308950E94611908950E946419089527
:103440000E946719089507E010E00E9472190E9417
:103450000822002309F0D4D5089506E010E00E9468
:10346000721908950E947C37C801D9019C0101E0BE
:1034700010E00E94941900915003002339F08A2F24
:103480009B2F9C0105E010E00E949419E4E00C944D
:103490008D3700E00E94A4190150104020E0E3E0C5
:1034A000F4E000A311A322A323A30091500300235F
:1034B00091F004E00E94A419B80140E0E3E0F4E0D8
:1034C00000A111A122A133A1040F261F371F00A3C1
:1034D00011A322A333A306E00E943816009510958D
:1034E00020953095E3E0F4E040A151A162A173A1E1
:1034F000402351236223732340A351A362A373A3E8
:1035000000A111A10895980100E010E00E94941913
:1035100000915003002341F0E3E0F4E022A133A145
:1035200004E010E00E9494190895009172020023B3
:1035300011F000E001C000E610E000640E947C1978
:10354000E3E0F4E000A111A1980100E010E00E9486
:10355000941900E310E00E946A1908950E947C37D4
:10356000C801D90100917202002311F000E001C0EE
:1035700000E610E001640E947C1906E00E94381603
:10358000800F911FA21FB31F8C019D016BDFE3E031
:10359000F4E000A111A1980100E010E00E9494194C
:1035A00000E310E00E946A19E4E00C948D370E9459
:1035B000D82108950E947C37DA01CB010091720274
:1035C000002311F000E001C000E610E009650E9450
:1035D0007C19A0FB86F49C0102E010E00E94941983
:1035E000E3E0F4E000A111A1980100E010E00E94E6
:1035F000941903E30AC0E3E0F4E000A111A19801EB
:1036000000E010E00E94941901E310E00E946A19A2
:10361000E4E00C948D3700917202002311F000E079
:1036200001C000E610E006640E947C1906E00E94DA
:103630002809980100E010E00E94941906E00E9419
:103640002809005E1F4F20E030E00CDF21E030E071
:1036500002E010E00E94871940E250E023E034E0ED
:1036600000E20E94ED19089500917202002311F00A
:1036700000E001C000E610E006640E947C1906E04C
:103680000E942809980100E010E00E94941906E0C9
:103690000E942809005E1F4F20E030E0E3DE25E0B5
:1036A00030E002E010E00E94871900E210E00E9482
:1036B000721920E230E003E014E00E940A1A089533
:1036C0000E947A372197D80100917202002311F0ED
:1036D00080E001C080E690E02D0100EE400E0FEF8B
:1036E000501E08E10E94510110E04016510611F4ED
:1036F00000E040C086648C010E947C1906E00E94B4
:103700002809025E1F4F980100E010E00E94941902
:1037100006E00E942809C80180968C0120E030E074
:10372000A1DE25E030E002E010E00E94871900E20F
:1037300010E00E9472198D010E94FE1906E00E949D
:103740002809980100E010E00E94941920E030E080
:1037500002E010E00E94871906E00E942809C801D3
:1037600002968C0120E030E07DDE9E0100E20E94A6
:10377000D41908812196E6E00C948B370E947A37A1
:103780002801C901DA0100917202002311F000E062
:1037900001C000E610E006640E947C1906E00E9469
:1037A00028099801225E3F4F00E010E00E94941922
:1037B00006E00E942809005E1F4F20E030E052DE44
:1037C00025E030E002E010E00E94871900E210E0FE
:1037D0000E94721982010E94FE1906E00E942809C7
:1037E000980100E010E00E94941920E030E002E02F
:1037F00010E00E94871906E00E9428099C01220F10
:10380000331F020F131F20E030E02CDEAC019D01BE
:1038100000E20E94ED19E6E00C948B370E947837A5
:10382000D801422E00917202002311F080E001C005
:1038300080E690E03D0100EE600E0FEF701E08E1A3
:103840000E94510110E06016710609F440C08664C0
:103850008C010E947C1906E00E942809025E1F4F1D
:10386000980100E010E00E94941906E00E942809E7
:10387000C80180968C0120E030E0F4DD25E030E0E6
:1038800002E010E00E94871900E210E00E94721925
:103890008D010E94FE1924E030E002E010E00E9459
:1038A000871921E030E000E010E00E94941906E062
:1038B0000E942809C80103968C0120E030E0D2DD87
:1038C00000E210E00E947219042D0E94F519E8E050
:1038D0000C9489370E947C37D801C901009172028B
:1038E000002311F000E001C000E610E006640E9431
:1038F0007C1906E00E9428099801225E3F4F00E0F3
:1039000010E00E94941906E00E942809F801B09680
:103910008F0120E030E0A6DD25E030E002E010E09D
:103920000E94871900E210E00E9472198D010E9426
:10393000FE1906E00E942809980100E010E00E94AC
:10394000941922E030E002E010E00E94871900E0C4
:103950000E942809D80106E00E942809AA0FBB1F6F
:10396000A00FB11F8D0120E030E07CDD00E00E945F
:103970002809A8019C0100E20E94ED19E4E00C94E2
:103980008D370E947A372801D901009172020023F5
:1039900011F000E001C000E610E006640E947C190E
:1039A00006E00E9428099801225E3F4F00E010E0E7
:1039B0000E94941906E00E942809C80180968C0193
:1039C00020E030E04FDD25E030E002E010E00E9432
:1039D000871900E210E00E94721982010E94FE190C
:1039E00006E00E942809980100E010E00E94941966
:1039F00022E030E002E010E00E94871906E00E9419
:103A00002809C80104968C0120E030E02BDD00E29B
:103A100010E00E9472198D010E94DC19E6E00C94FE
:103A20008B370E947637D80149010091720200233A
:103A300011F080E001C080E690E000E00E942809DB
:103A4000280104E10E945101602E0AE00E9438160C
:103A5000012B022B032B21F00AE00E94381653DDC4
:103A60000DE10E94510110E02BDE702E86648C0166
:103A70000E947C1906E00E942809065E1F4F9801EB
:103A800000E010E00E94941906E00E942809005E00
:103A90001F4F20E030E0E6DC25E030E002E010E0FF
:103AA0000E94871900E210E00E94721903E00E9450
:103AB000F51901E00E94F51905E00E94F51900E0F2
:103AC0000E942809169507950E94F5198D010E94FC
:103AD000FE190AE00E943816012B022B032B21F05D
:103AE0000AE00E9438160FDD2FEC31E002E010E012
:103AF0000E94941903E210E00E94721902E060161D
:103B000058F0462D50E082010E94C736A8018D0171
:103B10000E94DB36412921F58C010E947C190DE1C0
:103B20000E9451011AE100520E945701980102E0DF
:103B300010E00E94941903E210E00E94721928EE2E
:103B400035E902E010E00E94941903E310E00E94BE
:103B500072190E9408220AE010E00E94BE0250D2B0
:103B600004E410E00E947C1980E051C00E943816E5
:103B7000012B022B032B21F00AE00E943816C3DC34
:103B8000A0E5B3E0FD012589368902E010E00E943E
:103B9000941903E210E00E947219F40101914F019F
:103BA0000E94F519FD012789308D02E010E00E9486
:103BB000941903E210E00E947219F40101914F017F
:103BC0000E94F5190DE10E9451011BE100520E9473
:103BD0005701980102E010E00E94941903E210E0FE
:103BE0000E94721928EE35E902E010E00E94941953
:103BF00003E210E00E94721922E336E902E010E0CD
:103C00000E94941903E210E00E947219019600E0EC
:103C10000E94280916950795801791070AE008F475
:103C2000A5CF0E943816012B022B032B21F00AE0AE
:103C30000E94381668DC2CEF31E002E010E00E94B0
:103C4000941903E210E00E9472190DE10E945101E3
:103C50001CE100520E945701980102E010E00E940E
:103C6000941903E210E00E94721928EE35E902E08F
:103C700010E00E94941903E310E00E9472190E9460
:103C800008220AE010E00E94BE02BAD10AE010E069
:103C90000E94BE020AE00E943816012B022B032B61
:103CA00049F10AE00E9438162EDC21EC31EE02E0E8
:103CB00010E00E94941903E210E00E94721927ECB0
:103CC0003FEB02E010E00E94941903E210E00E9432
:103CD000721928EE35E902E010E00E94941903E31E
:103CE00010E00E9472190E9408220AE010E00E946F
:103CF000BE0286D10DE10E945101272D10E08EDD1C
:103D0000EAE00C9487370E947C372197D801009114
:103D10007202002311F000E001C000E610E006642A
:103D2000C8018C010E947C1906E00E942809045EEB
:103D30001F4F980100E010E00E94941906E00E94D5
:103D40002809F801B0968F0120E030E08BDB25E0F8
:103D500030E002E010E00E94871900E210E00E94CB
:103D6000721901E00E94F51901E00E94F5198D0118
:103D70000E94FE198C010E947C19A0E5B3E0FD01B0
:103D80002181328102E010E00E94941903E210E0E8
:103D90000E9472198C010E947C19FD0123813481DB
:103DA00002E010E00E94941903E210E00E947219F0
:103DB0008C010E947C19FD012581368102E010E012
:103DC0000E94941903E210E00E9472198C010E9473
:103DD0007C19FD012781308502E010E00E949419D2
:103DE00003E210E00E9472198C010E947C19FD010F
:103DF0002185328502E010E00E9494199E0103E2C1
:103E00000E94D419002311F0088101C000E021961E
:103E1000E4E00C948D370E947B37D801422E00914C
:103E20007202002311F080E001C080E690E0866419
:103E30008C010E947C1906E00E942809065E1F4F33
:103E4000980100E010E00E94941906E00E94280901
:103E5000005E1F4F20E030E005DB25E030E002E0AF
:103E600010E00E94871900E210E00E94721904E03D
:103E70000E94F51902E00E94F51901E00E94F5196F
:103E800001E00E94F5198D010E94FE198C010E942B
:103E90007C19A0E5B3E0FD012181328102E010E050
:103EA0000E94941903E210E00E9472198C010E9492
:103EB0007C19FD012381348102E010E00E949419F5
:103EC00003E210E00E9472198C010E947C19FD012E
:103ED0002385348502E010E00E94941903E210E08B
:103EE0000E947219042D0E94F5198C010E947C1900
:103EF000FD012585368502E010E00E94941903E259
:103F000010E00E9472198C010E947C19FD01238926
:103F1000348902E010E00E94941903E210E00E944C
:103F200072198C010E947C19FD012785308902E0FD
:103F300010E00E94941903E210E00E9472190AE056
:103F400010E00E94BE02E5E00C948C379A938A93AD
:103F50000BE10E945101802F90E080968C01B0DB34
:103F600000932C040CE10E945101802F90E0809678
:103F70008C01A6DB00932D040AE10E945101802FE1
:103F800090E080968C019CDB00932E0409E10E9456
:103F90005101802F90E080968C0192DB00932F04DA
:103FA0008991999108959A938A930BE10E94510106
:103FB00020912C04802F90E080968C012FDC0CE166
:103FC0000E94510120912D04802F90E080968C0159
:103FD00025DC0AE10E94510120912E04802F90E0FF
:103FE00080968C011BDC09E10E94510120912F0475
:103FF000802F90E080968C0111DC89919991089531
:104000008A930E945622802F813039F00AE010E016
:104010000E94BE02082F0E94B71901E089910895FD
:1040200000917B03073031F000917803002311F4F5
:1040300001E0089500E008956E98769800E20093FC
:104040006A0000E00093C1000CE70093D10004E097
:1040500000937200EBE6F3E001E0068708E00787D3
:1040600000E0008B058708952A931A930A932FB7CF
:1040700000917B03063029F46E9A01E000937B03E4
:104080000CC004E009BB0CE710917A03011B0093FC
:10409000BE00009179030093C100EE9800E40CBBD0
:1040A0002FBF0991199129911895FA93EA933A93A0
:1040B0002A931A930A933FB7EBE6F3E0138513951F
:1040C0001387012F14851130B1F4013011F46E9A69
:1040D0002DC00A3031F46E9800E004870093C100CF
:1040E00025C0028500FF02C06E9801C06E9A02854D
:1040F000069502871BC014851230C1F41CB11074E0
:10410000013031F4112391F00585016005870EC05F
:10411000228526952287112319F0128510681287AF
:10412000093021F400E00093C10004873FBF0991EA
:10413000199129913991E991F9911895FA93EA9396
:104140001A920A924A933A932A931A930A934FB770
:1041500000E0009385000093840000917C0305300B
:1041600088F400917C03102F139510937C03209109
:1041700086003091870012E0019FF001E559FC4F65
:10418000208331834FBF0991199129913991499128
:1041900009901990E991F9911895EBE6F3E00287FF
:1041A00000E0038701E0048700E00093BE0006857D
:1041B0000093C10000E412E42FE030E04485413078
:1041C00069F4A801B9010150104020403040452B4E
:1041D000462B472B99F705850460058700E000937F
:1041E000C1000895202E090100E40CBB21C000E4A9
:1041F0000CBBEE9AEBE6F3E000E0038702E00487F5
:1042000000E412E42FE030E04485423069F4A80174
:10421000B9010150104020403040452B462B472B20
:1042200099F70585046005870285F00101930F0168
:10423000022D2A940023D9F600E00093C1000895CE
:104240000E947937C801522E432EDC016090E200B3
:1042500000E00093E20004C0FC010191CF019DDF6A
:10426000052D5A940023C1F7442019F09D01042D17
:10427000B9DF6092E200D4DEE7E00C948A378A93DB
:104280008091E20010E01093E20087DFF3D080938A
:10429000E200C6DE899108956E9A0FE611E121E0F1
:1042A000015010402040E1F700C0000002E0009300
:1042B0007B036E98089502E40093810000E206BB40
:1042C00000936F00EBE6F3E000E0018B04E0008B6D
:1042D00000EA16E821E030E04189453068F4A801A1
:1042E000B9010150104020403040452B462B472B50
:1042F00099F705850460058705E0008B00E00093D1
:10430000810000936F00058502FF04C007E0008B69
:1043100000E008950681178120853185020F131F63
:1043200045E00E94D5360F5F1F4F20E427870230FB
:1043300020E0120758F30330120728F401E0068743
:1043400008E007872DC00530120720F402E0068739
:104350000EE1F7CF0930120710F403E020C001315D
:10436000120710F404E01BC00132120710F405E03C
:1043700016C00134120710F406E011C0013812070C
:1043800010F407E00CC0013021E0120710F408E03F
:1043900006C0013022E0120708F0B8CF09E0068716
:1043A00005E0008B02E010E00E94BE0201E00895EB
:1043B00073DF00E412E42FE030E066990FC0A8013B
:1043C000B9010150104020403040452B462B472B6F
:1043D000A1F7EBE6F3E00585046005876CDF08953F
:1043E0005BDF00E412E42FE030E066990FC0A80123
:1043F000B9010150104020403040452B462B472B3F
:10440000A1F7EBE6F3E005850460058754DF089526
:1044100006E000937B0300E412E42FE030E0669BAB
:104420000FC0A801B9010150104020403040452B79
:10443000462B472BA1F7EBE6F3E0058504600587E3
:104440002BDF00E412E42FE030E066990FC0A801F2
:10445000B9010150104020403040452B462B472BDE
:10446000A1F7EBE6F3E005850460058724DF0895F6
:1044700022DF089506E000937B0300E40CBBEE9A74
:104480000895EE9800E000937B03089500917B036C
:10449000053011F401E0089500E0089500917B03D8
:1044A000013011F401E0089500E0089500917903CE
:1044B000043010F401E0089500917903053010F400
:1044C00002E0089500917903063010F404E00895A5
:1044D00000917903073010F408E0089500E1089591
:1044E00000E000937B0300936A000895003034E0FD
:1044F000130750F4F999FECF12BD01BD20BD0FB7CF
:10450000F894FA9AF99A0FBF0895003024E0120740
:1045100010F00FEF0895F999FECF12BD01BDF89A82
:1045200000B508950E947A37D801C901542E442459
:1045300007C08D01EADF1196FC010193CF0143947E
:104540004514B8F3E6E00C948B37BA93AA93D801DC
:1045500044E19D0104E010E00E9492220C910F3F83
:1045600039F444E150E020E032E08D010E949837B8
:10457000A991B9910895E5E1F2E000E010E000872B
:1045800001870287038701E0048700831183128378
:10459000138314831583168317830895980120E0ED
:1045A000307F203040E9340711F000E008950F70AB
:1045B0001E7F0030140711F401E00895003022E955
:1045C0001207D1F30E7F0E3024E91207A9F30C3045
:1045D000120759F7F1CF0E9477373A012B01000FEC
:1045E000111F221F331FC801D9010E947926802E76
:1045F0008820A1F0F30100811181D0DF002371F048
:104600008C019D010E944E260E940C278C019D0169
:104610000E94672502E0F201008304C001E0F2017C
:104620000083082DE9E00C94883700E00093150220
:104630003E9A469A089501E0009315023E9A4698E4
:104640000895BA93AA935AD000E212E00E948522FC
:10465000A2E2B2E001FB66F401E05FD079D00D91F7
:104660001C911197083823E1120721F400E001C0E2
:1046700004E053D09DD00091D70001600093D70093
:104680000E94C2350E94D1150E9414020E94A624E5
:104690003E9A469808E813E112960D931C930091F8
:1046A0002902002309F0F9D00E94CA350E94DF15C3
:1046B0000E9415020E94B6240E94941800912602BE
:1046C000002369F301E00093E9000091E800102F56
:1046D00015FFFBCF02E310E00E94BE020091D8005C
:1046E0000F770093D80002E310E00E94BE02F89416
:1046F00003E013D070D00C940038D1CFF894A89573
:1047000004B7077F04BF0091600008610093600058
:1047100000E00093600078940895102F1F70163009
:10472000B0F420E82093610010936100002311F49D
:1047300000E103C0013021F408E00093270208954E
:10474000043011F401E0F9CF00E00093270208954E
:1047500006E800937A000EE100937C0004E610E086
:104760000E94A90200917A00006500937A000091EE
:104770007A00102F14FFFBCF00917A0000650093A0
:104780007A0000917A00102F14FFFBCF009178007F
:10479000109179000A3121E0120730F004EE1CE09C
:1047A000009322021093230200E000937A00089500
:1047B00024982C9A01E00093280203E005BD0091A3
:1047C0002702083011F400E806BD00916E00016078
:1047D00000936E00089500E000936E00009328029D
:1047E0000895EAE2F2E00081000F00831C9B03C001
:1047F00000810160008301811081101799F00F3F43
:1048000041F41081112329F4549A5C9800E001834B
:104810000895002339F400810F3F21F454985C9AE5
:104820000FEF018308958A93FA93EA933A922A92BA
:104830001A920A927A936A935A934A933A932A93D2
:104840001A930A938FB700912702083011F400E8F9
:1048500006BD00912802002309F0C3DF0091240265
:1048600010912502012B41F0E2E2F2E00281138176
:1048700001501040028313838FBF09911991299130
:10488000399149915991699179910990199029909B
:104890003990E991F99189911895E2E2F2E000915D
:1048A000160A002319F000E007830895028113819E
:1048B000012BC1F43E9800E0078300E212E00E9461
:1048C000852202FB7EF00FEF0093640000936500E9
:1048D00005E003BF889500E003BF009364000093E8
:1048E00065003E9A08950DE713E00093FF031093CF
:1048F000000400E810E00093FD031093FE03089508
:104900000DE713E00895AD01EDE7F3E0E00FF11FCF
:10491000118100E0D9010D931C93008110E0D901B1
:104920002D913C91200F311F3C932E9305E901837B
:1049300008E9008301E0DA010895EDE7F3E0E00F14
:10494000F11F89011183008301E008950E9434055D
:104950000E94D4140E9475280E944D160E94D62FE2
:1049600000E0009301040093020408959A938A934F
:104970000E94BD2E0023A9F00E94C52E0E3079F4AE
:104980000E94C52E0E94D32EC801009301041093EB
:1049900002040E94C52E202F8C0106D002C00E9466
:1049A000832F899199910895205049F02A9551F0CB
:1049B000205159F02A9561F02E5069F008950E9417
:1049C000C91208950E94591308950E94DE14089593
:1049D0000E94390508950E947D0D08950EE00E9401
:1049E000F02E00910104109102040E94202F0895DE
:1049F000BA93AA9300E005C020E0E00FF21F2083E5
:104A00000395E3E0F4E00032B8F30FEF00A301A355
:104A100002A303A300E004A305A307A300A706A322
:104A200007C020E0DF01A00FB21F99962C930395D9
:104A30000430B8F3E0E3F4E000E000830183028394
:104A40000E947324A991B991089540E04093C30452
:104A50004093C4044093C504E3E3F4E00AC0008734
:104A60000083018302830383048305830683078312
:104A70003996042F4395003100E088F30093C60473
:104A800008950091C6040895ECE2F2E02481358196
:104A900000E020303007C1F04281538140305007A0
:104AA00099F02030300781F026813781203030079F
:104AB00059F0208531852030300731F0228533854B
:104AC0002030300709F001E00093C60408950E94E9
:104AD00078372801390180E041E0A5D0D801012BC9
:104AE00061F0FD010085023039F401E0008700919A
:104AF000C4040A950093C4043DC0A3E3B4E0E0916C
:104B0000C504F0E00091C304E00FF81F71971CF09A
:104B100000E031C01996082F8395003120F4FD0183
:104B200000850023B9F7813198F78CE292E0820189
:104B30009301FC0140855185FA010995002341F359
:104B4000FC0102851385F8010995A80160E070E079
:104B5000820193010E94FF36FD010483158303E067
:104B600000874D925D926D927C920091C3040395F3
:104B70000093C30401E0E8E00C9489370E94783781
:104B800000249091C504E3E3F4E002C09A953996BD
:104B90009923D9F0802D03948031B8F48085813039
:104BA000B1F74080518062807380401651066206E2
:104BB000730660F340805180628073804415550510
:104BC0006605770518F38F0102C000E010E0E8E009
:104BD0000C948937BA93AA93F8010A801B802C8021
:104BE0003D80399614E0E33CF107B8F400850130CC
:104BF000C1F700811181228133810417150726072F
:104C0000370778F300811181228133810016110664
:104C10002206330630F38F0102C000E010E0A991B4
:104C2000B99124960895642F70E05091C5046623CD
:104C300019F04091C304540F552319F400E010E01B
:104C40000895E3E3F4E002C05A953996552311F133
:104C5000472F73954031F0F44085413051F4008086
:104C6000118022803380001611062206330691F04F
:104C70005A95662351F34085433019F04085423000
:104C800021F7008011802280338000161106220651
:104C90003306D1F6552391F28F01089541E0C3DF29
:104CA000202F212B11F400E00895F80120852330F6
:104CB00081F420E020872683278320832183228399
:104CC0002383248325830091C3040A950093C3049E
:104CD0000EC02085213041F422E020870091C404D9
:104CE00003950093C40403C000850230E1F601E09F
:104CF00008959A938A93CA0140E095DF202F212BD3
:104D000011F400E00BC0F80126813781FC012083FB
:104D10003183F80100850130A1F701E08991999173
:104D2000089510E0E3E3F4E001C03996012F1395F4
:104D3000003128F4008501FFF8CF8F01089500E0CD
:104D400010E0089530E0E3E3F4E001C03996232F4A
:104D50003395203150F44481558140175107B1F704
:104D6000208521FFF3CF8F01089500E010E0089522
:104D70000E947A372801A0E0F2018481958127C042
:104D80000085023001F54681578100811181228121
:104D90003381E0913202F0913302099500E0F20193
:104DA00000870683078300830183028303830483D0
:104DB00005830091C5040A950093C5040091C404BD
:104DC0000A950093C404A3958C01BCDF2801042D2F
:104DD0000529F1F0F2010085033091F6A2014A5F46
:104DE0005F4F0081118122813381E0913002F09187
:104DF0003102099501E0F20100870091C3040A9590
:104E00000093C3040091C50403950093C504DBCF50
:104E10000A2FE6E00C948B370E9478370091150238
:104E2000002339F54090C3040091C404400E11F4EE
:104E300001E020C00091C6040023A1F41AC0FC01C7
:104E400064807580ACE2B2E08301ED91FC91119732
:104E500009958C018DDF401A8301FD012281338188
:104E6000F9010995442021F35CDFC801012B39F7D2
:104E7000000000E0E8E00C948937000000E00895AD
:104E8000000000E00895000000E00895000000E048
:104E9000089500E0089500E010E0089500911502E3
:104EA000002319F0000000E0089540E0E3E3F4E09F
:104EB0000BC00085013039F402E000870091C40482
:104EC00003950093C4043996042F4395003198F458
:104ED0000085033071F700E00087068307830083B5
:104EE000018302830383048305830091C3040A952D
:104EF0000093C304E8CF01E00895409115024423D4
:104F000019F0000002E3089500FB16F406E308958B
:104F1000DEDD002311F000E0089501E808954091DE
:104F20001502442319F0000002E3089500FB16F473
:104F300006E30895B3DE002311F000E0089500E8D1
:104F400008950E947637280139018A849B84C20122
:104F5000D301840F951FA61FB71F81509040A0401A
:104F6000B040AC01BD010ADE17C0F801408151819B
:104F70009201421B530B9401240F351F5781F901F5
:104F80005183F8014681F9014083BA93AA939A9319
:104F90008A93A201B3011EDE202F212B31F7ECE012
:104FA0000C9487379A938A93C80104C001E010E0FB
:104FB0000E94BE02FC010197EF2BC1F789919991E4
:104FC0000895219710E005C014E01A95F1F71881B3
:104FD0001395188318811017B8F3219608950023AC
:104FE0003E9A11F046980895469A0895E7ECF4E049
:104FF00008E71EE120E0008311832283238301E080
:10500000048308950091CB040895E7ECF4E0008355
:10501000118322833383089508E418EE21E030E001
:105020000895002331F0229A2398219A6E98769859
:1050300002C02298219801E008950E947D37A02F98
:1050400080E098E00CC02A98AA0F000000000E949F
:1050500070281B998395299A0E9470282998092FF6
:105060009A95002329F0880FA7FB6EF72A9AECCFB8
:10507000082FE3E00C948E37BA93AA93D8010C91D1
:10508000DCDF11960C91D9DF11960C91D6DF1196C9
:105090000C91D3DF01E0A991B99108950E947A376C
:1050A000C801D901542E442408C0FC010191CF014C
:1050B000C4DF451409F40C93439404E04016A8F3AC
:1050C00001E0E6E00C948B37299A0EEF7ADF2998FD
:1050D00001E00895002311F06E9808956E9A0895E6
:1050E0000AE20A95F1F700C0089500E212E00E947A
:1050F000852200FB46F444E12CEC34E000E012E0B1
:105100000E9492220895ECECF4E000E003C01FEF4F
:10511000119303950431D8F308950E9479372697A7
:1051200082E0A2E00E94C52E0E94C52E602E0E9441
:10513000C52E902F0E94C52E402E0E94C52E0D8395
:105140000E94C52E502E0E94C52EB02FBA950E94E7
:10515000C52E09830E94C52E0A830E94C52E0B838B
:105160000E94C52E0C8301E00E941128002311F437
:105170000BEC40C000E00E94EF2701E00E946A288B
:10518000062D0E94E12700E00E946A28062D0E9459
:10519000E127092F10E00E94D227882351F1AA9518
:1051A000642C662011F14B2F9E018E010F5F1F4F63
:1051B0000E944E280023E1F20881051591F400E0D9
:1051C00000937F02092F10E00E94D227823071F4F1
:1051D0000E940228002361F201E00E94EF2700E014
:1051E00009C06A940E94642801C08A95A817C8F271
:1051F000D4CF00EC2696E7E00C948A370091800229
:10520000002399F00E94C52E10E00E94D22700E0F2
:105210000E94EF2700E00E94112801E00E946A2806
:105220000E94C52E10E00E94D22700E008959A93B4
:105230008A9324970E94C52E802F0E94C52E902FFE
:1052400000917F02002339F000E000937F0208E222
:10525000E8D20023B1F40E94C52E08830E94C52E17
:1052600009830E94C52E0A830E94C52E0B838E01DE
:105270000E943C28992321F0082FD3D2002309F45F
:1052800000E024968991999108950E94703729979A
:10529000ABE7B2E00D911D912D911397012FD02E08
:1052A0000D911D912D911397E02EAA24CE2CA8824A
:1052B0000E94C52E502E44240E94C52E400E0E94EE
:1052C000C52E802F0E94C52E602E0E94C52E902EC6
:1052D0000E94C52EF02E0E94C52E802E0E94C52E43
:1052E000B02E0E94C52E098300917F02002361F039
:1052F000A0927F0208E295D2A02EAA2029F00A2DC2
:105300002996E0E10C94813713960C91139707FFCF
:1053100014C0ECEAF0E005911591259134910983D0
:105320001A832B833C830D911D912D9113972B8311
:105330008E010F5F1F4F0E943C280E94C52E902FA8
:105340000E94C52E702E9D820D911D912D91139757
:105350001E830D911D912D9113970F83988780FBCC
:105360002EF49F3F31F40FEF701619F41EF19F3F9A
:1053700009F18E010B5F1F4F0E943C2881FB26F430
:10538000062D10E00E94D22782FBA6F4562D4B2D4D
:10539000392F0D911D912D911397202F622F0D9173
:1053A0001D912D911397262F082D6ED2002311F0F9
:1053B00000E8A6CF80FB2EF49F3F39F40FEF701664
:1053C00021F48EF10FEF701671F1092D08600D8335
:1053D00078868E010B5F1F4F0E943C2880FB46F4AD
:1053E0009B1531F00D911D912D911397C02E98832F
:1053F00081FB26F4062D10E00E94D22782FB9EF44A
:10540000562D4B2D372D0D911D912D911397202F3A
:10541000622F0D911D912D911397262F082D086055
:1054200033D2002329F60EEF400E0FEF501E0D91E0
:105430001D912D913C910F5F1F4F2F4F3F4F3C937C
:105440002E931E930E93042D052909F076CF87FB2A
:105450000EF055CFE0EBF0E00591159125913491D8
:1054600009831A832B833C83F982DA82EB828E01D3
:105470000F5F1F4F0E943C2886FB26F401E000933B
:105480007F023DCF84FB26F4062D10E00E94D22738
:1054900085FB0EF034CFCE1469F0562D4B2D38819C
:1054A0002C2D1D2D082DF0D1002309F428CF00E864
:1054B000A02E25CF062D10E00E94D22720CF0E94DB
:1054C0007A372997502EC901412EABE7B2E00091FF
:1054D0007F02002341F000E000937F0208E2A1D1A7
:1054E000002309F062C013960C91139707FF58C070
:1054F0000DE4098300E00A830D911D912D9113970E
:105500002B8300E00C8347C04D820D911D912D919E
:1055100013971E830D911D912D9113970F8300E01A
:10552000088743E09E018E010B5F1F4F0E944E28AB
:1055300008810E94F02E019700EB501671F4042DA3
:1055400008600D8343E09E018E010B5F1F4F0E9498
:105550004E2808810E94F02E0197FD0100811181E3
:10556000228133810F5F1F4F2F4F3F4F00831183E5
:10557000228333830D911D912D913C9113973078A7
:10558000003040E0140740E8340751F40D911D91BC
:105590002D9113972B838E010F5F1F4F0E943C2884
:1055A000082F092B09F0B0CF00E02996E6E00C9413
:1055B0008B370E9471372897ABE7B2E00D911D91B0
:1055C0002D911397012FE02E0D911D912D91139781
:1055D000680177240E94C52E902F80E00E94C52E7E
:1055E000800F0E94C52E402E0E94C52E602E0E9464
:1055F000C52E502E0E94C52EB02E0E94C52EA02E64
:105600000E94C52E902E0E94C52E802E00917F02F2
:10561000002361F070927F0208E203D1702E7720A0
:1056200029F0072D2896EFE00C948237588242C06B
:105630000E94C52E502E0D911D912D911397198307
:105640000D911D912D9113970A835B828E010E940B
:105650003C2841FA26F4062D10E00E94D22742FA97
:10566000AEF4662D582D492D352D0D911D912D919E
:105670001397202F722F0D911D912D911397272F86
:105680000A2D40D1002311F000E8702E43FA36F4C1
:10569000062DC7D0002311F000E8702E0D911D914A
:1056A0002D913C910F5F1F4F2F4F3F4F3C932E93F7
:1056B0001E930E938C010197012B09F0B9CF47FA85
:1056C0000EF0AFCFE4EBF0E0059115912591349108
:1056D0000C831D832E833F83BC82ED82CE828E019C
:1056E0000C5F1F4F0E943C2846FA26F401E000930D
:1056F0007F0297CF44FA0EF094CF062D10E00E945F
:10570000D2278FCF249700917F02002341F000E041
:1057100000937F0208E285D0002309F053C00E9465
:10572000C52E08830E94C52E09830E94C52E0A83B8
:105730000E94C52E0B8340E001C04395443050F5D4
:1057400061E020E001C02395233098F450E005E0AB
:1057500010E00E94C736ECECF4E0E00FF11FE20F1E
:10576000F51F0081FE01E20FF51F1081011759F3AB
:1057700060E0662311F350E005E010E00E94C736B8
:10578000ECECF4E0E00FF11F0B8113810123148195
:10579000012B0B8308810C3A89F40981083A71F4D2
:1057A0000A81002359F401E212E00E9485222B8134
:1057B000201721F001E212E00E9476228E010E9461
:1057C0003C2800E0249608950E947C372597D80154
:1057D00000917F02002339F000E000937F0208E28D
:1057E00020D00023D1F40E94C52E802F8A950E94DC
:1057F000C52E09830E94C52E0A830E94C52E0B83E5
:105800000E94C52E0C83482F9E018E010F5F1F4FF3
:105810000E944E2808810C9300E02596E4E00C9449
:105820008D379A938A932597802FE8EBF0E00591C6
:1058300015912591349109831A832B833C8343E08E
:105840009E018E010F5F1F4F0E944E28088100FDB0
:1058500002C000E015C0982F07C0088100FDF9CFF5
:1058600001E010E00E94D22743E09E018E010F5F0D
:105870001F4F0E944E28092F9A95002371F701E8C7
:1058800025968991999108950E947C372597002E3D
:10589000932FA42F052FECEBF0E0459155916591E6
:1058A000749149835A836B837C8309821A832B8387
:1058B0009A1729F410E00E94D22700E01FC0B02FF1
:1058C00081E004C001E010E00E94D22743E09E0185
:1058D0008E010F5F1F4F0E944E28813041F40881D6
:1058E0000A1709F482E00881091719F4E6CF82301B
:1058F000D1F30B2FBA95002329F7082F2596E4E062
:105900000C948D370E947B372597102E012E722F15
:10591000A32FB42F952F062FAB1711F0A91729F439
:1059200010E00E94D22700E036C0B91711F482E0DF
:1059300001C081E0402EE0ECF0E005911591259149
:10594000349109831A832B833C8319820A827B83D7
:1059500004C001E010E00E94D22743E09E018E01C6
:105960000F5F1F4F0E944E28813061F408810B1792
:1059700009F482E00881091709F483E008810A1715
:1059800029F4D1CF8230B1F38330C1F3042D4A948E
:105990000023F9F6082F2596E5E00C948C37FA934E
:1059A000EA933A932A931A930A933FB700916205B8
:1059B0000038C8F42091CE000091600510E0F80195
:1059C000E052FB4F20830091600503950093600532
:1059D00000916005003811F4109360050091620594
:1059E0000395009362053FBF09911991299139915F
:1059F000E991F9911895FA93EA932A931A930A93E5
:105A00002FB7009165050023D1F00091640510E0E7
:105A1000F801E959FA4F00810093CE000091640526
:105A200003950093640500916405003811F4109308
:105A30006405009165050A950093650503C000E0C3
:105A4000009366052FBF099119912991E991F99168
:105A500018950E947937C801D901442E552E662E1B
:105A6000E0E6F5E000E0008301830383048316D0C1
:105A70008C019D0135D0052D29D0042D1ED0062D79
:105A800013D00091C900006C0093C9000091C900B7
:105A900008610093C900E7E00C948A370091C900BF
:105AA000077E0093C90008951091CA00197F037002
:105AB000000F102B1093CA0008951091CA001F7C8C
:105AC0000295007F102B1093CA0008951091CA0010
:105AD000177F000F000F000F102B1093CA000895BE
