:020000020000FC
:100000000C943122189518951895189518951895EF
:100010001895189518951895189518951895189578
:1000200018951895189518950C94492118951895B8
:100030001895189518951895189518951895189558
:100040001895189518951895189518951895189548
:100050001895189518951895189518950C94F312ED
:10006000189518950C94E818189518950C9414196F
:100070001895189518951895189518951895189518
:100080001895189518951895189518951895189508
:1000900018951895189518951895189518951895F8
:1000A000189518951895189518951895120100022D
:1000B000EF020120EB0345210010010203010902B8
:1000C0006B000301008032090400000203000000FD
:1000D00009211101000122230007058103400001CD
:1000E00007050203400001080B0102020201040996
:1000F0000401000102020100052400100104240291
:1001000006052406010205240103020705830340B6
:10011000000809040200020A0000000705840240EA
:100120000000070505024000000C03410054004D8B
:100130000045004C0020036D00450044004200478C
:1001400000200043004D005300490053002D00449F
:10015000004100500014036D004500440042004778
:100160000020004300440043002A0304030904065E
:1001700000FF0901A101150026FF00750896400047
:10018000090181029640000901910295040901B11B
:1001900002C0000159048403018803019103019CFA
:1001A0000301A50301AE0301BC0302CA0301D80386
:1001B00001E10306E90301F20301FB030104040169
:1001C00059040159040159046A0D0401110401156F
:1001D00004011904021D041A6004FB000001350922
:1001E0004505016C05019D0501CF0501010601339F
:1001F00006015D0601870601B10601F10601160739
:1002000001440701720701950701B30701D20701F5
:10021000F107011B08014508016F080194080CBA99
:100220000810E708010E09FB0000D30A0A00B20A11
:10023000C10AC30AC50AD30ACC0AC10AB20AB20A61
:10024000CE0A08959A938A9300910608002309F430
:100250008AC000913102002349F0009132020E94CD
:10026000D319002319F000E000933102009131020C
:10027000002391F505E00093E9000091E800102FBC
:1002800012FF2AC08091F20001C08A958823D1F024
:100290009091F100092F0E94D3190023B1F7909398
:1002A000320201E0009331028A9509F05CC00091AE
:1002B000E8000B7F0093E8000091E8000F770093BF
:1002C000E80051C00091E8000B7F0093E800009126
:1002D000E8000F770093E8000E94F919802F882327
:1002E00031F00F7321F001E0009330020CC000E008
:1002F000FBCF0091E8000E7F0093E8000091E8003A
:100300000F770093E8008823A9F004E00093E90048
:100310000091E800102F15FFFBCF0091E800102F8F
:1003200015FFE7CF882329F30E94FC190093F10001
:100330008A95F3CF009130020023A9F004E00093E6
:10034000E9000091E800102F15FFFBCF0091E800B5
:100350000E7F0093E8000091E8000F770093E8001B
:1003600000E000933002899199910895229720E04E
:100370002883298309C024E02A95F1F7288139814F
:100380002F5F3F4F28833983288139812017310718
:1003900090F3229608959A938A93C80104C008EEB8
:1003A00013E00E94B601FC010197EF2BC1F7899180
:1003B000999108950E941723290180E0D201129695
:1003C000F2018083F8010181005F09F467C00E50DB
:1003D00009F46CC00A9509F463C0025061F00A95F3
:1003E000B9F00A95B1F10A95C9F10A9521F00A957B
:1003F00009F440C05EC001E40C9304E7FD010183F1
:100400000DE6028305E603830CE6048385E051C014
:100410000DE60C9305E4FD01018304E4028302E48C
:10042000038307E4048300E2058303E406830DE409
:10043000078303E5008709E4018703E502870DE2EE
:10044000038704E4048701E4058700E506878FE05D
:1004500030C08D010E94ED1184E12BC08C93FD0111
:100460008183828301E003838483858386838783FA
:1004700088E01FC09CE7662405C0FD01E60DF81F5B
:10048000008363940EE16016A0F4092F10E00E942F
:10049000CD119395002389F7862D0BC003E007C08B
:1004A00000E40C93FD01818382E003C001E00C9322
:1004B00081E0F2018183082FE7E00C942823F80102
:1004C0000081F9010083418300E008950E941A230E
:1004D000F801C90100E8DC010C93238100E017C09A
:1004E00010E0DF01A00FB11F14961C914091210272
:1004F00050912202DA01A752BC4F1C93A1E2B2E054
:100500004D915C914F5F5F4F5C934E930395021743
:1005100038F3018102950F7011811F70011721F4CA
:100520000E94B41A01E001C000E0FC01018300E078
:10053000E4E00C942B230E941A23D90101E80C93C8
:100540000E94C21A002309F45CC000913402109189
:100550003302011769F44CE350E00091210210913D
:1005600022020E94512203950093340201E003C04D
:1005700000913302039500933302009133020295F8
:10058000007F10913402012BFD01018300E0028302
:100590000091330210913402011758F40CE30383E5
:1005A000E1E2F2E0008111810C53104000831183DD
:1005B00003C00091210203838091330290E00197F0
:1005C0004CE350E08C010E94432220E00DC030E05B
:1005D000A801420F531FFA01E752FC4F4081FD0171
:1005E000E20FF31F44832395FD013381231778F332
:1005F0000091340210913302011731F40E94CA1A9B
:1006000003C000E0FD01018300E0E4E00C942B2333
:10061000BA93AA93D90102E80C930E94591B0023B4
:1006200000E0FD010183C1F00E94701BFD01028307
:100630000E94731B20E009C0F80141918F0130E056
:10064000FD01E20FF31F43832395FD013281231740
:1006500098F30E94611B01C0028308E0A991B9913F
:100660000895BA93AA93F801D90103E80C9304E022
:100670000093350230E465E372E0AD01238111811E
:1006800002810E94390511960C93119700E0129691
:100690000C9312970091350213960C93009135023A
:1006A000A991B99108955B2F0A2EF801D901008113
:1006B0000C930181302F20E010E000E06281020FF6
:1006C000261F4381141F4481040F013342E714079E
:1006D0004CE7240740E1340721F00FEFFD010183CF
:1006E00006C000E0FD01018301E00093190202E071
:1006F000A02DB52F08950E941623D801C9010C9191
:10070000E2E9F1E00C94C9229C018D0153DED5C0D1
:100710000D91FC010193CF019C018D010E94B40B4E
:10072000CCC00D91FC010193CF013E9A46989C01EB
:100730008D010E94CF0BC1C00C91FC010193CF0130
:10074000469A8C010E94EA0BB8C00D91FC010193FE
:10075000CF019C018D010E941D0DAFC00D91FC01C8
:100760000193CF0100913802013029F49C018D01E1
:100770000E94350DA2C09DC00D91FC010193CF01D7
:1007800000913802013029F49C018D010E9417105C
:1007900094C08FC00D91FC010193CF0100913802EC
:1007A000013029F49C018D010E94F70C86C081C0A4
:1007B0000D91FC010193CF019C018D010E949D0BC5
:1007C0007CC00C91FC010193CF018C010E94F70BBE
:1007D00074C00D91FC010193CF019C018D010E9419
:1007E000040C6BC00D91FC010193CF019C018D01A4
:1007F0000E947B0C62C00D91FC010193CF019C0112
:100800008D010E94CD0C59C00D91FC010193CF01C7
:100810009C018D010E94E40C50C09C018D0156DEAC
:100820004CC09C018D0187DE48C09C018D01F0DE2B
:1008300044C09C018D0115DF40C005E8FC01008328
:10084000FD017180528044240381402A0AE0400E59
:1008500000E0501E662405C0299882010E94B6015E
:1008600063946714E8F4FD01048107FF0CC0062DB2
:1008700010E0E00FF11F058107FF03C054985C9A58
:1008800002C0549A5C98FD01048100FFE6CF062D5A
:1008900010E0E00FF11F058100FFDECF299ADDCFC8
:1008A00054985C9A05E010E00E94CB0100E0FC0146
:1008B000018340E09C018D0102DEE8E00C942723D7
:1008C0009C018D01F0DEF9CF0E941B230E94DE1AED
:1008D000802F0E94DE1A805069F08A9569F08A950F
:1008E000C9F08E51A1F18A9549F18950F9F18A95A3
:1008F000F9F140C044D03EC00E94EA1A902F0E94F5
:10090000EA1A802F0E94EA1A202F182F092F51D09F
:1009100017D530C00E94EA1AA02F0E94EA1A802F31
:100920000E94EA1A902F00E0FFD4292F182F0A2FD7
:1009300073D00E94041B0E94241B1CC00E94EC1A4E
:10094000012B11F001E001C000E09CD412C000E0D6
:10095000EBD41E9B05C0009115021091160202C037
:1009600000E010E00E942B1B00E0E3CFA7D401C001
:100970009DD4A9D40E94551BE3E00C942C230E9423
:10098000DE1A002399F4C3D400E00E94041B01E0A6
:100990000E94041B02E00E94041B00E20E94041B50
:1009A00001E20E94041B0E94241B089501E09AD4D6
:1009B00008950E941A23B22F80E090E0005099F031
:1009C000005119F00A9531F592E0212F820FA0E035
:1009D000AB1788F40E94DE1A202F8C010E94BE11F2
:1009E0000196A395F5CF105029F01A9541F01F50AC
:1009F00041F010C043D400E0E4E00C942B233AD43F
:100A0000FACF0E94EA1A002311F001E001C000E0D1
:100A100039D4F1CF01E1F0CF0E941A23A22F80E058
:100A200090E0005091F0005119F00A9501F592E024
:100A3000212F820FB0E0BA1790F48C010E94CD11E3
:100A400001960E94041BB395F6CF105029F01A9519
:100A500019F01F5041F00BC000E00E94041B00E0A1
:100A6000E4E00C942B231E9BF7CF01E0F6CF01E1CD
:100A7000F7CF0E941523412E522ECA01DB01632EAF
:100A80007724ECEDF1E00C94C922062D10E0EC91F6
:100A9000F0E033960E171F071CF400E3702EE6C338
:100AA0000C91102F13951C93FC01E00FF71D708221
:100AB0000C91102F13951C93FC01E00FF71D708211
:100AC0000C91102F13951C9321E0FC01E00FF71DF2
:100AD00020834A9409F4CAC3062D10E0EC91F0E09B
:100AE00077960E171F07CCF20C91102F13951C93BD
:100AF00021E0FC01E00FF71D20830C91102F1395CE
:100B00001C9320E110E0FC01E00FF11F208344E181
:100B10000C919C01200F311F04E00E94DA110C910E
:100B20000C5E0C930C91102F13951C93FC01E00F9D
:100B3000F71D70824A9409F499C3062D10E0EC91D8
:100B4000F0E0F5960E171F070CF4A7CF0C91102FAD
:100B500013951C9322E0FC01E00FF71D20830C91FC
:100B6000102F13951C9320E110E0FC01E00FF11F02
:100B7000208342E30C919C01200F311F08E10E9469
:100B8000DA110C910E5C0C930C91102F13951C93A1
:100B9000FC01E00FF71D70824A9409F467C3062D2B
:100BA00010E0EC91F0E0F5960E171F070CF475CFEE
:100BB0000C91102F13951C9323E0FC01E00FF71DFF
:100BC00020830C91102F13951C9320E110E0FC0161
:100BD000E00FF11F208342E30C919C01200F311F95
:100BE0000AE40E94DA110C910E5C0C930C91102F08
:100BF00013951C93FC01E00FF71D70824A9409F4D1
:100C000035C3062D10E0EC91F0E0B1960E171F07EA
:100C10000CF443CF0C91102F13951C9324E0FC018E
:100C2000E00FF71D20830C91102F13951C9320E1EA
:100C300010E0FC01E00FF11F20834EE10C919C01BC
:100C4000200F311F0CE70E94DA110C91025E0C9309
:100C50000C91102F13951C93FC01E00FF71D70826F
:100C60004A9409F403C3062D10E0EC91F0E03696A7
:100C70000E171F070CF411CF0C91102F13951C9316
:100C800025E0FC01E00FF71D20830C91102F139538
:100C90001C9322E010E0FC01E00FF11F20834EE1E5
:100CA0000C919C01200F311F0AE90E94DA110C916E
:100CB0000C5F0C934A9409F4D9C2062D10E0EC9114
:100CC000F0E036960E171F070CF4E7CE0C91102FAC
:100CD00013951C9326E0FC01E00FF71D20830C9177
:100CE000102F13951C9322E010E0FC01E00FF11F80
:100CF00020834EE10C919C01200F311F0EE90E94D0
:100D0000DA110C910C5F0C934A9409F4AFC2062DD2
:100D100010E0EC91F0E036960E171F070CF4BDCEF4
:100D20000C91102F13951C9327E0FC01E00FF71D89
:100D300020830C91102F13951C9322E010E0FC01EE
:100D4000E00FF11F20834EE10C919C01200F311F19
:100D500002EA0E94DA110C910C5F0C934A9409F498
:100D600085C2062D10E0EC91F0E034960E171F07B7
:100D70000CF493CE0C91102F13951C9328E0FC01DA
:100D8000E00FF71D20830C91102F13951C9322E088
:100D9000FC01E00FF71D20830C91102F13951C937D
:100DA00021E8FC01E00FF71D20830C91102F139513
:100DB0001C9320E2FC01E00FF71D20830C91102F03
:100DC00013951C93FC01E00FF71D70820C91102FFE
:100DD00013951C93FC01E00FF71D70824A9409F4EF
:100DE00045C2062D10E0EC91F0E033960E171F0778
:100DF0000CF453CE0C91102F13951C9329E0FC0199
:100E0000E00FF71D20830C91102F13951C93FC010C
:100E1000E00FF71D70820C91102F13951C93FC01AD
:100E2000E00FF71D70824A9409F420C2062D10E0ED
:100E3000EC91F0E034960E171F070CF42ECE0C91B7
:100E4000102F13951C932AE0FC01E00FF71D20835F
:100E50000C91102F13951C9321E0FC01E00FF71D5E
:100E600020830C91102F13951C93FC01E00FF71DAC
:100E700070820C91102F13951C93FC01E00FF71D4D
:100E800070824A9409F4F2C1062D10E0EC91F0E072
:100E900034960E171F070CF400CE0C91102F1395EB
:100EA0001C932BE0FC01E00FF71D20830C91102F09
:100EB00013951C9321E0FC01E00FF71D20830C919A
:100EC000102F13951C93FC01E00FF71D70820C91FD
:100ED000102F13951C93FC01E00FF71D70824A94AC
:100EE00009F4C4C1052D0A950A3010F07394BEC1EF
:100EF0000C91102F13951C932CE0FC01E00FF71DB3
:100F000020830C91102F13951C9320E1FC01E00F1E
:100F1000F71D20830C91102F13951C93FC01E00FFB
:100F2000F71D70824A9409F4A1C1052D0A950A3073
:100F3000E8F60C91102F13951C932DE0FC01E00FA7
:100F4000F71D20830C91102F13951C9320E1FC01B9
:100F5000E00FF71D20830C91102F13951C93FC01BB
:100F6000E00FF71D7082052D0A950A3008F0BECFFC
:100F70000C91102F13951C932EE0FC01E00FF71D30
:100F800020830C91102F13951C9320E1FC01E00F9E
:100F9000F71D20830C91102F13951C93FC01E00F7B
:100FA000F71D7082052D0A950A3008F09FCF0C912D
:100FB000102F13951C932FE0FC01E00FF71D2083E9
:100FC0000C91102F13951C9320E1FC01E00FF71DED
:100FD00020830C91102F13951C93FC01E00FF71D3B
:100FE0007082052D0A950A3008F080CF0C91102FE1
:100FF00013951C9320E1FC01E00FF71D20830C9159
:10100000102F13951C9321E0FC01E00FF71D2083A6
:101010000C91102F13951C93FC01E00FF71D7082AB
:101020000C91102F13951C93FC01E00FF71D70829B
:101030004A9409F41BC1052D0A950A3008F056CFD1
:101040000C91102F13951C9321E1FC01E00FF71D6B
:1010500020830C91102F13951C9321E0FC01E00FCD
:10106000F71D20830C91102F13951C93FC01E00FAA
:10107000F71D70820C91102F13951C93FC01E00F4B
:10108000F71D70824A9409F4F1C05A940AE0501690
:1010900008F02CCF0C91102F13951C9322E1FC012A
:1010A000E00FF71D20830C91102F13951C9321E066
:1010B000FC01E00FF71D20830C91102F13951C935A
:1010C000FC01E00FF71D70820C91102F13951C93FB
:1010D000FC01E00FF71D70824A9409F4C7C0062D89
:1010E00010E0EC91F0E033960E171F070CF4D5CC0E
:1010F0000C91102F13951C9323E1FC01E00FF71DB9
:1011000020830C91102F13951C93FC01E00FF71D09
:1011100070820C91102F13951C93FC01E00FF71DAA
:1011200070824A9409F4A2C0062D10E0EC91F0E020
:1011300033960E171F070CF4B0CC0C91102F13959B
:101140001C9324E1FC01E00FF71D20830C91102F6C
:1011500013951C9320E1FC01E00FF71D20830C91F7
:10116000102F13951C93FC01E00FF71D70824A9419
:1011700009F47CC0062D10E0EC91F0E0B2960E1759
:101180001F070CF48ACC0C91102F13951C9320E2AE
:10119000FC01E00FF71D20830C91102F13951C9379
:1011A00010E0FC01E00FF71D208300E00AC02C9145
:1011B000322F33953C93FC01E20FF71D70820F5FD5
:1011C0001F4F003217059CF34A9409F44FC0062DB7
:1011D00010E0EC91F0E033960E171F070CF45DCC95
:1011E0000C91102F13951C93FC01E00FF71D7082DA
:1011F0000C91102F13951C9310E0FC01E00FF11FD0
:1012000010838C90082D03950C930EEF0E94CD1146
:10121000FC01E80DF71D00834A9441F1062D10E012
:10122000EC91F0E033960E171F070CF436CC0C91BE
:10123000102F13951C93FC01E00FF71D70820C9189
:10124000102F13951C93FC01E00FF71D70826C901A
:10125000062D03950C9300E212E00E94CD11860D3D
:10126000971DFC0100834A9409F07A94072DE9E068
:101270000C9426230E94EA1A01E008950E94EA1ABB
:1012800000E00895002351F026982E980AE010E01F
:101290000E94B60125980E949E1B06C00E94B21BA8
:1012A0002E98269A2D98259A00E0089526982E9833
:1012B0000AE010E00E94B601259808952E98269A1B
:1012C000259800E0089500E00E94181B00E20E94AB
:1012D000041B00E80E94041B00E00E94041B0E9403
:1012E000241B08958A93802F00E00E94181B00E2BF
:1012F0000E94041B00EA0E94041B00E00E94041BE1
:10130000082F0E94041B0E94241B8991089500E06D
:101310000E94181B00E20E94041B01E80E94041BAB
:1013200000E00E94041B08950E94181B00E20E9426
:10133000041B04E80E94041B01E00E94041B0895A2
:10134000002311F4C0DF0895CDDF08950E94DE1A56
:10135000002311F406D002C000E170D10E94551B99
:1013600008959A938A9364970E94DE1A0E94DE1A67
:10137000005809F450C00A9569F10A95A9F10A9537
:10138000F9F10A9509F453C00C5749F00A95A1F0F8
:101390000A95C1F00A95E1F00A95D1F053C070D1D9
:1013A00000E00E94041B01E00E94041B00E20E9476
:1013B000041B0E94241B48C063D102E00E94041B4E
:1013C00003E0F5CF5DD101E00E94041B02E0EFCF06
:1013D00057D1EFCF55D18E010E94ED119E0104E14E
:1013E00010E00E943D1BE5CF4BD180E090E003C0B0
:1013F0000E94041B01968E3000E09007CCF3D9CFF9
:101400003FD180E090E0823000E0900794F60E94A7
:10141000041B0196F8CF34D104E70E94041B0DE4AD
:101420000E94041B01E40E94041B04E4C0CF28D1E5
:1014300080E090E08F3000E090070CF70E94041BE2
:101440000196F8CF00E1FAD06496899199910895B8
:101450009A938A930E94DE1A802F0E94DE1A80508F
:1014600059F08A9559F08A95B1F08E5009F18A9514
:1014700011F18F5399F134C03AD034C00E94EA1A66
:10148000902F0E94EA1A802F0E94EA1A202F182F0C
:10149000092F4FD026C00E94EA1A902F0E94EA1A04
:1014A000802F0E94EA1A202F182F092F44D01AC02B
:1014B000B4D0B5D017C00E94EA1A802FAFD0AFD0F9
:1014C000813081F4F894A895009160000861009340
:1014D00060000EE000936000789404C0F0D002C079
:1014E00000E1E7D00E94551B8991999108950E94CF
:1014F000DE1A005019F00250A9F018C0B4D000E074
:101500000E94041B01E00E94041B02E00E94041BD5
:1015100000E10E94041B01E10E94041B00E50E94FF
:10152000041B01C0A0D00E94241B089500E186D0B6
:10153000089500E008950E941A23B02F912F822F62
:10154000A1E000E0AAD00E94521BB05071F0BA9501
:10155000B9F1B25009F446C0A0E0AA2309F455C07D
:1015600000E054C000E00E94041B082F8A9500236D
:10157000A1F3813890F7092F9395E8E2F2E00C94FB
:10158000C92201E0F0CF0CE0EECF03E210E00E94B0
:101590002B1B93958A95E9CF02E0E5CF0EEF10E083
:1015A0000E94CD11E0CF00E00E94041BA0E0DDCF3F
:1015B00000911502109116020E942B1B93958A959B
:1015C000082F8A95002349F2813838F6092F939520
:1015D000002371F300E00E94041BA0E0F1CF0AE0B9
:1015E0000E94041B082F8A95002309F4B6CF813886
:1015F00008F0B3CF092F9395005089F30A9579F33A
:1016000000E00E94041BA0E0EDCF01E10E94041B5A
:101610000E94241BE4E00C942B230895089500E01D
:101620000E94181B01E00E94041B00E80E94041B9A
:1016300000E00E94041B0E94241B08958A93802FBF
:1016400000E00E94181B01E00E94041B00EA0E94B7
:10165000041B00E00E94041B082F0E94041B0E9430
:10166000241B8991089500E00E94181B01E00E944C
:10167000041B01E80E94041B00E00E94041B089563
:1016800000E00E94181B00E00E94041B01E80E9479
:10169000041B00E00E94041B08950E94181B01E037
:1016A0000E94041B04E80E94041B01E00E94041B2A
:1016B0000895002311F4B3DF0895C0DF08950E9458
:1016C000F51A013342E714074CE7240740E13407D9
:1016D00019F001E1B3DF089501E0009319029FDFE3
:1016E0000895299A219A2A9A229A08952198299848
:1016F00022982A9854985C9808950895089508951A
:1017000000E008952497088319832A833B83088186
:1017100019812A813B8101501040204030400883CC
:1017200019832A833B83012B022B032B81F72496F9
:1017300008950895089501E00895BA93AA93F801D1
:10174000D90100811181212F220F220B322F43E07A
:1017500050E060E070E00E946522D4DF00E00C936E
:1017600001E0A991B9910895BA93AA93F801D9011A
:101770000081005019F00A9551F00DC001810170EF
:10178000BCDF00E00C9301E0A991B99108950181BB
:101790000170B4DFF6CF0FEFFD010083F4CFBA93F1
:1017A000AA93F801D9010081002311F401E001C0DE
:1017B0000081013041F401E00093380292DF68D5E6
:1017C00001E00C9304C000E0FD01008301E0A99159
:1017D000B9910895BA93AA93D80100E00093380212
:1017E00085DF00E00C9301E0A991B9910895BA93C7
:1017F000AA93D80185DF11960C93119700E00C9302
:1018000002E0A991B99108950E941A23F801D90123
:10181000808191810281138120E030E06481262B58
:101820004581342B90FB2EF480FB16F4299A01C0DD
:10183000299891FB2EF481FB16F42A9A01C02A986C
:1018400097FB3EF487FB1EF454985C9A02C0549AAE
:101850005C98402F412B422B432BB9F1013C46ECC5
:1018600014074DE2240740E0340720F000EC16ECAA
:101870002DE230E05EDF90FB36F400E0199901E0E4
:10188000182F1027F1F491FB3EF4082F069510E075
:101890001A9911E00127A9F492FB1EF4082F0C7F7E
:1018A00081F495FB1EF4082F007E59F497FB66F433
:1018B000082F000F00E0001F10E04C9911E00127F5
:1018C00019F039DF0023B9F235DF03B113B129B1C3
:1018D000322F34FB80E087F9202F21FB20E020F914
:1018E000822B012F02FB00E001F9802B8C9301E099
:1018F000E4E00C942B230E941A23F801C9014081D3
:10190000518160E070E02281622B0381302F702BC7
:10191000042F052B062B072B11F40FEF38C0A6E37D
:10192000B2E0403002E150070AE7600700E07007CC
:1019300050F001E00093390210E0FD0104831583AB
:101940001683178323C0009339028A0101501E4E6B
:1019500025483F4F0E949D22023040E01407240793
:10196000340758F00C5F1F4F2F4F3F4F46E050E0B9
:1019700060E070E00E949D2204C001E010E020E0E1
:1019800030E0FD01048315832683378300E0FC01EA
:10199000008301E0E4E00C942B239A938A93F801EE
:1019A000C901019110E020E030E0402F406011F4C7
:1019B00000E011E0AF010E94AA1300E0FC010083E7
:1019C00001E0899199910895F8011081E6E3F2E030
:1019D000012F03700395018B12FB16F401E001C087
:1019E00000E0028B00E0F901008301E00895BA9362
:1019F000AA932497F801D90100913802013019F017
:101A00000FEF0C9315C04181528160E0238110E0FB
:101A1000622B0481302F20E000E0488359836A83E1
:101A20003B83AE0130E00E94E01800E0FD0100833E
:101A300001E02496A991B9910895AD01F801A6E3BA
:101A4000B2E0008100933E020181128119960D934C
:101A50001C931A97038114811B960D931C9300E02D
:101A6000F901008301E0DA0108950E940E236C97CA
:101A70005801690100914A02039500934A020091BE
:101A80004A020A3010F4469809C000914A02053112
:101A900020F000E000934A0201C0469A00E010E006
:101AA00020E030E0188F198F1A8F1B8F760142E0EB
:101AB000C40ED11E10934902188719871A871B87F5
:101AC0001C871D871E871F8741E0A40EB11EF501EC
:101AD00041915F014C8B1D8B1E8B1F8B8C899D89C7
:101AE000AE89BF89AC01BD0141505040604070409B
:101AF0004C8B5D8B6E8B7F8B482F492B4A2B4B2B4E
:101B000009F423C2F50141915F0150E04C835D83EC
:101B10005E835F8346E3842E42E0942E4C8141FF36
:101B200075C1488559856A857B85452B462B472B92
:101B300009F458C0F40181859285A0E0B0E00C81E1
:101B400001710130F9F4AE010C811D812E813F81BC
:101B50000E94E01810E020E030E002301107210779
:101B6000310779F50C011D0181509040A040B04033
:101B7000402D41294229432921F140914902442322
:101B800001F5E1CFAE010EE00E94E01810E020E088
:101B900030E0023011072107310779F40C011D01F3
:101BA00081509040A040B040402D41294229432916
:101BB00021F040914902442329F3188719871A8795
:101BC0001B87013040E014072407340709F0BDC12A
:101BD0004881F6014193598151936A8161937B81D8
:101BE00071936F014C8144FFA0C0F5010081118108
:101BF00062814381088B198B6A8B4B8B04E0A00EAA
:101C000000E0B01EF40143845484662477240C81E0
:101C100000FF29C081859285A0E0B0E040E050E05F
:101C20000C811D812E813F810E94E01810E020E090
:101C300030E0023011072107310779F40C011D0152
:101C400081509040A040B040402D41294229432975
:101C500021F040914902442309F301301107210783
:101C6000310709F072C1F40181859285A0E0B0E0EE
:101C7000AE010C811D812E813F810E94E01810E091
:101C800020E030E0023011072107310779F40C0120
:101C90001D0181509040A040B040402D4129422973
:101CA000432921F040914902442311F3488159818D
:101CB0006A817B81F4010584168427843088402161
:101CC0005121622173210A011B01013011072107F3
:101CD0003107D1F4488959896A897B890416150628
:101CE0002606370689F0C201D3014FEF440E541E79
:101CF000641E741E482F492B4A2B4B2B29F0409110
:101D00004902442309F4AFCF488959896A897B89FC
:101D1000041615062606370609F000610130110782
:101D20002107310709F011C16BC0E6E3F2E08185BC
:101D30009285A0E0B0E04C8140FF34C048855985D1
:101D40006A857B85452B462B472B09F059C040E01F
:101D500050E00C811D812E813F810E94E01810E02F
:101D600020E030E0023011072107310779F40C013F
:101D70001D0181509040A040B040402D4129422992
:101D8000432921F040914902442309F3013011070E
:101D90002107310709F0D9C041E0488719871A8720
:101DA0001B872EC0AE010C811D812E813F810E94B8
:101DB000E01810E020E030E0023011072107310781
:101DC00079F40C011D0181509040A040B040402D9D
:101DD00041294229432921F040914902442311F32A
:101DE000013011072107310709F0AFC04881F60122
:101DF0004193598151936A8161937B8171936F0102
:101E000040E04C874D874E874F878EC008851985E7
:101E10002A853B85012B022B032BC9F1E6E3F2E077
:101E200081859285A0E0B0E0AE010EE010E020E0F8
:101E300030E00E94E01810E020E030E002301107AE
:101E40002107310779F40C011D0181509040A04019
:101E5000B040402D41294229432921F040914902B7
:101E6000442311F3013040E011072107310709F045
:101E70006CC00881F6010193198111932A81219385
:101E80003B8131936F01488749874A874B87F5012A
:101E90000081118162814381088319836A834B83A6
:101EA00004E0A00E00E0B01E0C8105FF0FC0088109
:101EB00019812A813B81E6E3F2E0058716872787AF
:101EC000308B01E010E020E030E02EC0E6E3F2E0ED
:101ED00081859285A0E0B0E0AE010C811D812E814C
:101EE0003F810E94E01810E020E030E0023011074E
:101EF0002107310779F40C011D0181509040A04069
:101F0000B040402D41294229432921F04091490206
:101F1000442311F30130110721073107B1F441E0E7
:101F20004C871D871E871F87488D598D6A8D7B8D35
:101F30004F5F5F4F6F4F7F4F488F598F6A8F7B8FF7
:101F400040914902442309F4C9CD013040E014070F
:101F50002407340709F061C0488559856A857B8567
:101F6000452B462B472B81F180913F0290914002F7
:101F7000A0E0B0E0AE010EE00E94E01810E020E02A
:101F800030E0023011072107310771F4AC01BD01C7
:101F900081509040A040B040452B462B472B21F06C
:101FA00040914902442331F30130110721073107E1
:101FB000A1F54881F6014193598151936A8161935A
:101FC0007B8171936F0129C04C855D856E857F850E
:101FD000452B462B472B09F180913F0290914002FF
:101FE000A0E0B0E040E050E00EE00E94E01810E019
:101FF00020E030E0023011072107310771F4AC0115
:10200000BD0181509040A040B040452B462B472B4E
:1020100021F040914902442329F3488DF701408380
:1020200001830C2D0E196C96E0E10C941F230E9485
:102030000E232A974801590100E020E030E02E836A
:102040002F8328872987A882B98243E0A40EB21E75
:102050002093490241E0840E921EF4014080518099
:10206000652C660C6608762C42E0840E921E442D88
:102070004529462909F4FAC0F401C1904F01DD2435
:10208000EE24FF244C2D41FFC1C0C0FA46F58091DB
:102090003F0290914002A0E0B0E040E050E08601B5
:1020A0000E94E01810E020E030E002301207220722
:1020B000320779F40C011D0181509040A040B040DE
:1020C000402D41294229432921F0409149024423CE
:1020D00021F3013012072207320709F0C7C0C201FD
:1020E000D3014FEF440E541E641E741E482F492B1B
:1020F0004A2B4B2B09F4BAC0042D052906290729C0
:1021000021F4C0FA16F40EE0C02E80913F029091A7
:102110004002A0E0B0E0AE014E5F5F4F86010E943A
:10212000E01810E020E030E002301D052D053D05EF
:1021300079F40C011D0181509040A040B040402D29
:1021400041294229432921F040914902442319F3AE
:1021500001301D052D053D0509F088C04A81F501B6
:1021600041935B8151936C8161937D8171935F0198
:102170004E815F81688579854F5F5F4F6F4F7F4FDD
:102180004E835F8368877987AACFF401008111812C
:10219000628143810A831B836C834D8304E0800E3C
:1021A0009D1C80913F0290914002A0E0B0E0AE0102
:1021B0004E5F5F4F860197010E94E01810E020E01B
:1021C00030E002301D052D053D0579F40C011D019F
:1021D00081509040A040B040402D412942294329E0
:1021E00021F040914902442311F301301D052D05D2
:1021F0003D05E1F50E811F81288539850F5F1F4F51
:102200002F4F3F4F0E831F83288739878201930109
:102210004FEF440E541E641E741E012B022B032B21
:1022200009F0B3CF80913F0290914002A0E0B0E06E
:1022300040E050E00EE010E020E030E00E94E018C6
:1022400010E020E030E002301D052D053D0571F461
:10225000AC01BD0181509040A040B040452B462BC1
:10226000472B21F040914902442311F34E81E8812C
:10227000F98140835F81E881F9815183E881F981A7
:1022800002830A2D2881021B2A96E0E10C941F2369
:10229000E6E3F2E007E010E004831583168317837A
:1022A00004E60187128701E0018B29DA0895EBE447
:1022B000F2E000E002830091E20004600093E2009B
:1022C00000E0008301E001830895009106080023E7
:1022D00009F44CC000914D02083008F447C000E0FA
:1022E00000934D0202E00093E9000091E800102FF6
:1022F00012FF3CC02091F20000E008C03091F100D4
:1023000010E0F801E25BFD4F308303950217B0F354
:102310000091E8000B7F0093E8000091E8000F7740
:102320000093E8002EE832E00EE412E00E947B0306
:1023300001E00093E9000091E800102F15FFFBCFAA
:1023400000E008C010E0F801E257FD4F1081109343
:10235000F10003950034B0F30091E8000E7F009384
:10236000E8000091E8000F770093E80008950091DD
:102370004D02039500934D0208950895003034E016
:10238000130750F4F999FECF12BD01BD20BD0FB760
:10239000F894FA9AF99A0FBF0895003024E01207D2
:1023A00010F00FEF0895F999FECF12BD01BDF89A14
:1023B00000B508950E941823D801C901542E442461
:1023C00007C08D01EADF1196FC010193CF01439410
:1023D0004514B8F3E6E00C942923BA93AA93D801E4
:1023E00044E19D0104E010E00E94DA110C910F3FDE
:1023F00039F444E150E020E032E08D010E943623C0
:10240000A991B9910895BA93AA9358D000E212E025
:102410000E94CD11A5E1B2E001FB66F401E05DD0C0
:1024200077D00D911C911197083823E1120721F400
:1024300000E001C004E051D09BD00091D7000160C2
:102440000093D7000E943E210E9457110E94210153
:102450000E9453133E9A469808E813E112960D9392
:102460001C9300911C02002309F0F7D00E94462122
:102470000E9465110E9422010E94591300911902C5
:10248000002379F301E00093E9000091E800102FA8
:1024900015FFFBCF02E310E00E94CB010091D800B2
:1024A0000F770093D80002E310E00E94CB01F8946C
:1024B00003E013D070D00C940038D3CFF894A895D3
:1024C00004B7077F04BF00916000086100936000BB
:1024D00000E00093600078940895102F1F7016306C
:1024E000B0F420E82093610010936100002311F400
:1024F00000E103C0013021F408E000931A020895BE
:10250000043011F401E0F9CF00E000931A020895BD
:1025100006E800937A000EE100937C0004E610E0E8
:102520000E94B60100917A00006500937A00009144
:102530007A00102F14FFFBCF00917A000065009302
:102540007A0000917A00102F14FFFBCF00917800E1
:10255000109179000A3121E0120730F004EE1CE0FE
:10256000009315021093160200E000937A0008957C
:1025700024982C9A01E000931B0203E005BD009112
:102580001A02083011F400E806BD00916E000160E7
:1025900000936E00089500E000936E0000931B020C
:1025A0000895EDE1F2E00081000F00831C9B03C061
:1025B00000810160008301811081101799F00F3FA5
:1025C00041F41081112329F4549A5C9800E00183AE
:1025D0000895002339F400810F3F21F454985C9A48
:1025E0000FEF018308958A93FA93EA933A922A921D
:1025F0001A920A927A936A935A934A933A932A9335
:102600001A930A938FB700911A02083011F400E868
:1026100006BD00911B02002309F0C3DF00911702E1
:1026200010911802012B41F0E5E1F2E002811381E3
:1026300001501040028313838FBF09911991299192
:1026400039914991599169917991099019902990FD
:102650003990E991F99189911895E5E1F2E00091BD
:102660000608002319F000E0078308950281138112
:10267000012BC1F43E9800E0078300E212E00E94C3
:10268000CD1102FB7EF00FEF009364000093650014
:1026900005E003BF889500E003BF0093640000934A
:1026A00065003E9A089500E00093CE020093CF02A9
:1026B00008959A938A930E94D61A0023A9F00E9443
:1026C000DE1A0E3079F40E94DE1A0E94EC1AC8015C
:1026D0000093CE021093CF020E94DE1A202F8C01AD
:1026E00006D002C00E94551B8991999108952050EF
:1026F00029F02A9531F02F5139F008950E94A6094A
:1027000008950E94280A08950E94640408950EE026
:102710000E94041B0091CE021091CF020E942B1B3D
:1027200008952497088319832A833B83088119819C
:102730002A813B810150104020403040088319839A
:102740002A833B83012B022B032B81F724960895C8
:10275000000008950E941023280139016A0180E0D9
:10276000B0E088249924AA24BB2418C02A98299868
:10277000E6E3F2E00481158126813781D2DF299AD0
:10278000E6E3F2E00481158126813781CADFB69540
:1027900087950FEF800E901EA01EB01EA201B30100
:1027A0000FEF400E501E601E701E042F052B062BCF
:1027B000072B89F0082D09290A290B2941F4F60174
:1027C00081916F0108E0802E9924AA24BB2480FB0C
:1027D0006EF62A9ACCCFEEE00C9421230E941023AF
:1027E0002897280139016A012A9A2998B1DF299A84
:1027F000AFDF40FA16F42A9A01C02A982998A8DF78
:10280000299AA6DF42015301B694A794979487941E
:1028100080FA16F42A9A01C02A98299899DF299AF1
:1028200097DF82019301080D191D2A1D3B1D0C83A2
:102830001D832E833F8342E0820193010E948D22FB
:102840004801590180FA16F42A9A01C02A98299859
:102850007FDF299A7DDF0C811D812E813F81080D4C
:10286000191D2A1D3B1D0C831D832E833F8343E0CE
:10287000820193010E948D22480180FA16F42A9A5F
:1028800001C02A98299864DF299A62DF0C810170BF
:10289000182D1170010F017011F02A9A01C02A98A9
:1028A000299856DF299A54DF2A98299851DF299AC6
:1028B0004FDF2A9A29984CDF299A4ADF2298809183
:1028C000470290E0A0E0B0E007C042DF299A40DF75
:1028D00081509040A040B040082F092B0A2B0B2BB1
:1028E000299899F735DF03B1802E82FA882499243C
:1028F000AA24BB2480F8299A2BDF888299829A82A5
:102900009B82299825DF03B1802E82FA882480F8E3
:10291000299A1EDF880C088119812A813B810829A8
:10292000088319832A833B83299812DF03B1802E01
:1029300082FA882480F8299A0BDF42E0840195010D
:102940000E948522488159816A817B81402B48837E
:1029500059836A837B83088119812A813B810130F5
:1029600019052905390509F0CBC0042D01FF62C006
:1029700044245524662477249C829D829E829F82D3
:1029800080E290E0A0E0B0E021C0E2DE03B1802E62
:1029900082FA882480F8299ADBDE0C811D812E8141
:1029A0003F81080D191D291D391D0C831D832E83A0
:1029B0003F837694679457944794082D069530E0AA
:1029C0003795732A81509040A040B040082F092BC2
:1029D0000A2B0B2B2998C9F6BBDE03B1802E82FA95
:1029E000882480F8299AB4DE0C810170082529F02A
:1029F00008E0088399829A829B820C2D0D2929F088
:102A0000F60140825182628273828091470290E097
:102A1000A0E0B0E008C029989BDE299A99DE815099
:102A20009040A040B040082F092B0A2B0B2B99F7A0
:102A3000229A4EC08091470290E0A0E0B0E008C02A
:102A4000299886DE299A84DE81509040A040B040CB
:102A5000082F092B0A2B0B2B99F7229AF60140809D
:102A60005180628073809C829D829E829F8280E2E0
:102A700090E0A0E0B0E019C02A98299869DE299A70
:102A800067DE0C811D812E813F81040D151D261DE1
:102A9000371D0C831D832E833F8376946794579450
:102AA000479481509040A040B040082F092B0A2B3A
:102AB0000B2B21F040FA06F72A9ADFCF0C8100FF9A
:102AC00002C02A9A01C02A98299842DE299A40DE3B
:102AD00080913E0290E0A0E0B0E0082F006079F025
:102AE0002A9808C0299834DE299A32DE8150904015
:102AF000A040B040082F092B0A2B0B2B99F771C06F
:102B0000088119812A813B8102301905290539057F
:102B100051F0088119812A813B810430190529056A
:102B2000390509F048C0009148020023A9F0042D9E
:102B300001FF12C081E290E0A0E0B0E008C0299857
:102B400007DE299A05DE81509040A040B040082F52
:102B5000092B0A2B0B2B99F78091470290E0A0E0FC
:102B6000B0E008C02998F4DD299AF2DD8150904048
:102B7000A040B040082F092B0A2B0B2B99F7229A63
:102B800000914802002369F1042D01FD2AC02A9812
:102B900081E290E0A0E0B0E008C02998D9DD299A50
:102BA000D7DD81509040A040B040082F092B0A2B60
:102BB0000B2B99F716C08091470290E08196A92FC0
:102BC000AA0FAA0BBA2F08C02998C2DD299AC0DD26
:102BD00081509040A040B040082F092B0A2B0B2BAE
:102BE00099F72A9A08812896EEE00C9421230E94F6
:102BF0000E232897680179013A012A9A299806E359
:102C0000402E02E0502EF201048115812681378189
:102C100088DD299AF201048115812681378181DDC1
:102C2000C0FA16F42A9A01C02A982998F201048160
:102C300015812681378175DD299AF201048115817C
:102C4000268137816EDD46015701B694A79497948B
:102C5000879480FA16F42A9A01C02A982998F201DA
:102C600004811581268137815CDD299AF201048176
:102C700015812681378155DD86019701080D191DC3
:102C80002A1D3B1D0C831D832E833F8342E086015A
:102C900097010E948D224801590180FA16F42A9A60
:102CA00001C02A982998F201048115812681378173
:102CB00038DD299AF201048115812681378131DDC1
:102CC0000C811D812E813F81080D191D2A1D3B1D80
:102CD0000C831D832E833F8343E0860197010E946E
:102CE0008D22480180FA16F42A9A01C02A98299860
:102CF000F201048115812681378113DD299AF201C1
:102D000004811581268137810CDD0C810170182D1D
:102D10001170010F017011F02A9A01C02A982998A8
:102D2000F2010481158126813781FBDC299AF201A9
:102D30000481158126813781F4DC2A982998F201D3
:102D40000481158126813781ECDC299AF201048106
:102D5000158126813781E5DC2A9A2998F2010481C0
:102D6000158126813781DDDC299AF20104811581E4
:102D700026813781D6DC22988091470290E0A0E03E
:102D8000B0E00CC0CEDC299AF201048115812681C5
:102D90003781C7DC81509040A040B040082F092BFC
:102DA0000A2B0B2B2998F20104811581268137818A
:102DB00049F7B7DC03B1802E82FA88249924AA242B
:102DC000BB2480F8299AF20104811581268137817C
:102DD000A8DC888299829A829B822998F2010481D8
:102DE0001581268137819DDC03B1802E82FA8824EB
:102DF00080F8299AF201048115812681378191DCBE
:102E0000880C088119812A813B810829088319834C
:102E10002A833B832998F201048115812681378119
:102E200080DC03B1802E82FA882480F8299AF2018E
:102E3000048115812681378174DC42E0840195018B
:102E40000E948522488159816A817B81402B488379
:102E500059836A837B83088119812A813B810130F0
:102E600019052905390509F00CC10C2D01FF7BC09E
:102E7000CC24DD24EE24FF249C829D829E829F82AE
:102E800080E290E0A0E0B0E026C04BDC03B1802EF1
:102E900082FA882480F8299AF2010481158126811A
:102EA00037813FDC0C811D812E813F81080D191D6A
:102EB000291D391D0C831D832E833F83F694E794CF
:102EC000D794C794082D069530E03795F32A8150A2
:102ED0009040A040B040082F092B0A2B0B2B2998BB
:102EE000F201048115812681378179F61ADC03B15C
:102EF000802E82FA882480F8299AF20104811581B3
:102F0000268137810EDC0C810170082529F008E04C
:102F1000088399829A829B82062D072929F0F30162
:102F2000C082D182E282F3828091470290E0A0E0E9
:102F3000B0E012C02998F201048115812681378101
:102F4000F0DB299AF2010481158126813781E9DBC2
:102F500081509040A040B040082F092B0A2B0B2B2A
:102F600049F7229A6CC08091470290E0A0E0B0E05F
:102F700012C02998F2010481158126813781D1DBA5
:102F8000299AF2010481158126813781CADB81509B
:102F90009040A040B040082F092B0A2B0B2B49F77B
:102FA000229AF301C080D180E280F3809C829D82CE
:102FB0009E829F8280E290E0A0E0B0E023C02A9849
:102FC0002998F2010481158126813781AADB299A8B
:102FD000F2010481158126813781A3DB0C811D81DB
:102FE0002E813F810C0D1D1D2E1D3F1D0C831D8349
:102FF0002E833F83F694E794D794C79481509040F2
:10300000A040B040082F092B0A2B0B2B21F0C0FA4F
:10301000B6F62A9AD5CF0C8100FF02C02A9A01C0C9
:103020002A982998F201048115812681378179DB5C
:10303000299AF201048115812681378172DB809102
:103040003E0290E0A0E0B0E0082F0060C9F02A98AE
:1030500012C02998F201048115812681378161DB34
:10306000299AF20104811581268137815ADB81502A
:103070009040A040B040082F092B0A2B0B2B49F79A
:1030800099C0088119812A813B81023019052905DF
:10309000390551F0088119812A813B8104301905D5
:1030A0002905390509F066C0009148020023F9F0AE
:1030B0000C2D01FF1CC081E290E0A0E0B0E012C046
:1030C0002998F20104811581268137812ADB299A0A
:1030D000F201048115812681378123DB81509040E4
:1030E000A040B040082F092B0A2B0B2B49F78091E9
:1030F000470290E0A0E0B0E012C02998F2010481FC
:103100001581268137810DDB299AF2010481158111
:103110002681378106DB81509040A040B040082FC7
:10312000092B0A2B0B2B49F7229A00914802002306
:1031300001F10C2D01FD3EC02A9881E290E0A0E053
:10314000B0E012C02998F2010481158126813781EF
:10315000E8DA299AF2010481158126813781E1DAC2
:1031600081509040A040B040082F092B0A2B0B2B18
:1031700049F720C08091470290E08196A92FAA0FBD
:10318000AA0BBA2F12C02998F20104811581268159
:103190003781C7DA299AF2010481158126813781A6
:1031A000C0DA81509040A040B040082F092B0A2B74
:1031B0000B2B49F72A9A08812896E0E10C941F23EB
:1031C00060913902662311F009DB089510DD08953E
:1031D000FA93EA933A932A931A930A933FB700918A
:1031E00052030038C8F42091CE000091500310E043
:1031F000F801E053FD4F20830091500303950093A5
:10320000500300915003003811F4109350030091C3
:1032100052030395009352033FBF099119912991DD
:103220003991E991F9911895FA93EA932A931A93AF
:103230000A932FB7009155030023D1F00091540356
:1032400010E0F801E95AFC4F00810093CE00009194
:10325000540303950093540300915403003811F470
:1032600010935403009155030A950093550303C02E
:1032700000E0009356032FBF099119912991E9911C
:10328000F99118950E941723C801D901442E552E93
:10329000662EE0E5F3E000E000830183038304830E
:1032A00016D08C019D0135D0052D29D0042D1ED0BE
:1032B000062D13D00091C900006C0093C900009145
:1032C000C90008610093C900E7E00C94282300912D
:1032D000C900077E0093C90008951091CA00197FA4
:1032E0000370000F102B1093CA0008951091CA00AC
:1032F0001F7C0295007F102B1093CA000895109137
:10330000CA00177F000F000F000F102B1093CA0088
:1033100008950E94122328013901409161004F70E5
:1033200000E014E224EF30E00E949522003442E4F1
:1033300014074FE0240740E0340749F40091C80027
:1033400002600093C8000CE04093CD0027C040917C
:10335000C8004D7F4093C80044E00E948D22D901EF
:10336000A201B3019D010E949D22015010401093C3
:10337000CD000093CC0042015301B694A7949794DA
:10338000879480149104A204B30450F40091CC00FB
:103390001091CD000F5F1F4F1093CD000093CC0014
:1033A000ECE00C942323AD01102FE0E5F3E006815F
:1033B000002329F41093CE0001E0068318C001E039
:1033C000F8942581203888F4238130E0D901A95A66
:1033D000BC4F1C931381139513831381103809F488
:1033E000338315811395158301C000E07894DA01C9
:1033F00008950091520308959D0100E0F894E0E5DE
:10340000F3E01281112389F0018110E0D801A0536B
:10341000BD4F0C911181139511831181103811F456
:1034200010E0118312811A9512837894D9010895BE
:103430000091D8000F770093D8000091D800006861
:103440000093D8000091D80000610093D8007894D0
:1034500008950091D80000620093D80002B7007F61
:1034600002BF02B70A6402BF02E109BD09B5102F0D
:1034700010FFFCCFF8940091D8000F7D0093D80086
:103480000091E0000E7F0093E0000091E000077FD4
:103490000093E0000E948F1B0091E2000160009306
:1034A000E2000091E20008600093E2007894089541
:1034B0000091D900102F10FF19C00091D7030023ED
:1034C000A9F401E00093D703E7E0F8E0008111815F
:1034D0000260118300830091D80000680093D80037
:1034E000B8DF0091E0000E7F0093E0000091D9006A
:1034F000102F10FD1AC00091D7030130B1F400E085
:103500000093D70300930608E7E0F8E000811181FB
:103510000460118300830091E00001600093E000EB
:103520000091D80000620093D800E7E0F8E0008145
:103530001181012F00FF0DC0008111811E7F1183B9
:10354000008301E00093EA0000E00093EA000093AA
:10355000060800E00093E9000091E800102F13FF37
:1035600002C00E949A1E0895EFE1F2E00481002358
:1035700039F409ED13E00083118301E00483089519
:1035800000E0089500912402002311F001E0089565
:1035900000E00895EFE1F2E000E005830283038399
:1035A00009ED13E00083118301E0089500912302E7
:1035B000002311F001E0089500E008951B2F2A2F49
:1035C000EFE1F2E0A081B1810D91A083B183A22F40
:1035D000B12F0895F3DF08958A93FCDF802FFADF7F
:1035E000282F302F8901899108950E941A23F4DF32
:1035F000C801A0E0B0E0F0DF8A0FA01FB11F8C016E
:103600009D01E4E00C942B23E0911F02F091200235
:103610000083EFE1F2E0008111810F5F1F4F008313
:103620001183028113810F5F1F4F0283138308955B
:10363000EFE1F2E000E00283038309ED13E0008391
:1036400011830E948713089501E0009324020895D6
:10365000DBDF01E008950E941B23C801F9DFA02FE2
:10366000892F082FF5DF002311F001E001C000E0F1
:10367000A0230A2FE3E00C942C230E941A23C801F4
:10368000D901813002E0900728F0000000E007C077
:103690000D91BADF8C010197012BD1F701E0E4E035
:1036A0000C942B230FE112E0089500E00093230215
:1036B00008950091E307013011F401E0089500E05E
:1036C0000895E3EEF7E000E000830EE0028300E0FF
:1036D0000383048915890483158304E00183089515
:1036E0000091E407089505EE17E008952091EB009E
:1036F00021602093EB000093EC000091ED0002703C
:10370000012B0093ED000091ED0002600093ED00AD
:103710001091EE00012F000F00E0001F089500E05F
:103720000093E9000091EB00102F00E010FD05C0B0
:103730000093E90010E202E0D9DF0895E5E2F2E04B
:103740000481002371F00681002311F051E001C0D3
:1037500050E06085478100811181228133810E9480
:103760004219089500912902002311F00E9467195F
:103770000895202F0091F1003091F100213869F473
:10378000163059F4432F415219F04A9519F005C0EB
:1037900066D201C0EDD001E008952132F9F5412F44
:1037A0004950A9F14A95B9F1465119F0425019F022
:1037B00035C0ACD1F0CF1091E800177F1093E8002E
:1037C0001091E8001E7F1093E80000932A02E5E2C2
:1037D000F2E0058100FF11C000912902002389F465
:1037E00001E000932902AADF549A5C9808EC10E0EB
:1037F0000E94B60154985C9A04C0B4DF00E00093C4
:1038000029020091E800102F10FFFBCFC4CF323007
:1038100029F419D1C0CF132F35D1BDCF213A41F4AE
:10382000125021F01F5121F4E4D1B5CF41D1B3CFD3
:1038300000E0089501E00093E90010E301EC0E942C
:10384000761B02E00093E90010E300EC0E94761B77
:1038500003E00093E90010E301EC0E94761B04E012
:103860000093E90010E301E80E94761B05E0009355
:10387000E90010E300E80E94761B089500E0089537
:10388000202F212B79F401E00093E9000091EB0057
:1038900000610093EB0002E00093EA0000E0009377
:1038A000EA0011C0013020E0120799F403E0009310
:1038B000E9000091EB0000610093EB0008E0009349
:1038C000EA002093EA000091EB0008600093EB000F
:1038D00008950230120791F404E00093E90000918A
:1038E000EB0000610093EB0000E10093EA002093FD
:1038F000EA000091EB0008600093EB0008950330AC
:10390000A9F5105049F01A9569F01A95B1F01A9579
:10391000D1F01A9529F12AC004E00093FD070BE6C7
:1039200011E005C00CE00093FD0709E211E00093EF
:10393000FA071093FB0701E0089500E20093FD07EA
:1039400005E311E0F4CF09E611E00093FA071093C4
:10395000FB0701E00093FC070AE20093FD07EBCFB1
:1039600004E10093FD0705E511E0E1CF00E00895D3
:10397000AC0122970091F1000091F10003E2009365
:10398000FD070FE611E00093FA071093FB07009183
:10399000F10008830091F10009830091E800077F9E
:1039A0000093E800888199818432904028F508814D
:1039B0000093FD0721C0E091FA07F091FB07049105
:1039C0000093F100EAEFF7E0208131812F5F3F4F54
:1039D000208331830091FD070A950093FD07009134
:1039E000FD07002321F0012F1395003221F70091EC
:1039F000E8000E7F0093E8000091FD07002361F0CE
:103A00000091E800102F12FD07C00091E800102F70
:103A100010FFFBCF10E0E3CF0091E800102F12FD64
:103A200005C00091E800102F12FFFBCF0091E800C5
:103A30000B7F0093E8000091E8000F770093E80007
:103A40002296CA0108950091E800077F0093E800DC
:103A50000091E8000E7F0093E8000091E800102F2D
:103A600012FFFBCF0091E8000B7F0093E80000916C
:103A7000E8000F770093E8000091E8000E7F0093C4
:103A8000E80008950091F1000091F1000091E80034
:103A9000077F0093E8001093F9070091E8000E7F7C
:103AA0000093E8000091E800102F10FFFBCF08956D
:103AB00022970091F1000091F1000091F10008833C
:103AC0000091F10009830091E800077F0093E8006E
:103AD00008811981012B49F00091F9070093F10049
:103AE0000091E8000E7F0093E8000091E800102F9D
:103AF00012FFFBCF0091E8000B7F0093E8000091DC
:103B0000E8000F770093E800229608950091E800FE
:103B1000077F0093E8000091E800102F12FFFBCF11
:103B20000091F100009325020091F100009326021C
:103B30000091F100009327020091F1000093280208
:103B40000091F10000932B020091F10000932E02EE
:103B50000091F10000932F020091E8000B7F009389
:103B6000E8000091E8000F770093E8000091E8007A
:103B70000E7F0093E8000091E800102F10FFFBCFAC
:103B8000E5E2F2E000811181228133810E948919EE
:103B900000912B02002311F001E001C000E00E941F
:103BA0007F1900912F02055029F00A9529F00A95F6
:103BB00029F006C000E005C001E003C002E001C03A
:103BC00003E000932D0200912D020E946D190091D7
:103BD0002E02015021F00A9521F000E003C003E01D
:103BE00001C002E000932C0200912C020E94761981
:103BF00008950091E800077F0093E800E5E2F2E015
:103C000000810093F10001810093F1000281009393
:103C1000F10003810093F10006810093F10001851A
:103C20000093F10002850093F1000091E8000E7FFF
:103C30000093E8000091E800102F10FFFBCF0091E7
:103C4000E800102F12FFFBCF0091E8000B7F0093DC
:103C5000E8000091E8000F770093E8000895AC01B8
:103C600022970091F1000091F10009E00093FD0717
:103C700000ED10E00093FA071093FB070091F100AC
:103C800008830091F10009830091E800077F009309
:103C9000E800888199818A30904028F50881009356
:103CA000FD0721C0E091FA07F091FB070491009312
:103CB000F100EAEFF7E0208131812F5F3F4F208351
:103CC00031830091FD070A950093FD070091FD07E0
:103CD000002321F0012F1395003221F70091E80015
:103CE0000E7F0093E8000091FD07002361F0009132
:103CF000E800102F12FD07C00091E800102F10FF00
:103D0000FBCF10E0E3CF0091E800102F12FD05C0BB
:103D10000091E800102F12FFFBCF0091E8000B7F0D
:103D20000093E8000091E8000F770093E8002296E6
:103D3000CA0108959A938A930091E8000B7F00933B
:103D4000E8008091F1009091F100092F005049F1B5
:103D50000A9509F1025011F10250A9F00A9549F0B3
:103D6000025069F00A9599F00A95F1F00A9501F16F
:103D700024C0803811F56ED0002391F51EC0803824
:103D8000E1F435D12DC08823C1F42DD029C088237A
:103D9000A1F447D0F1CF082FD2D1EECF082F8ED18A
:103DA000EBCF082F47D1E8CF813839F40ED2E4CFDA
:103DB000813019F43BD2002399F4192F082F0E9467
:103DC000B91B002369F40091EB0000620093EB0043
:103DD0000091E800077F0093E80001E00093FE07F0
:103DE0008991999108951091F1000091E300007874
:103DF0001F77012B0093E3000091E800077F0093F9
:103E0000E8000091E8000E7F0093E8000091E800D0
:103E1000102F10FFFBCF0091E30000680093E30038
:103E200008951091F100123010F000E00895009113
:103E3000E800077F0093E800109306080091E8006F
:103E40000E7F0093E800009106080E941A1C469A13
:103E500001E008950E941823649790E01091F1000A
:103E60000091F100202F215019F02A9549F12EC020
:103E700002E10093FD070CEA10E0EAEFF7E00083AF
:103E800011830091F1000091F1000091F10008838D
:103E90000091F10009830091E800077F0093E8009A
:103EA0000AEF402E07E0502E0091FD0710E0288118
:103EB00039810217130780F40F7189F491E00FC064
:103EC0000BE60093FD070EEB10E0D7CF0E947F1C9E
:103ED0000023B9F600E087C008810093FD07009138
:103EE000E8000F7E0093E800A0E08091FD078E01BE
:103EF0000E94ED118E0105C02091E8002E7F2093D5
:103F0000E8002091FD07222309F449C02091E80030
:103F1000322F34FD44C02091E800322F30FD05C01F
:103F20002091E800322F34FFF6CF40E012C0F201BA
:103F300020813181F90124912093F100F201208147
:103F400031812F5F3F4F20833183F20123812A95F6
:103F500023835091FD075523E9F0242F4395203208
:103F6000C9F02091FC07222311F3252F30E0E82F20
:103F7000F0E031972E173F07D4F62A2FA39520FBA8
:103F80001EF43093F100E1CFF80121918F012093CD
:103F9000F100DBCF2091E800322F34FFADCF00E0FD
:103FA0000093FC07913079F40091E800102F14FD84
:103FB0000AC00091E800102F10FFFBCF0091E8002D
:103FC0000E7F0093E8000091E800102F14FFFBCF54
:103FD0000091E8000F7E0093E8000091E8000B7F5D
:103FE0000093E80001E06496E6E00C942923009138
:103FF000E800077F0093E800009106080093F100B5
:104000000091E8000E7F0093E8000091E8000F7730
:104010000093E8000091E800102F12FFFBCF009101
:10402000E8000B7F0093E8000091E8000F77009311
:10403000E80008951091F1001091F1002091F10035
:10404000005829F00A9529F10A9551F135C00091DF
:10405000E800077F0093E800009105080093F10055
:1040600000E00093F1000091E8000E7F0093E8006B
:104070000091E800102F12FFFBCF0091E8000B7FAA
:104080000093E8000091E8000F770093E80001E05A
:1040900008950091E800077F0093E80000E0DECF7C
:1040A0000091E800077F0093E8002F7730E0F901E6
:1040B000E250F84F0081D2CF00E00895005019F08F
:1040C000025029F002C00091F10000E00895009133
:1040D000F1001091F1000023C1F70091F1000F777A
:1040E00051F41091EB0010621093EB001091E80076
:1040F000177F1093E8000093E9001091EB00212F47
:1041000020FD04C000E00093E90008951091EB0049
:1041100010621093EB0010E01093E90021E0F80129
:10412000E250F84F20830091E800077F0093E800F9
:104130000091E8000E7F0093E80001E00895005030
:1041400019F0025029F002C00091F10000E008953A
:104150000091F1001091F1000023C1F72091F100CE
:104160002F772093E9000091EB00102F10FD04C081
:1041700000E00093E9000895A1F00091EB000061D8
:104180000093EB00422F01E010E00E944B220093CD
:10419000EA0000E00093EA000091EB000860009361
:1041A000EB0000E00093E90030E0F901E250F84F45
:1041B00000830091E800077F0093E8000091E80089
:1041C0000E7F0093E80001E0089522970091F1002E
:1041D0000091F1001091F10018831091F100198302
:1041E000002311F50091E800077F0093E8000881A3
:1041F00019810E943E1C0093F1000091E8000E7F9F
:104200000093E8000091E800102F12FFFBCF00910F
:10421000E8000B7F0093E8000091E8000F7700931F
:10422000E80001E02296089500E0FCCF229720915B
:10423000F1000091F1001091F10018831091F1004C
:104240001983002311F000E017C00091E800077FF8
:104250000093E800088119810E94401C00E000934F
:10426000E9000091E8000E7F0093E8000091E8006B
:10427000102F10FFFBCF01E0229608950091D70088
:1042800001600093D7000E94181A08950E94581ADE
:1042900008958A93FA93EA933A922A921A920A928A
:1042A0007A936A935A934A933A932A931A930A9366
:1042B0008FB70091E100102F12FF0AC00091E200B9
:1042C000102F12FF05C00BEF0093E1000E94B71101
:1042D0000091E100102F10FF2BC00091E200102F81
:1042E00010FF26C001E00093D8030FEE0093E10019
:1042F000E7E0F8E0008111810062118300830EEF96
:104300000093E1000091E20000610093E20000915F
:10431000E2000F7D0093E2000091D800006200935C
:10432000D80009B50D7F09BD00E009BD0E94BD118F
:104330000091E100102F14FF49C00091E200102FFE
:1043400014FF44C009B5102F10FD0CC002B7007F48
:1043500002BF02B70A6402BF02E109BD09B5102F0E
:1043600010FFFCCF0091D8000F7D0093D8000FEE16
:104370000093E1000091D803002341F10091E20095
:1043800000620093E2000091E20008600093E20006
:104390000FEE0093E1000091E2000F7E0093E20037
:1043A000E7E0F8E00081118100641183008300914F
:1043B000E20001600093E2000091E20000620093DD
:1043C000E2000091E20008600093E2000091E10049
:1043D000102F15FF1CC00091E200102F15FF17C011
:1043E00000E00093D8030091E2000F7E0093E2000A
:1043F0000FED0093E1000091E2000F7D0093E200D9
:10440000E7E0F8E0008111810068118300830091EA
:10441000E100102F13FF11C00091E200102F13FFD5
:104420000CC007EF0093E1000E948F1BE7E0F8E06B
:10443000008111811160118300838FBF099119914F
:1044400029913991499159916991799109901990DE
:1044500029903990E991F9918991189500008895F2
:10446000FECF0FEF0DBF01E00EBFC0E8D1E00E940C
:104470003423002311F00E9452230E9403120E9451
:104480002E220C942E22149F102D059F100D049F98
:10449000002D110D08954A951AF0000F111FFBCF42
:1044A000089500241124EFE0001F111F001C111CAF
:1044B0000416150610F0041A150AEA95AAF7001F4B
:1044C000111FA0010095109508952224349F302DCE
:1044D000259F300D169F300D079F300D249F202DF6
:1044E000310D159F200D311D069F200D311D149F8C
:1044F000102D210D321D059F100D211D321D049F11
:10450000002D110D221D321D08954A952AF0000F2D
:10451000111F221F331FF9CF08954A952AF03695AF
:10452000279517950795F9CF08954A952AF035955F
:10453000279517950795F9CF0895002411241001A8
:10454000E0E2EA9592F0001F111F221F331F001CAA
:10455000111C221C331C041615062606370688F388
:10456000041A150A260A370AECCF001F111F221F52
:10457000331FA001B1010095109520953095089545
:104580007591659155914591159011FA2590359049
:104590000895F9DF041B10E003C0F4DF041B150BC2
:1045A00020E030E005C0ECDF041B150B260B370BB9
:1045B000B8F010FC17C045910590E00FF11F0417EB
:1045C000100540E02407340758F436F40491002421
:1045D000F101E01BF0090994E00FF11F25903590DF
:1045E000F101099411F4D6F7F1CF31960EF031961E
:1045F00050E060E070E045914B3F48F089F34F3F59
:1046000029F04E3F11F07591659155914591041B2C
:10461000150B260B370B39F318F3E7CFFA92EA9212
:10462000DA92CA92BA92AA929A928A927A926A92EA
:104630005A924A92BA93AA939A938A930895FF84BE
:10464000EE84DD84CC84BB84AA84998488847F80B2
:104650006E805D804C80BB81AA8199818881F0E069
:10466000EC0FFD1FEF01089501E008950D01D80141
:1046700004C0F90161919F016D93BA01415050400E
:10468000672BB9F7D001089520E006D0E9F7089527
:10469000259102D0E9F708952D9301501040202F65
:1046A000212B089588ED96E4FC0105911491FC01FD
:1046B0003296A591B491FC01349625913491422F04
:1046C000432B19F0F901E4DF01C0DEDF069616E4A2
:1046D000843E910748F30895D90530020000300068
:1046E0000002E44646464646464646464646464656
:1046F00046464646464646460088130000001001DE
:104700000155FFD9030000000080250000000000D3
:04471000000300089A
:0400000300000000F9
:00000001FF
