:020000020000FC
:100000000C94C01A18951895189518951895189568
:100010001895189518951895189518951895189578
:1000200018951895189518950C94D8191895189531
:100030001895189518951895189518951895189558
:100040001895189518951895189518951895189548
:100050001895189518951895189518950C94F50CF1
:10006000189518950C945511189518950C948111A4
:100070001895189518951895189518951895189518
:100080001895189518951895189518951895189508
:1000900018951895189518951895189518951895F8
:1000A000189518951895189518951895120100022D
:1000B000EF020120EB0345210010010203010902B8
:1000C0006B000301008032090400000203000000FD
:1000D00009211101000122230007058103400001CD
:1000E00007050203400001080B0102020201040996
:1000F0000401000102020100052400100104240291
:1001000006052406010205240103020705830340B6
:10011000000809040200020A0000000705840240EA
:100120000000070505024000000C03410054004D8B
:100130000045004C0020036D00450044004200478C
:1001400000200043004D005300490053002D00449F
:10015000004100500014036D004500440042004778
:100160000020004300440043002A0304030904065E
:1001700000FF0901A101150026FF00750896400047
:10018000090181029640000901910295040901B11B
:1001900002C00001A008B00401D704010805013A1B
:1001A00005016C05019E0501C80501F205011C064B
:1001B000015C0601810601AF0601DD0601000701B1
:1001C0001E07013D07015C0701860701B00701DA40
:1001D0000701FF070C2508105208017908FB0000F1
:1001E000420A0A00210A300A320A340A420A3B0A49
:1001F000300A210A210A3D0A08959A938A930091B0
:100200001808002309F48AC000913902002349F03C
:1002100000913A020E944012002319F000E000937E
:10022000390200913902002391F505E00093E900BD
:100230000091E800102F12FF2AC08091F20001C047
:100240008A958823D1F09091F100092F0E944012E5
:100250000023B1F790933A0201E0009339028A95A6
:1002600009F05CC00091E8000B7F0093E80000916A
:10027000E8000F770093E80051C00091E8000B7F81
:100280000093E8000091E8000F770093E8000E94D7
:100290006612802F882331F00F7321F001E0009364
:1002A00038020CC000E0FBCF0091E8000E7F009305
:1002B000E8000091E8000F770093E8008823A9F098
:1002C00004E00093E9000091E800102F15FFFBCF38
:1002D0000091E800102F15FFE7CF882329F30E9433
:1002E00069120093F1008A95F3CF00913802002340
:1002F000A9F004E00093E9000091E800102F15FF39
:10030000FBCF0091E8000E7F0093E8000091E80029
:100310000F770093E80000E00093380289919991EB
:100320000895229720E02883298309C024E02A9594
:10033000F1F7288139812F5F3F4F28833983288146
:1003400039812017310790F3229608959A938A9362
:10035000C80104C008EE13E00E949101FC0101975E
:10036000EF2BC1F78991999108950E94821B290171
:1003700080E0D2011296F2018083F8010181005FD2
:1003800009F467C00E5009F46CC00A9509F463C003
:10039000025061F00A95B9F00A95B1F10A95C9F1D8
:1003A0000A9521F00A9509F440C05EC001E40C935F
:1003B00004E7FD0101830DE6028305E603830CE6F5
:1003C000048385E051C00DE60C9305E4FD01018333
:1003D00004E4028302E4038307E4048300E2058368
:1003E00003E406830DE4078303E5008709E401873E
:1003F00003E502870DE2038704E4048701E405872F
:1004000000E506878FE030C08D010E942C0C84E14E
:100410002BC08C93FD018183828301E0038384835D
:1004200085838683878388E01FC09CE7662405C098
:10043000FD01E60DF81F008363940EE16016A0F441
:10044000092F10E00E940C0C9395002389F7862D4C
:100450000BC003E007C000E40C93FD01818382E040
:1004600003C001E00C9381E0F2018183082FE7E0F3
:100470000C94911BF8010081F9010083418300E095
:1004800008950E94851BF801C90100E8DC010C9366
:10049000238100E017C010E0DF01A00FB11F149608
:1004A0001C914091290250912A02DA01A551BC4FBA
:1004B0001C93A9E2B2E04D915C914F5F5F4F5C935A
:1004C0004E930395021738F3018102950F70118145
:1004D0001F70011721F40E94211301E001C000E008
:1004E000FC01018300E0E4E00C94941B0E94851B56
:1004F000D90101E80C930E942F13002309F45CC07A
:1005000000913C0210913B02011769F44CE350E06A
:100510000091290210912A020E94E61A0395009385
:100520003C0201E003C000913B02039500933B02B3
:1005300000913B020295007F10913C02012BFD01CE
:10054000018300E0028300913B0210913C020117FD
:1005500058F40CE30383E9E2F2E0008111810C53CB
:1005600010400083118303C000912902038380910E
:100570003B0290E001974CE350E08C010E94D21ABC
:1005800020E00DC030E0A801420F531FFA01E551F1
:10059000FC4F4081FD01E20FF31F44832395FD01D1
:1005A0003381231778F300913C0210913B0201172D
:1005B00031F40E94371303C000E0FD01018300E025
:1005C000E4E00C94941BBA93AA93D90102E80C932B
:1005D0000E94E813002300E0FD010183C1F00E94A6
:1005E000FF13FD0102830E94021420E009C0F801FC
:1005F00041918F0130E0FD01E20FF31F438323950A
:10060000FD013281231798F30E94F01301C0028389
:1006100008E0A991B9910895BA93AA93F801D90174
:1006200003E80C9304E000933D0230E46DE372E0D4
:10063000AD012381118102810E94A40411960C93C3
:10064000119700E012960C93129700913D021396B9
:100650000C9300913D02A991B99108955B2F0A2E48
:10066000F801D90100810C930181302F20E010E0C6
:1006700000E06281020F261F4381141F4481040F92
:10068000013342E714074CE7240740E1340721F027
:100690000FEFFD01018306C000E0FD01018301E0D1
:1006A0000093170202E0A02DB52F08950E94811B30
:1006B000C801D901FC010081005801F10A9511F12E
:1006C0000A9519F10A9521F1025029F10A5109F40C
:1006D00063C0015639F00A9541F00A9541F00A9538
:1006E00049F053C08C0141DE54C040E050C001913C
:1006F000CF010D93FC010191CF010D939D018C0160
:10070000C0DE47C08C01F2DE44C08C015CDF41C01A
:100710008C0182DF3EC005E80C9371805280442436
:100720000381402A0AE0400E00E0501E662405C006
:10073000299882010E94910163946714E8F4FC01F6
:10074000048107FF0CC0062D10E0E00FF11F0581AA
:1007500007FF03C054985C9A02C0549A5C98FC014D
:10076000048100FFE6CF062D10E0E00FF11F0581A8
:1007700000FFDECF299ADDCF54985C9A05E010E0A7
:100780000E94A60100E0FD01018340E09D018C0173
:1007900071DEE8E00C94901B8C0160DFFACF0E94C0
:1007A000861B0E944B13802F0E944B13805069F0D0
:1007B0008A9569F08A95C9F08E51A1F18A9549F11F
:1007C0008950F9F18A95F9F140C044D03EC00E94A9
:1007D0005713902F0E945713802F0E945713202FDA
:1007E000182F092F51D017D530C00E945713A02FB2
:1007F0000E945713802F0E945713902F00E0FFD4C0
:10080000292F182F0A2F73D00E9485130E94AE1330
:100810001CC00E945913012B11F001E001C000E03F
:100820009CD412C000E0EBD41E9B05C000911B02BB
:1008300010911C0202C000E010E00E94B51300E01D
:10084000E3CFA7D401C09DD4A9D40E94E413E3E070
:100850000C94951B0E944B13002399F4C3D400E021
:100860000E94851301E00E94851302E00E94851317
:1008700000E20E94851301E20E9485130E94AE13DC
:10088000089501E09AD408950E94851BB22F80E05C
:1008900090E0005099F0005119F00A9531F592E07E
:1008A000212F820FA0E0AB1788F40E944B13202F5A
:1008B0008C010E94FD0B0196A395F5CF105029F0F5
:1008C0001A9541F01F5041F010C043D400E0E4E01D
:1008D0000C94941B3AD4FACF0E945713002311F0C2
:1008E00001E001C000E039D4F1CF01E1F0CF0E9476
:1008F000851BA22F80E090E0005091F0005119F08C
:100900000A9501F592E0212F820FB0E0BA1790F41A
:100910008C010E940C0C01960E948513B395F6CFB2
:10092000105029F01A9519F01F5041F00BC000E04B
:100930000E94851300E0E4E00C94941B1E9BF7CF0B
:1009400001E0F6CF01E1F7CF0E94801B412E522E2D
:10095000CA01DB01632E7724E2E9F1E00C94361B37
:10096000062D10E0EC91F0E033960E171F071CF4F3
:1009700000E3702EE6C30C91102F13951C93FC011D
:10098000E00FF71D70820C91102F13951C93FC0142
:10099000E00FF71D70820C91102F13951C9321E02E
:1009A000FC01E00FF71D20834A9409F4CAC3062D09
:1009B00010E0EC91F0E077960E171F07CCF20C9147
:1009C000102F13951C9321E0FC01E00FF71D2083ED
:1009D0000C91102F13951C9320E110E0FC01E00F07
:1009E000F11F208344E10C919C01200F311F04E092
:1009F0000E94190C0C910C5E0C930C91102F139506
:100A00001C93FC01E00FF71D70824A9409F499C30E
:100A1000062D10E0EC91F0E0F5960E171F070CF490
:100A2000A7CF0C91102F13951C9322E0FC01E00F2F
:100A3000F71D20830C91102F13951C9320E110E0DB
:100A4000FC01E00FF11F208342E30C919C01200F79
:100A5000311F08E10E94190C0C910E5C0C930C9153
:100A6000102F13951C93FC01E00FF71D70824A9420
:100A700009F467C3062D10E0EC91F0E0F5960E172F
:100A80001F070CF475CF0C91102F13951C9323E0C6
:100A9000FC01E00FF71D20830C91102F13951C9380
:100AA00020E110E0FC01E00FF11F208342E30C91F4
:100AB0009C01200F311F0AE40E94190C0C910E5C5E
:100AC0000C930C91102F13951C93FC01E00FF71D54
:100AD00070824A9409F435C3062D10E0EC91F0E0E1
:100AE000B1960E171F070CF443CF0C91102F1395DE
:100AF0001C9324E0FC01E00FF71D20830C91102FC4
:100B000013951C9320E110E0FC01E00FF11F2083FE
:100B10004EE10C919C01200F311F0CE70E94190C33
:100B20000C91025E0C930C91102F13951C93FC01F9
:100B3000E00FF71D70824A9409F403C3062D10E0FC
:100B4000EC91F0E036960E171F070CF411CF0C91C4
:100B5000102F13951C9325E0FC01E00FF71D208357
:100B60000C91102F13951C9322E010E0FC01E00F74
:100B7000F11F20834EE10C919C01200F311F0AE9E7
:100B80000E94190C0C910C5F0C934A9409F4D9C281
:100B9000062D10E0EC91F0E036960E171F070CF4CE
:100BA000E7CE0C91102F13951C9326E0FC01E00F6B
:100BB000F71D20830C91102F13951C9322E010E059
:100BC000FC01E00FF11F20834EE10C919C01200FEE
:100BD000311F0EE90E94190C0C910C5F0C934A9482
:100BE00009F4AFC2062D10E0EC91F0E036960E1736
:100BF0001F070CF4BDCE0C91102F13951C9327E00A
:100C0000FC01E00FF71D20830C91102F13951C930E
:100C100022E010E0FC01E00FF11F20834EE10C9177
:100C20009C01200F311F02EA0E94190C0C910C5FED
:100C30000C934A9409F485C2062D10E0EC91F0E083
:100C400034960E171F070CF493CE0C91102F1395AA
:100C50001C9328E0FC01E00FF71D20830C91102F5E
:100C600013951C9322E0FC01E00FF71D20830C91EB
:100C7000102F13951C93FC01E00FF71D70820C914F
:100C8000102F13951C9320E2FC01E00FF71D208329
:100C90000C91102F13951C9322E0FC01E00FF71D1F
:100CA00020830C91102F13951C93FC01E00FF71D6E
:100CB00070824A9409F445C2062D10E0EC91F0E0F0
:100CC00033960E171F070CF453CE0C91102F13956B
:100CD0001C9329E0FC01E00FF71D20830C91102FDD
:100CE00013951C93FC01E00FF71D70820C91102FDF
:100CF00013951C93FC01E00FF71D70824A9409F4D0
:100D000020C2062D10E0EC91F0E034960E171F077C
:100D10000CF42ECE0C91102F13951C932AE0FC019D
:100D2000E00FF71D20830C91102F13951C9321E0E9
:100D3000FC01E00FF71D20830C91102F13951C93DD
:100D4000FC01E00FF71D70820C91102F13951C937E
:100D5000FC01E00FF71D70824A9409F4F2C1062DE0
:100D600010E0EC91F0E034960E171F070CF400CE63
:100D70000C91102F13951C932BE0FC01E00FF71D35
:100D800020830C91102F13951C9321E0FC01E00FA0
:100D9000F71D20830C91102F13951C93FC01E00F7D
:100DA000F71D70820C91102F13951C93FC01E00F1E
:100DB000F71D70824A9409F4C4C1052D0A950A30C2
:100DC00010F07394BEC10C91102F13951C932CE05E
:100DD000FC01E00FF71D20830C91102F13951C933D
:100DE00020E1FC01E00FF71D20830C91102F1395DB
:100DF0001C93FC01E00FF71D70824A9409F4A1C115
:100E0000052D0A950A30E8F60C91102F13951C93C6
:100E10002DE0FC01E00FF71D20830C91102F13959E
:100E20001C9320E1FC01E00FF71D20830C91102F93
:100E300013951C93FC01E00FF71D7082052D0A9598
:100E40000A3008F0BECF0C91102F13951C932EE0A2
:100E5000FC01E00FF71D20830C91102F13951C93BC
:100E600020E1FC01E00FF71D20830C91102F13955A
:100E70001C93FC01E00FF71D7082052D0A950A30C6
:100E800008F09FCF0C91102F13951C932FE0FC01BD
:100E9000E00FF71D20830C91102F13951C9320E178
:100EA000FC01E00FF71D20830C91102F13951C936C
:100EB000FC01E00FF71D7082052D0A950A3008F03D
:100EC00080CF0C91102F13951C9320E1FC01E00FB3
:100ED000F71D20830C91102F13951C9321E0FC012A
:100EE000E00FF71D20830C91102F13951C93FC012C
:100EF000E00FF71D70820C91102F13951C93FC01CD
:100F0000E00FF71D70824A9409F41BC1052D0A9564
:100F10000A3008F056CF0C91102F13951C9321E145
:100F2000FC01E00FF71D20830C91102F13951C93EB
:100F300021E0FC01E00FF71D20830C91102F139589
:100F40001C93FC01E00FF71D70820C91102F13957C
:100F50001C93FC01E00FF71D70824A9409F4F1C064
:100F60005A940AE0501608F02CCF0C91102F1395CC
:100F70001C9322E1FC01E00FF71D20830C91102F40
:100F800013951C9321E0FC01E00FF71D20830C91C9
:100F9000102F13951C93FC01E00FF71D70820C912C
:100FA000102F13951C93FC01E00FF71D70824A94DB
:100FB00009F4C7C0062D10E0EC91F0E033960E174F
:100FC0001F070CF4D5CC0C91102F13951C9323E123
:100FD000FC01E00FF71D20830C91102F13951C933B
:100FE000FC01E00FF71D70820C91102F13951C93DC
:100FF000FC01E00FF71D70824A9409F4A2C0062D8F
:1010000010E0EC91F0E033960E171F070CF4B0CC13
:101010000C91102F13951C9324E1FC01E00FF71D98
:1010200020830C91102F13951C9320E1FC01E00FFD
:10103000F71D20830C91102F13951C93FC01E00FDA
:10104000F71D70824A9409F47CC0062D10E0EC91E3
:10105000F0E0B2960E171F070CF48ACC0C91102FFB
:1010600013951C9320E2FC01E00FF71D20830C91E7
:10107000102F13951C9310E0FC01E00FF71D208347
:1010800000E00AC02C91322F33953C93FC01E20F13
:10109000F71D70820F5F1F4F003217059CF34A94B3
:1010A00009F44FC0062D10E0EC91F0E033960E17D6
:1010B0001F070CF45DCC0C91102F13951C93FC01B1
:1010C000E00FF71D70820C91102F13951C9310E008
:1010D000FC01E00FF11F10838C90082D03950C93F9
:1010E0000EEF0E940C0CFC01E80DF71D00834A94E2
:1010F00041F1062D10E0EC91F0E033960E171F073A
:101100000CF436CC0C91102F13951C93FC01E00FBE
:10111000F71D70820C91102F13951C93FC01E00FAA
:10112000F71D70826C90062D03950C9300E212E07F
:101130000E940C0C860D971DFC0100834A9409F057
:101140007A94072DE9E00C948F1B0E94571301E05D
:1011500008950E94571300E00895002351F0269847
:101160002E980AE010E00E94910125980E942D140B
:1011700006C00E9441142E98269A2D98259A00E0C8
:10118000089526982E980AE010E00E949101259873
:1011900008952E98269A259800E0089500E00E9470
:1011A000991300E20E94851300E80E94851300E075
:1011B0000E9485130E94AE1308958A93802F00E049
:1011C0000E94991300E20E94851300EA0E94851391
:1011D00000E00E948513082F0E9485130E94AE1321
:1011E0008991089500E00E94991300E20E948513FE
:1011F00001E80E94851300E00E94851308950E9473
:10120000991300E20E94851304E80E94851301E00F
:101210000E9485130895002311F4C0DF0895CDDFE7
:1012200008950E944B13002311F406D002C000E180
:1012300074D10E94E41308959A938A9364970E944C
:101240004B130E944B13005809F454C00A9589F1BE
:101250000A95C9F10A9509F442C00A9509F456C0E5
:101260000C5749F00A95B9F00A95D9F00A95E1F0C2
:101270000A95E9F056C073D100E00E94851301E0A1
:101280000E94851300E20E94851304E10E948513E9
:101290000E94AE1348C063D102E00E94851303E0B0
:1012A000F5CF5DD101E0F2CF5AD10BE0EFCF57D1AE
:1012B000EFCF55D18E010E942C0C9E0104E110E06D
:1012C0000E94C713E5CF4BD180E090E003C00E949D
:1012D000851301968E3000E09007CCF3D9CF3FD133
:1012E00080E090E0823000E0900794F60E94851341
:1012F0000196F8CF34D104E70E9485130DE40E94D3
:10130000851301E40E94851304E4C0CF28D180E056
:1013100090E08F3000E090070CF70E948513019653
:10132000F8CF00E1FAD064968991999108959A9343
:101330008A930E944B13802F0E944B13805059F0C8
:101340008A9559F08A95B1F08E5009F18A9511F17C
:101350008F5399F134C03AD034C00E945713902F64
:101360000E945713802F0E945713202F182F092FE8
:101370004FD026C00E945713902F0E945713802FE2
:101380000E945713202F182F092F44D01AC0B4D011
:10139000B5D017C00E945713802FAFD0AFD0813087
:1013A00081F4F894A89500916000086100936000B2
:1013B0000EE000936000789404C0F0D002C000E119
:1013C000E7D00E94E4138991999108950E944B13EC
:1013D000005019F00250A9F018C0B4D000E00E94EB
:1013E000851301E00E94851302E00E94851300E14D
:1013F0000E94851301E10E94851300E50E94851378
:1014000001C0A0D00E94AE13089500E186D00895D7
:1014100000E008950E94851BB02F912F822FA1E03C
:1014200000E0AAD00E94DC13B05071F0BA95B9F177
:10143000B25009F446C0A0E0AA2309F455C000E068
:1014400054C000E00E948513082F8A950023A1F361
:10145000813890F7092F9395EEEDF1E00C94361B4F
:1014600001E0F0CF07E0EECF0AE010E00E94B513F4
:1014700093958A95E9CF02E0E5CF0EEF10E00E9448
:101480000C0CE0CF00E00E948513A0E0DDCF0091BE
:101490001B0210911C020E94B51393958A95082F88
:1014A0008A95002349F2813838F6092F9395002355
:1014B00071F300E00E948513A0E0F1CF0AE00E94E2
:1014C0008513082F8A95002309F4B6CF813808F0D8
:1014D000B3CF092F9395005089F30A9579F300E073
:1014E0000E948513A0E0EDCF01E10E9485130E94C8
:1014F000AE13E4E00C94941B0895089500E00E945C
:10150000991301E00E94851300E80E94851300E012
:101510000E9485130E94AE1308958A93802F00E0E5
:101520000E94991301E00E94851300EA0E9485132E
:1015300000E00E948513082F0E9485130E94AE13BD
:101540008991089500E00E94991301E00E9485139B
:1015500001E80E94851300E00E948513089500E0D1
:101560000E94991300E00E94851301E80E948513F0
:1015700000E00E94851308950E94991301E00E94E3
:10158000851304E80E94851301E00E9485130895E5
:10159000002311F4B3DF0895C0DF08950E946213A1
:1015A000013342E714074CE7240740E1340719F000
:1015B00001E1B3DF089501E0009317029FDF089572
:1015C000EEE3F2E000E000830FEF0783008702E321
:1015D00010E00183128303E30383148300EC1FE311
:1015E0000583168300E001870895EADF08950E94CD
:1015F000811B21970E944B13102F1150A9F01A95AF
:1016000019F11A9551F11A95B1F11A9509F451C0D1
:10161000125009F067C00E944B130E94AF0F802F39
:10162000182F07E06ED061C00E94C30D802F882361
:1016300029F401E000933E0210E0F4CF00E00093B3
:101640003E02182F01E0EECF0E94610E802F00E0D5
:1016500000933E02182F02E0E5CF0E944B13802F2B
:101660000E947C13A801B901082F0E94880F802FC7
:10167000182F03E0D7CF0E944B13402E0E944B132C
:1016800008830E947C13C801D9010E94711398013C
:10169000AC01BD01042D0E94BD0E802F00E02BD0B7
:1016A00004E00E948513082F0E9485130E94AE1348
:1016B0001CC00E944B13402E0E947C13C801D9010C
:1016C0000E947113380100E016D005E00E948513D6
:1016D0009301AC01BD01042D0E948D0E83010E9477
:1016E000A513E4CF10E10DD000000E94E413219671
:1016F000E8E00C94901B0E94991304E10E9485136A
:1017000008959A938A93902F812F00E00E94991355
:1017100004E10E948513092F0E948513082F0E945F
:1017200085130E94AE13899199910895E8E4F2E03F
:1017300000E002830091E20004600093E20000E018
:10174000008301E00183089500911808002309F443
:101750004CC000914A02083008F447C000E00093F2
:101760004A0202E00093E9000091E800102F12FF06
:101770003CC02091F20000E008C03091F10010E080
:10178000F801E55BFD4F308303950217B0F300913C
:10179000E8000B7F0093E8000091E8000F770093CA
:1017A000E8002BE832E00BE412E00E94560301E06F
:1017B0000093E9000091E800102F15FFFBCF00E037
:1017C00008C010E0F801E557FD4F10811093F100BB
:1017D00003950034B0F30091E8000E7F0093E80019
:1017E0000091E8000F770093E800089500914A0205
:1017F000039500934A0208950895003034E01307DA
:1018000050F4F999FECF12BD01BD20BD0FB7F89479
:10181000FA9AF99A0FBF0895003024E0120710F0E9
:101820000FEF0895F999FECF12BD01BDF89A00B5EA
:1018300008950E94831BD801C901542E442407C077
:101840008D01EADF1196FC010193CF014394451409
:10185000B8F3E6E00C94921BBA93AA93D80144E142
:101860009D0104E010E00E94190C0C910F3F39F427
:1018700044E150E020E032E08D010E949F1BA991DD
:10188000B99108954DD000E212E00E940C0C01FBCA
:1018900016F403E001C004E052D06CD00091D700F0
:1018A00001600093D7000E94CD190E94960B0E9400
:1018B000FC000E94550D3E9A469808E813E10093FB
:1018C00015021093160200911A02002309F0C7D0E6
:1018D0000E94D5190E94A40B0E94FD000E945D0D7C
:1018E00000911702002379F301E00093E9000091D1
:1018F000E800102F15FFFBCF02E310E00E94A601C5
:101900000091D8000F770093D80002E310E00E9406
:10191000A601F89403E013D040D00C940038D3CF44
:10192000F894A89504B7077F04BF00916000086190
:101930000093600000E00093600078940895102FF9
:101940001F701630B0F420E82093610010936100FE
:10195000002311F400E103C0013021F408E00093FA
:1019600018020895043011F401E0F9CF00E000936B
:101970001802089524982C9A01E00093190203E0BC
:1019800005BD00911802083011F400E806BD009171
:101990006E00016000936E00089500E000936E00F9
:1019A000009319020895EDE1F2E00081000F008339
:1019B0001C9B03C00081016000830181108110170E
:1019C00099F00F3F41F41081112329F4549A5C9847
:1019D00000E001830895002339F400810F3F21F4D2
:1019E00054985C9A0FEF018308958A93FA93EA93CF
:1019F0003A922A921A920A927A936A935A934A9343
:101A00003A932A931A930A938FB7009118020830D9
:101A100011F400E806BD00911902002309F0C3DFAC
:101A20000091150210911602012B41F0E5E1F2E060
:101A30000081118101501040008311838FBF0991F3
:101A40001991299139914991599169917991099007
:101A5000199029903990E991F99189911895E5E1CA
:101A6000F2E000911808002319F000E005830895C2
:101A700000811181012BC1F43E9800E0058300E252
:101A800012E00E940C0C02FB7EF00FEF009364004A
:101A90000093650005E003BF889500E003BF009355
:101AA0006400009365003E9A08950E94F50A00E0E4
:101AB0000093CB020093CC0208959A938A930E94DC
:101AC00043130023A9F00E944B130E3079F40E94B7
:101AD0004B130E945913C8010093CB021093CC0200
:101AE0000E944B13202F8C0106D002C00E94E413E9
:101AF000899199910895205039F02A9541F0235108
:101B000049F02C5051F008950E94110908950E9447
:101B1000970908950E94F70A08950E94CF03089537
:101B20000EE00E9485130091CB021091CC020E941E
:101B3000B51308958A93209A04E610E00E9491015B
:101B4000219A299A229A2A9A80E00BC02A9A01E0C7
:101B500010E00E9491012A9801E010E00E9491019A
:101B60008395813198F300E089910895219803B11C
:101B700022982A9820980895002311F0219A01C0F4
:101B80002198299A08950E94851B259700E212E06A
:101B90000E940C0C00FB46F444E12DEC32E000E026
:101BA00012E00E94190C09C0EDECF2E000E003C065
:101BB0001FEF119303950431D8F301E0F3D1AEE3A5
:101BC000B2E000913E02002331F00E94D70F0AE0FC
:101BD00010E00E94A6010E94D30F002311F001E043
:101BE0006CC09E010FE00E94F20F002309F065C057
:101BF0009E0102E00E94F20F0023C9F714E002E008
:101C00000E94FE0F002399F79E012F5F3F4F02E0D5
:101C10000E94F20F0981043011F70E94DB0F0023AC
:101C200031F780E004C00AE010E00E94A60183952D
:101C30008436A9F29E0100E00E94F20F0023E9F52C
:101C4000088101FFF0CF10E0FD012381022F0E94E7
:101C50007110002391F5BE016E5F7F4F43E050E0AD
:101C6000FD010581168120E030E00E94261000234E
:101C700021F50A810E3109F0B2CF3B810C81FD01C3
:101C80000783308700914702002389F4078110857C
:101C90000E3022E9120711F404E007C00F3021E9E9
:101CA000120711F402E001C001E00093470201E0D5
:101CB00000933E023E9A469800E02596E4E00C949C
:101CC000941B8A93219700913E02002311F401E0B6
:101CD00021C010E000E00E94FE0F0023D9F480E054
:101CE0000EC00AE010E00E94A6019E0100E00E94E2
:101CF000F20F002379F4088101FF84E6839584368E
:101D000080F30E94D70F00E000933E023E9A469A6D
:101D100049D100E02196899108950E947F1B2A01F4
:101D20003B01490100913E02002311F401E022C071
:101D30000E94DF13D80100E00E94851310E020917B
:101D40004102022F0E9471100023A1F40E94DC13B3
:101D5000C801FC0160817181A401820193010E948C
:101D60002610FC0120813181280D391D208331830B
:101D70000C9300E0EAE00C948E1B0E947B1B902EDB
:101D80002A013B0159018824AEE3B2E000913E02F2
:101D9000002321F401E0EEE00C948A1BC09047027E
:101DA000DD24850116950795A6010E94E61A802F6D
:101DB000A60185010E94E61A942F092D015049F1D0
:101DC000035039F10A9509F0A1C0820193010E94E4
:101DD0005210A02EAA2011F00A2DDDCF1DE1FD0129
:101DE0002381022F0E947110A02EAA20A9F70E9421
:101DF0004B130E946710A02EAA2071F70FEF0E94CC
:101E00006710A02EAA2041F70AE00E943A11A02EE6
:101E1000E3CF820193010E945210A02EAA20E1F686
:101E20000091CD02901679F41091CE0200E020913D
:101E3000CF02020F212F220F220B401651066206FD
:101E4000720609F483941DE1FD012381022F0E9493
:101E50007110A02EAA2001F6082F8A95002351F1B7
:101E6000A091470202C00E949E10AA23A9F30E94DB
:101E70004B13882039F01091D00201231091D10228
:101E8000012B88240E946710A02EAA2009F0A4CF5D
:101E90000E944B130E946710A02EAA2009F09CCF2D
:101EA000AA9509F70AE00E943A11A02EAA2009F08B
:101EB00093CFDBCF992309F48FCF80914702880F0E
:101EC00002C00E949E10882309F486CF092F9A959C
:101ED000002349F00E944B130E946710A02EAA20F5
:101EE00009F07ACF07C00FEF0E946710A02EAA203A
:101EF00009F072CF8A95082F0E7F19F70AE00E9429
:101F00003A11A02EAA2009F067CFDDCF04E07FCFE1
:101F10000E94851BCA01DB01EEE3F2E01081112370
:101F200011F401E015C0015029F00A95A1F0075005
:101F300091F013C010E12381022F0E94711045E53A
:101F40008C019D010E9408100AE00E943A1100E0F5
:101F5000E4E00C94941B14E1EECF04E0F9CFBA93C3
:101F6000AA93AEE3B2E010913E02112311F401E016
:101F700016C0035029F00A9549F00C5059F0F7CFDC
:101F80000E94591313960D931C9308C00E94591375
:101F90001196F9CF0E944B130093470200E0A991DC
:101FA000B9910895089504E60E949A0D08950E943B
:101FB000B60D00E008958A9380E000EECFD00023B4
:101FC00011F0899108958830E0F7082F10E001950D
:101FD0001040F801E15EFD4F0781C0D0002389F772
:101FE0008395F1CF9A938A93C9010068B7D00023F3
:101FF00011F48C01E7D08991999108958A93812FEA
:10200000006CACD0002311F4082FA8D0899108955A
:102010000E94841BC801442E08E6A0D0002399F436
:102020008C019CD0002379F409E698D0002359F460
:10203000892F082F93D0002331F400E68FD000239E
:1020400011F4042D8BD0E5E00C94931B0E94811BAE
:10205000C8013A012B0108E681D0002319F0E8E01D
:102060000C94901B8C017AD00023C9F709E676D036
:102070000023A9F7892F082F71D0002381F793013E
:102080001FEF610E711E232B51F304E267D0002372
:1020900031F7820197D011E0410E10E0511E00236C
:1020A000F1F6EDCF9A938A93C80108E657D0002342
:1020B00059F48C0153D0002339F409E64FD00023A2
:1020C00019F4892F082F4AD08991999108958A93FC
:1020D000802F04E643D0002311F4082F3FD08991CC
:1020E00008958A93812F102F1073110F0F70102BEA
:1020F0001069012F33D0002311F4082F2FD08991BC
:1021000008959A938A93C901102F1073110F0F70BD
:10211000102B1061012F22D0002311F48C0152D01A
:102120008991999108952A9801E010E00E94910107
:102130002A9A01E010E00E94910108958A93299A59
:1021400001E00E94BC0D80E002C0EDDF83958D3080
:10215000E0F300E00E94BC0D899108950E94861B67
:10216000902FA0E001E00E94BC0D2998DCDF80E008
:102170000CC029982A9801E010E00E9491012A9A47
:1021800001E010E00E9491018395883058F4092FF6
:1021900010E0482F0E94E01A017059F301E0A027D7
:1021A000299AE8CFAA2311F0299A01C02998BBDF08
:1021B000299AB9DFB8DF00E00E94BC0D00E0E3E03F
:1021C0000C94951B0E94841BC8014424B0E000E0DD
:1021D0000E94BC0D2A9801E010E00E949101A8EE37
:1021E000199B0EC02A9A01E010E00E9491012A98E2
:1021F00001E010E00E949101AA9591F703E037C039
:102200002A9A01E010E00E9491012A9801E010E072
:102210000E949101A0E013C0199B07C001E0402675
:102220004A2F10E00E94DA1AB02B01E010E00E9461
:1022300091012A9801E010E00E949101A395A83035
:102240002A9A50F300E0199901E0042579F4FC0181
:10225000B08301E010E00E94910165DF64DF00912E
:10226000E10203950093E10200E001C002E0E5E035
:102270000C94931B8A932197802F04C001E010E0F7
:102280000E94A601082F8A95002359F09E01009113
:102290003F0237DF002331F4088107FDEFCF00E074
:1022A00001C003E0219689910895FA93EA933A9345
:1022B0002A931A930A933FB7009164030038C8F435
:1022C0002091CE000091620310E0F801EE51FD4F25
:1022D00020830091620303950093620300916203DF
:1022E000003811F410936203009164030395009386
:1022F00064033FBF0991199129913991E991F991AD
:102300001895FA93EA932A931A930A932FB7009198
:1023100067030023D1F00091660310E0F801E7594C
:10232000FC4F00810093CE0000916603039500935B
:10233000660300916603003811F410936603009160
:1023400067030A950093670303C000E000936803E6
:102350002FBF099119912991E991F99118950E943E
:10236000821BC801D901442E552E662EE2E6F3E009
:1023700000E0008301830383048316D08C019D0158
:1023800035D0052D29D0042D1ED0062D13D0009157
:10239000C900006C0093C9000091C9000861009356
:1023A000C900E7E00C94911B0091C900077E0093DF
:1023B000C90008951091CA00197F0370000F102BF7
:1023C0001093CA0008951091CA001F7C0295007FE7
:1023D000102B1093CA0008951091CA00177F000FA8
:1023E000000F000F102B1093CA0008950E947D1B50
:1023F00028013901409161004F7000E014E224EFA0
:1024000030E00E94021B003442E414074FE024072E
:1024100040E0340749F40091C80002600093C8000E
:102420000CE04093CD0027C04091C8004D7F409301
:10243000C80044E00E94FA1AD901A201B3019D012B
:102440000E940A1B015010401093CD000093CC0055
:1024500042015301B694A7949794879480149104F1
:10246000A204B30450F40091CC001091CD000F5F92
:102470001F4F1093CD000093CC00ECE00C948C1B0C
:10248000AD01102FE2E6F3E00681002329F410935A
:10249000CE0001E0068318C001E0F89425812038C1
:1024A00088F4238130E0D901A759BC4F1C931381D4
:1024B000139513831381103809F433831581139511
:1024C000158301C000E07894DA0108950091640357
:1024D00008959D0100E0F894E2E6F3E012811123F3
:1024E00089F0018110E0D801AE51BD4F0C911181EE
:1024F000139511831181103811F410E011831281AA
:102500001A9512837894D90108950091D8000F7715
:102510000093D8000091D80000680093D800009183
:10252000D80000610093D800789408950091D800F5
:1025300000620093D80002B7007F02BF02B70A64AE
:1025400002BF02E109BD09B5102F10FFFCCFF894BE
:102550000091D8000F7D0093D8000091E0000E7F1D
:102560000093E0000091E000077F0093E0000E94EC
:102570001E140091E20001600093E2000091E2006D
:1025800008600093E200789408950091D900102F1C
:1025900010FF19C00091E9030023A9F401E00093A2
:1025A000E903E9E1F8E00081118102601183008311
:1025B0000091D80000680093D800B8DF0091E000D7
:1025C0000E7F0093E0000091D900102F10FD1AC07B
:1025D0000091E9030130B1F400E00093E9030093B6
:1025E0001808E9E1F8E0008111810460118300839B
:1025F0000091E00001600093E0000091D8000062CB
:102600000093D800E9E1F8E000811181012F00FF7B
:102610000DC0008111811E7F1183008301E00093B2
:10262000EA0000E00093EA000093180800E000933D
:10263000E9000091E800102F13FF02C00E94291743
:102640000895E7E2F2E00481002339F40BEE13E091
:102650000083118301E00483089500E00895009150
:102660002C02002311F001E0089500E00895E7E254
:10267000F2E000E00583028303830BEE13E00083A6
:10268000118301E0089500912B02002311F001E075
:10269000089500E008951B2F2A2FE7E2F2E0A081C1
:1026A000B1810D91A083B183A22FB12F0895F3DFE3
:1026B00008958A93FCDF802FFADF282F302F8901BD
:1026C000899108950E94851BF4DFC801A0E0B0E065
:1026D000F0DF8A0FA01FB11F8C019D01E4E00C9474
:1026E000941B9A938A93E3DF902F80E0E0DF800FC2
:1026F0008C01899199910895BA93AA93F2DFD80138
:10270000F0DF9D01A991B9910895E0912702F09120
:1027100028020083E7E2F2E0008111810F5F1F4F82
:1027200000831183028113810F5F1F4F0283138384
:102730000895E7E2F2E000E0028303830BEE13E08A
:10274000008311830E94900D0895E7E2F2E0228158
:102750003381200F311F22833383089501E00093DA
:102760002C020895D2DF01E008950E94861BC80163
:10277000F9DFA02F892F082FF5DF002311F001E0EA
:1027800001C000E0A0230A2FE3E00C94951B0E94F7
:10279000851BC801D901813002E0900728F00000B4
:1027A00000E007C00D91B1DF8C010197012BD1F73B
:1027B00001E0E4E00C94941B07E212E0089500911C
:1027C000270210912802089500E000932B0208953B
:1027D0000091F507013011F401E0089500E008953B
:1027E000E5EFF7E000E000830EE0028300E0038302
:1027F000048915890483158304E0018308950091F9
:10280000F607089507EF17E008952091EB00216087
:102810002093EB000093EC000091ED000270012B7F
:102820000093ED000091ED0002600093ED00109127
:10283000EE00012F000F00E0001F089500E000935C
:10284000E9000091EB00102F00E010FD05C000939F
:10285000E90010E202E0D9DF0895EDE2F2E0048140
:10286000002371F00681002311F051E001C050E017
:102870006085478100811181228133810E94AF11DF
:10288000089500913102002311F00E94D41108959F
:10289000202F0091F1003091F100213869F41630B9
:1028A00059F4432F415219F04A9519F005C066D2E8
:1028B00001C0EDD001E008952132F9F5412F4950D2
:1028C000A9F14A95B9F1465119F0425019F035C0B5
:1028D000ACD1F0CF1091E800177F1093E800109171
:1028E000E8001E7F1093E80000933202EDE2F2E070
:1028F000058100FF11C000913102002389F401E03D
:1029000000933102AADF549A5C9808EC10E00E9410
:10291000910154985C9A04C0B4DF00E00093310246
:102920000091E800102F10FFFBCFC4CF323029F404
:1029300019D1C0CF132F35D1BDCF213A41F4125058
:1029400021F01F5121F4E4D1B5CF41D1B3CF00E044
:10295000089501E00093E90010E301EC0E940514E2
:1029600002E00093E90010E300EC0E94051403E08C
:102970000093E90010E301EC0E94051404E00093C9
:10298000E90010E301E80E94051405E00093E90066
:1029900010E300E80E940514089500E00895202F38
:1029A000212B79F401E00093E9000091EB00006134
:1029B0000093EB0002E00093EA0000E00093EA00DD
:1029C00011C0013020E0120799F403E00093E90000
:1029D0000091EB0000610093EB0008E00093EA0037
:1029E0002093EA000091EB0008600093EB0008954B
:1029F0000230120791F404E00093E9000091EB002B
:102A000000610093EB0000E10093EA002093EA00EC
:102A10000091EB0008600093EB0008950330A9F5E6
:102A2000105049F01A9569F01A95B1F01A95D1F045
:102A30001A9529F12AC004E000930F080BE611E073
:102A400005C00CE000930F0809E211E000930C08A8
:102A500010930D0801E0089500E200930F0805E3CC
:102A600011E0F4CF09E611E000930C0810930D0873
:102A700001E000930E080AE200930F08EBCF04E197
:102A800000930F0805E511E0E1CF00E00895AC01E7
:102A900022970091F1000091F10003E200930F08EA
:102AA0000FE611E000930C0810930D080091F1005F
:102AB00008830091F10009830091E800077F0093EB
:102AC000E800888199818432904028F5088100933C
:102AD0000F0821C0E0910C08F0910D0804910093BB
:102AE000F100ECE0F8E0208131812F5F3F4F20833F
:102AF000318300910F080A9500930F0800910F0889
:102B0000002321F0012F1395003221F70091E800F6
:102B10000E7F0093E80000910F08002361F0009100
:102B2000E800102F12FD07C00091E800102F10FFE1
:102B3000FBCF10E0E3CF0091E800102F12FD05C09D
:102B40000091E800102F12FFFBCF0091E8000B7FEF
:102B50000093E8000091E8000F770093E8002296C8
:102B6000CA0108950091E800077F0093E8000091F2
:102B7000E8000E7F0093E8000091E800102F12FF9C
:102B8000FBCF0091E8000B7F0093E8000091E80084
:102B90000F770093E8000091E8000E7F0093E800B3
:102BA00008950091F1000091F1000091E800077F85
:102BB0000093E80010930B080091E8000E7F00934B
:102BC000E8000091E800102F10FFFBCF0895229736
:102BD0000091F1000091F1000091F1000883009153
:102BE000F10009830091E800077F0093E800088165
:102BF0001981012B49F000910B080093F10000911D
:102C0000E8000E7F0093E8000091E800102F12FF0B
:102C1000FBCF0091E8000B7F0093E8000091E800F3
:102C20000F770093E800229608950091E800077F4F
:102C30000093E8000091E800102F12FFFBCF0091F5
:102C4000F10000932D020091F10000932E020091FB
:102C5000F10000932F020091F100009330020091E7
:102C6000F100009333020091F100009336020091CD
:102C7000F100009337020091E8000B7F0093E80019
:102C80000091E8000F770093E8000091E8000E7FC4
:102C90000093E8000091E800102F10FFFBCFEDE259
:102CA000F2E000811181228133810E94F6110091AE
:102CB0003302002311F001E001C000E00E94EC119A
:102CC00000913702055029F00A9529F00A9529F05C
:102CD00006C000E005C001E003C002E001C003E05F
:102CE00000933502009135020E94DA1100913602FC
:102CF000015021F00A9521F000E003C003E001C07B
:102D000002E000933402009134020E94E31108951E
:102D10000091E800077F0093E800EDE2F2E0008117
:102D20000093F10001810093F10002810093F10012
:102D300003810093F10006810093F1000185009367
:102D4000F10002850093F1000091E8000E7F0093EE
:102D5000E8000091E800102F10FFFBCF0091E80081
:102D6000102F12FFFBCF0091E8000B7F0093E800CB
:102D70000091E8000F770093E8000895AC012297D6
:102D80000091F1000091F10009E000930F0800EDBF
:102D900010E000930C0810930D080091F1000883D7
:102DA0000091F10009830091E800077F0093E8009B
:102DB000888199818A30904028F5088100930F0816
:102DC00021C0E0910C08F0910D0804910093F100EE
:102DD000ECE0F8E0208131812F5F3F4F2083318389
:102DE00000910F080A9500930F0800910F08002327
:102DF00021F0012F1395003221F70091E8000E7F9A
:102E00000093E80000910F08002361F00091E800B2
:102E1000102F12FD07C00091E800102F10FFFBCF0C
:102E200010E0E3CF0091E800102F12FD05C00091E3
:102E3000E800102F12FFFBCF0091E8000B7F0093FA
:102E4000E8000091E8000F770093E8002296CA019D
:102E500008959A938A930091E8000B7F0093E8000D
:102E60008091F1009091F100092F005049F10A95ED
:102E700009F1025011F10250A9F00A9549F00250EF
:102E800069F00A9599F00A95F1F00A9501F124C0CC
:102E9000803811F56ED0002391F51EC08038E1F422
:102EA00035D12DC08823C1F42DD029C08823A1F4A9
:102EB00047D0F1CF082FD2D1EECF082F8ED1EBCF54
:102EC000082F47D1E8CF813839F40ED2E4CF8130D2
:102ED00019F43BD2002399F4192F082F0E944814AB
:102EE000002369F40091EB0000620093EB00009175
:102EF000E800077F0093E80001E000931008899143
:102F0000999108951091F1000091E30000781F77E6
:102F1000012B0093E3000091E800077F0093E80095
:102F20000091E8000E7F0093E8000091E800102F68
:102F300010FFFBCF0091E30000680093E3000895C9
:102F40001091F100123010F000E008950091E800B7
:102F5000077F0093E800109318080091E8000E7FA7
:102F60000093E800009118080E94A914469A01E015
:102F700008950E94831B649790E01091F1000091E6
:102F8000F100202F215019F02A9549F12EC002E1BD
:102F900000930F080CEA10E0ECE0F8E000831183E6
:102FA0000091F1000091F1000091F100088300917F
:102FB000F10009830091E800077F0093E8000CE02E
:102FC000402E08E0502E00910F0810E02881398132
:102FD0000217130780F40F7189F491E00FC00BE61C
:102FE00000930F080EEB10E0D7CF0E940E150023C0
:102FF000B9F600E087C0088100930F080091E8004F
:103000000F7E0093E800A0E080910F088E010E94DF
:103010002C0C8E0105C02091E8002E7F2093E80043
:1030200020910F08222309F449C02091E800322F93
:1030300034FD44C02091E800322F30FD05C02091BE
:10304000E800322F34FFF6CF40E012C0F2012081B9
:103050003181F90124912093F100F2012081318125
:103060002F5F3F4F20833183F20123812A952383F1
:1030700050910F085523E9F0242F43952032C9F0D1
:1030800020910E08222311F3252F30E0E82FF0E0E5
:1030900031972E173F07D4F62A2FA39520FB1EF455
:1030A0003093F100E1CFF80121918F012093F100DD
:1030B000DBCF2091E800322F34FFADCF00E000934A
:1030C0000E08913079F40091E800102F14FD0AC029
:1030D0000091E800102F10FFFBCF0091E8000E7F59
:1030E0000093E8000091E800102F14FFFBCF00913F
:1030F000E8000F7E0093E8000091E8000B7F00934A
:10310000E80001E06496E6E00C94921B0091E80070
:10311000077F0093E800009118080093F1000091E8
:10312000E8000E7F0093E8000091E8000F7700931D
:10313000E8000091E800102F12FFFBCF0091E8009B
:103140000B7F0093E8000091E8000F770093E80000
:1031500008951091F1001091F1002091F1000058B4
:1031600029F00A9529F10A9551F135C00091E8003E
:10317000077F0093E800009117080093F10000E03A
:103180000093F1000091E8000E7F0093E8000091A9
:10319000E800102F12FFFBCF0091E8000B7F009397
:1031A000E8000091E8000F770093E80001E008953F
:1031B0000091E800077F0093E80000E0DECF009177
:1031C000E800077F0093E8002F7730E0F901E05F27
:1031D000F74F0081D2CF00E00895005019F002505F
:1031E00029F002C00091F10000E008950091F10083
:1031F0001091F1000023C1F70091F1000F7751F415
:103200001091EB0010621093EB001091E800177F13
:103210001093E8000093E9001091EB00212F20FDAE
:1032200004C000E00093E90008951091EB001062E3
:103230001093EB0010E01093E90021E0F801E05F4B
:10324000F74F20830091E800077F0093E80000918A
:10325000E8000E7F0093E80001E00895005019F0A7
:10326000025029F002C00091F10000E008950091A1
:10327000F1001091F1000023C1F72091F1002F77A8
:103280002093E9000091EB00102F10FD04C000E036
:103290000093E9000895A1F00091EB000061009314
:1032A000EB00422F01E010E00E94DA1A0093EA00DE
:1032B00000E00093EA000091EB0008600093EB004F
:1032C00000E00093E90030E0F901E05FF74F008390
:1032D0000091E800077F0093E8000091E8000E7F6E
:1032E0000093E80001E0089522970091F100009119
:1032F000F1001091F10018831091F100198300235F
:1033000011F50091E800077F0093E800088119811A
:103310000E94CD140093F1000091E8000E7F00930D
:10332000E8000091E800102F12FFFBCF0091E800A9
:103330000B7F0093E8000091E8000F770093E8000E
:1033400001E02296089500E0FCCF22972091F10041
:103350000091F1001091F10018831091F100198390
:10336000002311F000E017C00091E800077F0093F0
:10337000E800088119810E94CF1400E00093E90061
:103380000091E8000E7F0093E8000091E800102F04
:1033900010FFFBCF01E0229608950091D700016055
:1033A0000093D7000E94851208950E94C5120895C7
:1033B0008A93FA93EA933A922A921A920A927A9309
:1033C0006A935A934A933A932A931A930A938FB71C
:1033D0000091E100102F12FF0AC00091E200102FAF
:1033E00012FF05C00BEF0093E1000E94F60B009165
:1033F000E100102F10FF2BC00091E200102F10FFF2
:1034000026C001E00093EA030FEE0093E100E9E13A
:10341000F8E0008111810062118300830EEF0093B8
:10342000E1000091E20000610093E2000091E200FF
:103430000F7D0093E2000091D80000620093D80055
:1034400009B50D7F09BD00E009BD0E94FC0B00918C
:10345000E100102F14FF49C00091E200102F14FF6B
:1034600044C009B5102F10FD0CC002B7007F02BF89
:1034700002B70A6402BF02E109BD09B5102F10FFAF
:10348000FCCF0091D8000F7D0093D8000FEE009381
:10349000E1000091EA03002341F10091E2000062A3
:1034A0000093E2000091E20008600093E2000FEE5A
:1034B0000093E1000091E2000F7E0093E200E9E159
:1034C000F8E0008111810064118300830091E20023
:1034D00001600093E2000091E20000620093E200CC
:1034E0000091E20008600093E2000091E100102FDB
:1034F00015FF1CC00091E200102F15FF17C000E05F
:103500000093EA030091E2000F7E0093E2000FEDCA
:103510000093E1000091E2000F7D0093E200E9E1F9
:10352000F8E0008111810068118300830091E100BF
:10353000102F13FF11C00091E200102F13FF0CC0D9
:1035400007EF0093E1000E941E14E9E1F8E000811A
:1035500011811160118300838FBF09911991299105
:1035600039914991599169917991099019902990CE
:103570003990E991F9918991189500008895FECFCD
:103580000FEF0DBF01E00EBFC0E8D1E00E949D1B10
:10359000002311F00E94BB1B0E94420C0E94BD1A26
:1035A0000C94BD1A149F102D059F100D049F002D23
:1035B000110D08954A951AF0000F111FFBCF0895C1
:1035C0004A951AF015950795FBCF0895002411240C
:1035D000EFE0001F111F001C111C0416150610F04F
:1035E000041A150AEA95AAF7001F111FA0010095F9
:1035F000109508954A952AF03695279517950795C1
:10360000F9CF08954A952AF035952795179507958E
:10361000F9CF0895002411241001E0E2EA9592F018
:10362000001F111F221F331F001C111C221C331CE2
:10363000041615062606370688F3041A150A260A04
:10364000370AECCF001F111F221F331FA001B10149
:103650000095109520953095089575916591559137
:103660004591159011FA259035900895F9DF041BC6
:1036700010E003C0F4DF041B150B20E030E005C0B0
:10368000ECDF041B150B260B370BB8F010FC17C032
:1036900045910590E00FF11F0417100540E0240745
:1036A000340758F436F404910024F101E01BF009CA
:1036B0000994E00FF11F25903590F101099411F460
:1036C000D6F7F1CF31960EF0319650E060E070E021
:1036D00045914B3F48F089F34F3F29F04E3F11F0A1
:1036E0007591659155914591041B150B260B370B70
:1036F00039F318F3E7CFDA92CA92BA92AA929A9261
:103700008A927A926A925A924A92BA93AA939A9316
:103710008A930895DD84CC84BB84AA8499848884A8
:103720007F806E805D804C80BB81AA819981888179
:10373000F0E0EC0FFD1FEF01089501E008950D0189
:10374000D80104C0F90161919F016D93BA01415004
:103750005040672BB9F7D001089520E006D0E9F773
:103760000895259102D0E9F708952D930150104056
:10377000202F212B08958AEA97E3FC0105911491EB
:10378000FC013296A591B491FC01349625913491B7
:10379000422F432B19F0F901E4DF01C0DEDF06966A
:1037A00017E3863B910748F30895E30538020000CC
:1037B00038000002B6374646464646464646464626
:1037C000464646464646464646460000000010012C
:1037D00001881355FF1289AB45CDD888FFEB030054
:0E37E00000000080250000000000000300082B
:0400000300000000F9
:00000001FF
